{
  "contractName": "Culturestake",
  "abi": [
    {
      "inputs": [
        {
          "internalType": "address[]",
          "name": "_owners",
          "type": "address[]"
        }
      ],
      "payable": false,
      "stateMutability": "nonpayable",
      "type": "constructor"
    },
    {
      "anonymous": false,
      "inputs": [
        {
          "indexed": false,
          "internalType": "address",
          "name": "owner",
          "type": "address"
        }
      ],
      "name": "AddedOwner",
      "type": "event"
    },
    {
      "anonymous": false,
      "inputs": [
        {
          "indexed": false,
          "internalType": "bytes32",
          "name": "festival",
          "type": "bytes32"
        }
      ],
      "name": "DeactivateFestival",
      "type": "event"
    },
    {
      "anonymous": false,
      "inputs": [
        {
          "indexed": false,
          "internalType": "address",
          "name": "questionAddress",
          "type": "address"
        }
      ],
      "name": "DeactivateQuestion",
      "type": "event"
    },
    {
      "anonymous": false,
      "inputs": [
        {
          "indexed": false,
          "internalType": "address",
          "name": "boothAddress",
          "type": "address"
        }
      ],
      "name": "DeactivateVotingBooth",
      "type": "event"
    },
    {
      "anonymous": false,
      "inputs": [
        {
          "indexed": false,
          "internalType": "bytes32",
          "name": "festival",
          "type": "bytes32"
        },
        {
          "indexed": false,
          "internalType": "uint256",
          "name": "startTime",
          "type": "uint256"
        },
        {
          "indexed": false,
          "internalType": "uint256",
          "name": "duration",
          "type": "uint256"
        }
      ],
      "name": "InitFestival",
      "type": "event"
    },
    {
      "anonymous": false,
      "inputs": [
        {
          "indexed": false,
          "internalType": "bytes32",
          "name": "festival",
          "type": "bytes32"
        },
        {
          "indexed": false,
          "internalType": "address",
          "name": "questionAddress",
          "type": "address"
        },
        {
          "indexed": false,
          "internalType": "uint8",
          "name": "questionType",
          "type": "uint8"
        },
        {
          "indexed": false,
          "internalType": "bytes32",
          "name": "question",
          "type": "bytes32"
        }
      ],
      "name": "InitQuestion",
      "type": "event"
    },
    {
      "anonymous": false,
      "inputs": [
        {
          "indexed": false,
          "internalType": "bytes32",
          "name": "festival",
          "type": "bytes32"
        },
        {
          "indexed": false,
          "internalType": "address",
          "name": "boothAddress",
          "type": "address"
        }
      ],
      "name": "InitVotingBooth",
      "type": "event"
    },
    {
      "anonymous": false,
      "inputs": [
        {
          "indexed": false,
          "internalType": "address",
          "name": "owner",
          "type": "address"
        }
      ],
      "name": "RemovedOwner",
      "type": "event"
    },
    {
      "constant": false,
      "inputs": [
        {
          "internalType": "address",
          "name": "owner",
          "type": "address"
        }
      ],
      "name": "addOwner",
      "outputs": [],
      "payable": false,
      "stateMutability": "nonpayable",
      "type": "function"
    },
    {
      "constant": true,
      "inputs": [],
      "name": "getOwners",
      "outputs": [
        {
          "internalType": "address[]",
          "name": "",
          "type": "address[]"
        }
      ],
      "payable": false,
      "stateMutability": "view",
      "type": "function"
    },
    {
      "constant": true,
      "inputs": [
        {
          "internalType": "address",
          "name": "owner",
          "type": "address"
        }
      ],
      "name": "isOwner",
      "outputs": [
        {
          "internalType": "bool",
          "name": "",
          "type": "bool"
        }
      ],
      "payable": false,
      "stateMutability": "view",
      "type": "function"
    },
    {
      "constant": true,
      "inputs": [
        {
          "internalType": "address",
          "name": "",
          "type": "address"
        }
      ],
      "name": "questions",
      "outputs": [
        {
          "internalType": "bool",
          "name": "",
          "type": "bool"
        }
      ],
      "payable": false,
      "stateMutability": "view",
      "type": "function"
    },
    {
      "constant": false,
      "inputs": [
        {
          "internalType": "address",
          "name": "prevOwner",
          "type": "address"
        },
        {
          "internalType": "address",
          "name": "owner",
          "type": "address"
        }
      ],
      "name": "removeOwner",
      "outputs": [],
      "payable": false,
      "stateMutability": "nonpayable",
      "type": "function"
    },
    {
      "constant": false,
      "inputs": [
        {
          "internalType": "address",
          "name": "prevOwner",
          "type": "address"
        },
        {
          "internalType": "address",
          "name": "oldOwner",
          "type": "address"
        },
        {
          "internalType": "address",
          "name": "newOwner",
          "type": "address"
        }
      ],
      "name": "swapOwner",
      "outputs": [],
      "payable": false,
      "stateMutability": "nonpayable",
      "type": "function"
    },
    {
      "constant": true,
      "inputs": [
        {
          "internalType": "bytes32",
          "name": "_festival",
          "type": "bytes32"
        }
      ],
      "name": "isValidFestival",
      "outputs": [
        {
          "internalType": "bool",
          "name": "",
          "type": "bool"
        }
      ],
      "payable": false,
      "stateMutability": "view",
      "type": "function"
    },
    {
      "constant": true,
      "inputs": [
        {
          "internalType": "bytes32",
          "name": "_festival",
          "type": "bytes32"
        },
        {
          "internalType": "bytes32[]",
          "name": "_answers",
          "type": "bytes32[]"
        },
        {
          "internalType": "uint256",
          "name": "_nonce",
          "type": "uint256"
        },
        {
          "internalType": "uint8",
          "name": "sigV",
          "type": "uint8"
        },
        {
          "internalType": "bytes32",
          "name": "sigR",
          "type": "bytes32"
        },
        {
          "internalType": "bytes32",
          "name": "sigS",
          "type": "bytes32"
        }
      ],
      "name": "isValidVotingBooth",
      "outputs": [
        {
          "internalType": "address",
          "name": "",
          "type": "address"
        }
      ],
      "payable": false,
      "stateMutability": "view",
      "type": "function"
    },
    {
      "constant": true,
      "inputs": [
        {
          "internalType": "bytes32[]",
          "name": "_answers",
          "type": "bytes32[]"
        },
        {
          "internalType": "uint256",
          "name": "_nonce",
          "type": "uint256"
        }
      ],
      "name": "getHash",
      "outputs": [
        {
          "internalType": "bytes32",
          "name": "",
          "type": "bytes32"
        }
      ],
      "payable": false,
      "stateMutability": "view",
      "type": "function"
    },
    {
      "constant": false,
      "inputs": [
        {
          "internalType": "bytes32",
          "name": "_festival",
          "type": "bytes32"
        },
        {
          "internalType": "bytes32[]",
          "name": "_answers",
          "type": "bytes32[]"
        },
        {
          "internalType": "uint256",
          "name": "_nonce",
          "type": "uint256"
        },
        {
          "internalType": "uint8",
          "name": "sigV",
          "type": "uint8"
        },
        {
          "internalType": "bytes32",
          "name": "sigR",
          "type": "bytes32"
        },
        {
          "internalType": "bytes32",
          "name": "sigS",
          "type": "bytes32"
        }
      ],
      "name": "validateVotingBooth",
      "outputs": [
        {
          "internalType": "bool",
          "name": "",
          "type": "bool"
        }
      ],
      "payable": false,
      "stateMutability": "nonpayable",
      "type": "function"
    },
    {
      "constant": false,
      "inputs": [
        {
          "internalType": "address",
          "name": "_booth",
          "type": "address"
        },
        {
          "internalType": "uint256",
          "name": "_nonce",
          "type": "uint256"
        }
      ],
      "name": "burnNonce",
      "outputs": [],
      "payable": false,
      "stateMutability": "nonpayable",
      "type": "function"
    },
    {
      "constant": false,
      "inputs": [
        {
          "internalType": "bytes32",
          "name": "_festival",
          "type": "bytes32"
        },
        {
          "internalType": "address",
          "name": "_booth",
          "type": "address"
        }
      ],
      "name": "initVotingBooth",
      "outputs": [],
      "payable": false,
      "stateMutability": "nonpayable",
      "type": "function"
    },
    {
      "constant": false,
      "inputs": [
        {
          "internalType": "address",
          "name": "_booth",
          "type": "address"
        }
      ],
      "name": "deactivateVotingBooth",
      "outputs": [],
      "payable": false,
      "stateMutability": "nonpayable",
      "type": "function"
    },
    {
      "constant": true,
      "inputs": [
        {
          "internalType": "address",
          "name": "_booth",
          "type": "address"
        }
      ],
      "name": "getVotingBooth",
      "outputs": [
        {
          "internalType": "bool",
          "name": "",
          "type": "bool"
        },
        {
          "internalType": "bytes32",
          "name": "",
          "type": "bytes32"
        }
      ],
      "payable": false,
      "stateMutability": "view",
      "type": "function"
    },
    {
      "constant": true,
      "inputs": [
        {
          "internalType": "address",
          "name": "_booth",
          "type": "address"
        },
        {
          "internalType": "uint256",
          "name": "_nonce",
          "type": "uint256"
        }
      ],
      "name": "isValidVotingNonce",
      "outputs": [
        {
          "internalType": "bool",
          "name": "",
          "type": "bool"
        }
      ],
      "payable": false,
      "stateMutability": "view",
      "type": "function"
    },
    {
      "constant": false,
      "inputs": [
        {
          "internalType": "bytes32",
          "name": "_festival",
          "type": "bytes32"
        },
        {
          "internalType": "uint256",
          "name": "_startTime",
          "type": "uint256"
        },
        {
          "internalType": "uint256",
          "name": "_duration",
          "type": "uint256"
        }
      ],
      "name": "initFestival",
      "outputs": [],
      "payable": false,
      "stateMutability": "nonpayable",
      "type": "function"
    },
    {
      "constant": false,
      "inputs": [
        {
          "internalType": "bytes32",
          "name": "_festival",
          "type": "bytes32"
        }
      ],
      "name": "deactivateFestival",
      "outputs": [],
      "payable": false,
      "stateMutability": "nonpayable",
      "type": "function"
    },
    {
      "constant": true,
      "inputs": [
        {
          "internalType": "bytes32",
          "name": "_festival",
          "type": "bytes32"
        }
      ],
      "name": "getFestival",
      "outputs": [
        {
          "internalType": "bool",
          "name": "",
          "type": "bool"
        },
        {
          "internalType": "uint256",
          "name": "",
          "type": "uint256"
        },
        {
          "internalType": "uint256",
          "name": "",
          "type": "uint256"
        }
      ],
      "payable": false,
      "stateMutability": "view",
      "type": "function"
    },
    {
      "constant": false,
      "inputs": [
        {
          "internalType": "address",
          "name": "_question",
          "type": "address"
        }
      ],
      "name": "deactivateQuestion",
      "outputs": [],
      "payable": false,
      "stateMutability": "nonpayable",
      "type": "function"
    },
    {
      "constant": false,
      "inputs": [
        {
          "internalType": "uint8",
          "name": "_questionType",
          "type": "uint8"
        },
        {
          "internalType": "bytes32",
          "name": "_question",
          "type": "bytes32"
        },
        {
          "internalType": "uint256",
          "name": "_maxVoteTokens",
          "type": "uint256"
        },
        {
          "internalType": "bytes32",
          "name": "_festival",
          "type": "bytes32"
        }
      ],
      "name": "initQuestion",
      "outputs": [],
      "payable": false,
      "stateMutability": "nonpayable",
      "type": "function"
    }
  ],
  "bytecode": "0x60806040523480156200001157600080fd5b50604051620041a4380380620041a4833981810160405260208110156200003757600080fd5b81019080805160405193929190846401000000008211156200005857600080fd5b838201915060208201858111156200006f57600080fd5b82518660208202830111640100000000821117156200008d57600080fd5b8083526020830192505050908051906020019060200280838360005b83811015620000c6578082015181840152602081019050620000a9565b5050505090500160405250505080620000e581620000ed60201b60201c565b505062000478565b60006001905060008090505b8251811015620003ed5760008382815181106200011257fe5b60200260200101519050600073ffffffffffffffffffffffffffffffffffffffff168173ffffffffffffffffffffffffffffffffffffffff1614158015620001875750600173ffffffffffffffffffffffffffffffffffffffff168173ffffffffffffffffffffffffffffffffffffffff1614155b620001fa576040517f08c379a000000000000000000000000000000000000000000000000000000000815260040180806020018281038252601e8152602001807f496e76616c6964206f776e657220616464726573732070726f7669646564000081525060200191505060405180910390fd5b600073ffffffffffffffffffffffffffffffffffffffff166000808373ffffffffffffffffffffffffffffffffffffffff1673ffffffffffffffffffffffffffffffffffffffff16815260200190815260200160002060009054906101000a900473ffffffffffffffffffffffffffffffffffffffff1673ffffffffffffffffffffffffffffffffffffffff1614620002fb576040517f08c379a00000000000000000000000000000000000000000000000000000000081526004018080602001828103825260208152602001807f4475706c6963617465206f776e657220616464726573732070726f766964656481525060200191505060405180910390fd5b806000808573ffffffffffffffffffffffffffffffffffffffff1673ffffffffffffffffffffffffffffffffffffffff16815260200190815260200160002060006101000a81548173ffffffffffffffffffffffffffffffffffffffff021916908373ffffffffffffffffffffffffffffffffffffffff1602179055508092507f9465fa0c962cc76958e6373a993326400c1c94f8be2fe3a952adfa7f60b2ea2681604051808273ffffffffffffffffffffffffffffffffffffffff1673ffffffffffffffffffffffffffffffffffffffff16815260200191505060405180910390a1508080600101915050620000f9565b5060016000808373ffffffffffffffffffffffffffffffffffffffff1673ffffffffffffffffffffffffffffffffffffffff16815260200190815260200160002060006101000a81548173ffffffffffffffffffffffffffffffffffffffff021916908373ffffffffffffffffffffffffffffffffffffffff16021790555081516001819055505050565b613d1c80620004886000396000f3fe608060405234801561001057600080fd5b506004361061012c5760003560e01c8063825ea758116100ad578063c7b7530711610071578063c7b75307146107d2578063e3077d9b14610820578063e318b52b14610874578063e4288a78146108f8578063fbe5ce0a1461095e5761012c565b8063825ea7581461066f5780638dc47f3b1461069d5780638fb66365146106eb5780639bd097231461072d578063a0e67e2b146107735761012c565b80634892c56c116100f45780634892c56c146104e45780634e53d09d146105285780635557d7b41461058b5780636a064d2d146105cf5780637065cb481461062b5761012c565b80630eb7b7391461013157806324a448921461025e5780632f54bf6e14610334578063345830ce146103905780633823a473146103df575b600080fd5b61021c600480360360c081101561014757600080fd5b81019080803590602001909291908035906020019064010000000081111561016e57600080fd5b82018360208201111561018057600080fd5b803590602001918460208302840111640100000000831117156101a257600080fd5b919080806020026020016040519081016040528093929190818152602001838360200280828437600081840152601f19601f82011690508083019250505050505050919291929080359060200190929190803560ff16906020019092919080359060200190929190803590602001909291905050506109c2565b604051808273ffffffffffffffffffffffffffffffffffffffff1673ffffffffffffffffffffffffffffffffffffffff16815260200191505060405180910390f35b61031e6004803603604081101561027457600080fd5b810190808035906020019064010000000081111561029157600080fd5b8201836020820111156102a357600080fd5b803590602001918460208302840111640100000000831117156102c557600080fd5b919080806020026020016040519081016040528093929190818152602001838360200280828437600081840152601f19601f82011690508083019250505050505050919291929080359060200190929190505050610b18565b6040518082815260200191505060405180910390f35b6103766004803603602081101561034a57600080fd5b81019080803573ffffffffffffffffffffffffffffffffffffffff169060200190929190505050610b92565b604051808215151515815260200191505060405180910390f35b6103dd600480360360808110156103a657600080fd5b81019080803560ff169060200190929190803590602001909291908035906020019092919080359060200190929190505050610c63565b005b6104ca600480360360c08110156103f557600080fd5b81019080803590602001909291908035906020019064010000000081111561041c57600080fd5b82018360208201111561042e57600080fd5b8035906020019184602083028401116401000000008311171561045057600080fd5b919080806020026020016040519081016040528093929190818152602001838360200280828437600081840152601f19601f82011690508083019250505050505050919291929080359060200190929190803560ff1690602001909291908035906020019092919080359060200190929190505050610e09565b604051808215151515815260200191505060405180910390f35b610526600480360360208110156104fa57600080fd5b81019080803573ffffffffffffffffffffffffffffffffffffffff169060200190929190505050610e6f565b005b61056a6004803603602081101561053e57600080fd5b81019080803573ffffffffffffffffffffffffffffffffffffffff169060200190929190505050610f8e565b60405180831515151581526020018281526020019250505060405180910390f35b6105cd600480360360208110156105a157600080fd5b81019080803573ffffffffffffffffffffffffffffffffffffffff16906020019092919050505061102d565b005b610611600480360360208110156105e557600080fd5b81019080803573ffffffffffffffffffffffffffffffffffffffff169060200190929190505050611149565b604051808215151515815260200191505060405180910390f35b61066d6004803603602081101561064157600080fd5b81019080803573ffffffffffffffffffffffffffffffffffffffff169060200190929190505050611169565b005b61069b6004803603602081101561068557600080fd5b8101908080359060200190929190505050611575565b005b6106e9600480360360408110156106b357600080fd5b8101908080359060200190929190803573ffffffffffffffffffffffffffffffffffffffff16906020019092919050505061163c565b005b61072b6004803603606081101561070157600080fd5b810190808035906020019092919080359060200190929190803590602001909291905050506117bd565b005b6107596004803603602081101561074357600080fd5b81019080803590602001909291905050506118cc565b604051808215151515815260200191505060405180910390f35b61077b611975565b6040518080602001828103825283818151815260200191508051906020019060200280838360005b838110156107be5780820151818401526020810190506107a3565b505050509050019250505060405180910390f35b61081e600480360360408110156107e857600080fd5b81019080803573ffffffffffffffffffffffffffffffffffffffff16906020019092919080359060200190929190505050611b08565b005b61084c6004803603602081101561083657600080fd5b8101908080359060200190929190505050611bb8565b6040518084151515158152602001838152602001828152602001935050505060405180910390f35b6108f66004803603606081101561088a57600080fd5b81019080803573ffffffffffffffffffffffffffffffffffffffff169060200190929190803573ffffffffffffffffffffffffffffffffffffffff169060200190929190803573ffffffffffffffffffffffffffffffffffffffff169060200190929190505050611c1c565b005b6109446004803603604081101561090e57600080fd5b81019080803573ffffffffffffffffffffffffffffffffffffffff169060200190929190803590602001909291905050506122b5565b604051808215151515815260200191505060405180910390f35b6109c06004803603604081101561097457600080fd5b81019080803573ffffffffffffffffffffffffffffffffffffffff169060200190929190803573ffffffffffffffffffffffffffffffffffffffff169060200190929190505050612321565b005b6000806109cf8787610b18565b9050600060018287878760405160008152602001604052604051808581526020018460ff1660ff1681526020018381526020018281526020019450505050506020604051602081039080840390855afa158015610a30573d6000803e3d6000fd5b505050602060405103519050600360008273ffffffffffffffffffffffffffffffffffffffff1673ffffffffffffffffffffffffffffffffffffffff16815260200190815260200160002060000160009054906101000a900460ff16610a9b57600092505050610b0e565b88600360008373ffffffffffffffffffffffffffffffffffffffff1673ffffffffffffffffffffffffffffffffffffffff1681526020019081526020016000206001015414610aef57600092505050610b0e565b610af981886122b5565b610b0857600092505050610b0e565b80925050505b9695505050505050565b600082826040516020018080602001838152602001828103825284818151815260200191508051906020019060200280838360005b83811015610b68578082015181840152602081019050610b4d565b50505050905001935050505060405160208183030381529060405280519060200120905092915050565b6000600173ffffffffffffffffffffffffffffffffffffffff168273ffffffffffffffffffffffffffffffffffffffff1614158015610c5c5750600073ffffffffffffffffffffffffffffffffffffffff166000808473ffffffffffffffffffffffffffffffffffffffff1673ffffffffffffffffffffffffffffffffffffffff16815260200190815260200160002060009054906101000a900473ffffffffffffffffffffffffffffffffffffffff1673ffffffffffffffffffffffffffffffffffffffff1614155b9050919050565b610c6c33610b92565b610cc1576040517f08c379a0000000000000000000000000000000000000000000000000000000008152600401808060200182810382526022815260200180613c7a6022913960400191505060405180910390fd5b610cca816118cc565b610cd357600080fd5b600084848484604051610ce590612780565b808560ff1660ff168152602001848152602001838152602001828152602001945050505050604051809103906000f080158015610d26573d6000803e3d6000fd5b5090506001600460008373ffffffffffffffffffffffffffffffffffffffff1673ffffffffffffffffffffffffffffffffffffffff16815260200190815260200160002060006101000a81548160ff0219169083151502179055507f6dfe03c1898d396215b872cb8c05ec6cd10c6a08e4c9d4cf2758946645900cd782828787604051808581526020018473ffffffffffffffffffffffffffffffffffffffff1673ffffffffffffffffffffffffffffffffffffffff1681526020018360ff1660ff16815260200182815260200194505050505060405180910390a15050505050565b600080610e1a8888888888886109c2565b9050600073ffffffffffffffffffffffffffffffffffffffff168173ffffffffffffffffffffffffffffffffffffffff161415610e5657600080fd5b610e608187612710565b60019150509695505050505050565b610e7833610b92565b610ecd576040517f08c379a0000000000000000000000000000000000000000000000000000000008152600401808060200182810382526022815260200180613c7a6022913960400191505060405180910390fd5b6000600360008373ffffffffffffffffffffffffffffffffffffffff1673ffffffffffffffffffffffffffffffffffffffff16815260200190815260200160002060000160006101000a81548160ff0219169083151502179055507fafbb4aa0f013cf60d928c38db1e3425d09ca11fdcd41516eee577abcef7cd2a481604051808273ffffffffffffffffffffffffffffffffffffffff1673ffffffffffffffffffffffffffffffffffffffff16815260200191505060405180910390a150565b600080600360008473ffffffffffffffffffffffffffffffffffffffff1673ffffffffffffffffffffffffffffffffffffffff16815260200190815260200160002060000160009054906101000a900460ff16600360008573ffffffffffffffffffffffffffffffffffffffff1673ffffffffffffffffffffffffffffffffffffffff1681526020019081526020016000206001015491509150915091565b61103633610b92565b61108b576040517f08c379a0000000000000000000000000000000000000000000000000000000008152600401808060200182810382526022815260200180613c7a6022913960400191505060405180910390fd5b6000600460008373ffffffffffffffffffffffffffffffffffffffff1673ffffffffffffffffffffffffffffffffffffffff16815260200190815260200160002060006101000a81548160ff0219169083151502179055507ff1121d811828d83c069d2b6f4affb749deb9926861c494b0d7412d7ee68f3f0c81604051808273ffffffffffffffffffffffffffffffffffffffff1673ffffffffffffffffffffffffffffffffffffffff16815260200191505060405180910390a150565b60046020528060005260406000206000915054906101000a900460ff1681565b61117233610b92565b6111c7576040517f08c379a0000000000000000000000000000000000000000000000000000000008152600401808060200182810382526022815260200180613c7a6022913960400191505060405180910390fd5b600073ffffffffffffffffffffffffffffffffffffffff168173ffffffffffffffffffffffffffffffffffffffff16141580156112315750600173ffffffffffffffffffffffffffffffffffffffff168173ffffffffffffffffffffffffffffffffffffffff1614155b6112a3576040517f08c379a000000000000000000000000000000000000000000000000000000000815260040180806020018281038252601e8152602001807f496e76616c6964206f776e657220616464726573732070726f7669646564000081525060200191505060405180910390fd5b600073ffffffffffffffffffffffffffffffffffffffff166000808373ffffffffffffffffffffffffffffffffffffffff1673ffffffffffffffffffffffffffffffffffffffff16815260200190815260200160002060009054906101000a900473ffffffffffffffffffffffffffffffffffffffff1673ffffffffffffffffffffffffffffffffffffffff16146113a3576040517f08c379a000000000000000000000000000000000000000000000000000000000815260040180806020018281038252601b8152602001807f4164647265737320697320616c726561647920616e206f776e6572000000000081525060200191505060405180910390fd5b600080600173ffffffffffffffffffffffffffffffffffffffff1673ffffffffffffffffffffffffffffffffffffffff16815260200190815260200160002060009054906101000a900473ffffffffffffffffffffffffffffffffffffffff166000808373ffffffffffffffffffffffffffffffffffffffff1673ffffffffffffffffffffffffffffffffffffffff16815260200190815260200160002060006101000a81548173ffffffffffffffffffffffffffffffffffffffff021916908373ffffffffffffffffffffffffffffffffffffffff16021790555080600080600173ffffffffffffffffffffffffffffffffffffffff1673ffffffffffffffffffffffffffffffffffffffff16815260200190815260200160002060006101000a81548173ffffffffffffffffffffffffffffffffffffffff021916908373ffffffffffffffffffffffffffffffffffffffff1602179055506001600081548092919060010191905055507f9465fa0c962cc76958e6373a993326400c1c94f8be2fe3a952adfa7f60b2ea2681604051808273ffffffffffffffffffffffffffffffffffffffff1673ffffffffffffffffffffffffffffffffffffffff16815260200191505060405180910390a150565b61157e33610b92565b6115d3576040517f08c379a0000000000000000000000000000000000000000000000000000000008152600401808060200182810382526022815260200180613c7a6022913960400191505060405180910390fd5b60006002600083815260200190815260200160002060000160006101000a81548160ff0219169083151502179055507f6b7ca7d367bb287c2641eecf063be04b9c10b283dc77970ae7f9c7cedf14a02e816040518082815260200191505060405180910390a150565b61164533610b92565b61169a576040517f08c379a0000000000000000000000000000000000000000000000000000000008152600401808060200182810382526022815260200180613c7a6022913960400191505060405180910390fd5b6116a3826118cc565b6116ac57600080fd5b6001600360008373ffffffffffffffffffffffffffffffffffffffff1673ffffffffffffffffffffffffffffffffffffffff16815260200190815260200160002060000160006101000a81548160ff02191690831515021790555081600360008373ffffffffffffffffffffffffffffffffffffffff1673ffffffffffffffffffffffffffffffffffffffff168152602001908152602001600020600101819055507fb19d4fd999959d9d0075148221b684d4ebf7e97d11e7ea9af2af2026783489f78282604051808381526020018273ffffffffffffffffffffffffffffffffffffffff1673ffffffffffffffffffffffffffffffffffffffff1681526020019250505060405180910390a15050565b6117c633610b92565b61181b576040517f08c379a0000000000000000000000000000000000000000000000000000000008152600401808060200182810382526022815260200180613c7a6022913960400191505060405180910390fd5b60016002600085815260200190815260200160002060000160006101000a81548160ff0219169083151502179055508160026000858152602001908152602001600020600101819055508060026000858152602001908152602001600020600201819055507f890f4e89c76488160aacf9a41549a0e1bc74be23625284e4b75d98924189e21983838360405180848152602001838152602001828152602001935050505060405180910390a1505050565b60006002600083815260200190815260200160002060000160009054906101000a900460ff166118ff5760009050611970565b42600260008481526020019081526020016000206001015411156119265760009050611970565b60006002600084815260200190815260200160002060020154600260008581526020019081526020016000206001015401905042811161196a576000915050611970565b60019150505b919050565b6060806001546040519080825280602002602001820160405280156119a95781602001602082028038833980820191505090505b50905060008090506000806000600173ffffffffffffffffffffffffffffffffffffffff1673ffffffffffffffffffffffffffffffffffffffff16815260200190815260200160002060009054906101000a900473ffffffffffffffffffffffffffffffffffffffff1690505b600173ffffffffffffffffffffffffffffffffffffffff168173ffffffffffffffffffffffffffffffffffffffff1614611aff5780838381518110611a5757fe5b602002602001019073ffffffffffffffffffffffffffffffffffffffff16908173ffffffffffffffffffffffffffffffffffffffff16815250506000808273ffffffffffffffffffffffffffffffffffffffff1673ffffffffffffffffffffffffffffffffffffffff16815260200190815260200160002060009054906101000a900473ffffffffffffffffffffffffffffffffffffffff1690508180600101925050611a16565b82935050505090565b600460003373ffffffffffffffffffffffffffffffffffffffff1673ffffffffffffffffffffffffffffffffffffffff16815260200190815260200160002060009054906101000a900460ff16611baa576040517f08c379a0000000000000000000000000000000000000000000000000000000008152600401808060200182810382526026815260200180613c9c6026913960400191505060405180910390fd5b611bb48282612710565b5050565b60008060006002600085815260200190815260200160002060000160009054906101000a900460ff16600260008681526020019081526020016000206001015460026000878152602001908152602001600020600201549250925092509193909250565b611c2533610b92565b611c7a576040517f08c379a0000000000000000000000000000000000000000000000000000000008152600401808060200182810382526022815260200180613c7a6022913960400191505060405180910390fd5b600073ffffffffffffffffffffffffffffffffffffffff168173ffffffffffffffffffffffffffffffffffffffff1614158015611ce45750600173ffffffffffffffffffffffffffffffffffffffff168173ffffffffffffffffffffffffffffffffffffffff1614155b611d56576040517f08c379a000000000000000000000000000000000000000000000000000000000815260040180806020018281038252601e8152602001807f496e76616c6964206f776e657220616464726573732070726f7669646564000081525060200191505060405180910390fd5b600073ffffffffffffffffffffffffffffffffffffffff166000808373ffffffffffffffffffffffffffffffffffffffff1673ffffffffffffffffffffffffffffffffffffffff16815260200190815260200160002060009054906101000a900473ffffffffffffffffffffffffffffffffffffffff1673ffffffffffffffffffffffffffffffffffffffff1614611e56576040517f08c379a000000000000000000000000000000000000000000000000000000000815260040180806020018281038252601b8152602001807f4164647265737320697320616c726561647920616e206f776e6572000000000081525060200191505060405180910390fd5b600073ffffffffffffffffffffffffffffffffffffffff168273ffffffffffffffffffffffffffffffffffffffff1614158015611ec05750600173ffffffffffffffffffffffffffffffffffffffff168273ffffffffffffffffffffffffffffffffffffffff1614155b611f32576040517f08c379a000000000000000000000000000000000000000000000000000000000815260040180806020018281038252601e8152602001807f496e76616c6964206f776e657220616464726573732070726f7669646564000081525060200191505060405180910390fd5b8173ffffffffffffffffffffffffffffffffffffffff166000808573ffffffffffffffffffffffffffffffffffffffff1673ffffffffffffffffffffffffffffffffffffffff16815260200190815260200160002060009054906101000a900473ffffffffffffffffffffffffffffffffffffffff1673ffffffffffffffffffffffffffffffffffffffff1614612014576040517f08c379a0000000000000000000000000000000000000000000000000000000008152600401808060200182810382526026815260200180613cc26026913960400191505060405180910390fd5b6000808373ffffffffffffffffffffffffffffffffffffffff1673ffffffffffffffffffffffffffffffffffffffff16815260200190815260200160002060009054906101000a900473ffffffffffffffffffffffffffffffffffffffff166000808373ffffffffffffffffffffffffffffffffffffffff1673ffffffffffffffffffffffffffffffffffffffff16815260200190815260200160002060006101000a81548173ffffffffffffffffffffffffffffffffffffffff021916908373ffffffffffffffffffffffffffffffffffffffff160217905550806000808573ffffffffffffffffffffffffffffffffffffffff1673ffffffffffffffffffffffffffffffffffffffff16815260200190815260200160002060006101000a81548173ffffffffffffffffffffffffffffffffffffffff021916908373ffffffffffffffffffffffffffffffffffffffff16021790555060008060008473ffffffffffffffffffffffffffffffffffffffff1673ffffffffffffffffffffffffffffffffffffffff16815260200190815260200160002060006101000a81548173ffffffffffffffffffffffffffffffffffffffff021916908373ffffffffffffffffffffffffffffffffffffffff1602179055507ff8d49fc529812e9a7c5c50e69c20f0dccc0db8fa95c98bc58cc9a4f1c1299eaf82604051808273ffffffffffffffffffffffffffffffffffffffff1673ffffffffffffffffffffffffffffffffffffffff16815260200191505060405180910390a17f9465fa0c962cc76958e6373a993326400c1c94f8be2fe3a952adfa7f60b2ea2681604051808273ffffffffffffffffffffffffffffffffffffffff1673ffffffffffffffffffffffffffffffffffffffff16815260200191505060405180910390a1505050565b6000600360008473ffffffffffffffffffffffffffffffffffffffff1673ffffffffffffffffffffffffffffffffffffffff168152602001908152602001600020600201600083815260200190815260200160002060009054906101000a900460ff1615905092915050565b61232a33610b92565b61237f576040517f08c379a0000000000000000000000000000000000000000000000000000000008152600401808060200182810382526022815260200180613c7a6022913960400191505060405180910390fd5b600073ffffffffffffffffffffffffffffffffffffffff168173ffffffffffffffffffffffffffffffffffffffff16141580156123e95750600173ffffffffffffffffffffffffffffffffffffffff168173ffffffffffffffffffffffffffffffffffffffff1614155b61245b576040517f08c379a000000000000000000000000000000000000000000000000000000000815260040180806020018281038252601e8152602001807f496e76616c6964206f776e657220616464726573732070726f7669646564000081525060200191505060405180910390fd5b8073ffffffffffffffffffffffffffffffffffffffff166000808473ffffffffffffffffffffffffffffffffffffffff1673ffffffffffffffffffffffffffffffffffffffff16815260200190815260200160002060009054906101000a900473ffffffffffffffffffffffffffffffffffffffff1673ffffffffffffffffffffffffffffffffffffffff161461253d576040517f08c379a0000000000000000000000000000000000000000000000000000000008152600401808060200182810382526026815260200180613cc26026913960400191505060405180910390fd5b6000808273ffffffffffffffffffffffffffffffffffffffff1673ffffffffffffffffffffffffffffffffffffffff16815260200190815260200160002060009054906101000a900473ffffffffffffffffffffffffffffffffffffffff166000808473ffffffffffffffffffffffffffffffffffffffff1673ffffffffffffffffffffffffffffffffffffffff16815260200190815260200160002060006101000a81548173ffffffffffffffffffffffffffffffffffffffff021916908373ffffffffffffffffffffffffffffffffffffffff16021790555060008060008373ffffffffffffffffffffffffffffffffffffffff1673ffffffffffffffffffffffffffffffffffffffff16815260200190815260200160002060006101000a81548173ffffffffffffffffffffffffffffffffffffffff021916908373ffffffffffffffffffffffffffffffffffffffff160217905550600160008154809291906001900391905055507ff8d49fc529812e9a7c5c50e69c20f0dccc0db8fa95c98bc58cc9a4f1c1299eaf81604051808273ffffffffffffffffffffffffffffffffffffffff1673ffffffffffffffffffffffffffffffffffffffff16815260200191505060405180910390a15050565b6001600360008473ffffffffffffffffffffffffffffffffffffffff1673ffffffffffffffffffffffffffffffffffffffff168152602001908152602001600020600201600083815260200190815260200160002060006101000a81548160ff0219169083151502179055505050565b6114ec8061278e8339019056fe608060405234801561001057600080fd5b506040516114ec3803806114ec8339818101604052608081101561003357600080fd5b8101908080519060200190929190805190602001909291908051906020019092919080519060200190929190505050336000806101000a81548173ffffffffffffffffffffffffffffffffffffffff021916908373ffffffffffffffffffffffffffffffffffffffff1602179055508160038190555083600060146101000a81548160ff021916908360ff160217905550826001819055508060028190555050505050611407806100e56000396000f3fe608060405234801561001057600080fd5b50600436106100b45760003560e01c80638a4599c7116100715780638a4599c71461033b578063918feec814610396578063a6a1ef55146103ba578063ad1b2b7414610553578063e168c3ec14610571578063f851a4401461058f576100b4565b806305fce0b7146100b957806309eef43e1461024757806315474c10146102a357806336ddc96f146102d15780633fad9ae0146102ef57806346c231cb1461030d575b600080fd5b61022d600480360360808110156100cf57600080fd5b81019080803590602001906401000000008111156100ec57600080fd5b8201836020820111156100fe57600080fd5b8035906020019184602083028401116401000000008311171561012057600080fd5b919080806020026020016040519081016040528093929190818152602001838360200280828437600081840152601f19601f8201169050808301925050505050505091929192908035906020019064010000000081111561018057600080fd5b82018360208201111561019257600080fd5b803590602001918460208302840111640100000000831117156101b457600080fd5b919080806020026020016040519081016040528093929190818152602001838360200280828437600081840152601f19601f820116905080830192505050505050509192919290803573ffffffffffffffffffffffffffffffffffffffff169060200190929190803590602001909291905050506105d9565b604051808215151515815260200191505060405180910390f35b6102896004803603602081101561025d57600080fd5b81019080803573ffffffffffffffffffffffffffffffffffffffff169060200190929190505050610a21565b604051808215151515815260200191505060405180910390f35b6102cf600480360360208110156102b957600080fd5b8101908080359060200190929190505050610a41565b005b6102d9610bf5565b6040518082815260200191505060405180910390f35b6102f7610bfb565b6040518082815260200191505060405180910390f35b6103396004803603602081101561032357600080fd5b8101908080359060200190929190505050610c01565b005b6103676004803603602081101561035157600080fd5b8101908080359060200190929190505050610dd0565b604051808515151515815260200184815260200183815260200182815260200194505050505060405180910390f35b61039e610e4e565b604051808260ff1660ff16815260200191505060405180910390f35b610539600480360360e08110156103d057600080fd5b81019080803590602001906401000000008111156103ed57600080fd5b8201836020820111156103ff57600080fd5b8035906020019184602083028401116401000000008311171561042157600080fd5b919080806020026020016040519081016040528093929190818152602001838360200280828437600081840152601f19601f8201169050808301925050505050505091929192908035906020019064010000000081111561048157600080fd5b82018360208201111561049357600080fd5b803590602001918460208302840111640100000000831117156104b557600080fd5b919080806020026020016040519081016040528093929190818152602001838360200280828437600081840152601f19601f8201169050808301925050505050505091929192908035906020019092919080359060200190929190803560ff1690602001909291908035906020019092919080359060200190929190505050610e61565b604051808215151515815260200191505060405180910390f35b61055b611397565b6040518082815260200191505060405180910390f35b61057961139d565b6040518082815260200191505060405180910390f35b6105976113a3565b604051808273ffffffffffffffffffffffffffffffffffffffff1673ffffffffffffffffffffffffffffffffffffffff16815260200191505060405180910390f35b60008060009054906101000a900473ffffffffffffffffffffffffffffffffffffffff1673ffffffffffffffffffffffffffffffffffffffff16632f54bf6e336040518263ffffffff1660e01b8152600401808273ffffffffffffffffffffffffffffffffffffffff1673ffffffffffffffffffffffffffffffffffffffff16815260200191505060206040518083038186803b15801561067957600080fd5b505afa15801561068d573d6000803e3d6000fd5b505050506040513d60208110156106a357600080fd5b8101908080519060200190929190505050610726576040517f08c379a00000000000000000000000000000000000000000000000000000000081526004018080602001828103825260108152602001807f4d75737420626520616e2061646d696e0000000000000000000000000000000081525060200191505060405180910390fd5b60008090505b8551811015610a145760016005600088848151811061074757fe5b6020026020010151815260200190815260200160002060040154016005600088848151811061077257fe5b602002602001015181526020019081526020016000206004018190555084818151811061079b57fe5b6020026020010151600560008884815181106107b357fe5b602002602001015181526020019081526020016000206003015401600560008884815181106107de57fe5b6020026020010151815260200190815260200160002060030181905550600061081986838151811061080c57fe5b60200260200101516113c8565b9050806005600089858151811061082c57fe5b6020026020010151815260200190815260200160002060020154016005600089858151811061085757fe5b60200260200101518152602001908152602001600020600201819055506000809054906101000a900473ffffffffffffffffffffffffffffffffffffffff1673ffffffffffffffffffffffffffffffffffffffff1663c7b7530786866040518363ffffffff1660e01b8152600401808373ffffffffffffffffffffffffffffffffffffffff1673ffffffffffffffffffffffffffffffffffffffff16815260200182815260200192505050600060405180830381600087803b15801561091c57600080fd5b505af1158015610930573d6000803e3d6000fd5b505050507fcbaff8d50151e20d208fb50f0c0fba62e3e4df30e90c4b9ba86ac22c662f672e87838151811061096157fe5b602002602001015187848151811061097557fe5b602002602001015183600560008c888151811061098e57fe5b602002602001015181526020019081526020016000206004015489604051808681526020018581526020018481526020018381526020018273ffffffffffffffffffffffffffffffffffffffff1673ffffffffffffffffffffffffffffffffffffffff1681526020019550505050505060405180910390a150808060010191505061072c565b5060019050949350505050565b60066020528060005260406000206000915054906101000a900460ff1681565b6000809054906101000a900473ffffffffffffffffffffffffffffffffffffffff1673ffffffffffffffffffffffffffffffffffffffff16632f54bf6e336040518263ffffffff1660e01b8152600401808273ffffffffffffffffffffffffffffffffffffffff1673ffffffffffffffffffffffffffffffffffffffff16815260200191505060206040518083038186803b158015610adf57600080fd5b505afa158015610af3573d6000803e3d6000fd5b505050506040513d6020811015610b0957600080fd5b8101908080519060200190929190505050610b8c576040517f08c379a00000000000000000000000000000000000000000000000000000000081526004018080602001828103825260108152602001807f4d75737420626520616e2061646d696e0000000000000000000000000000000081525060200191505060405180910390fd5b60006005600083815260200190815260200160002060000160006101000a81548160ff0219169083151502179055507fc65978a4584654f295e4ad49b6d4162923e3c5e206f86ebbccc2e1dc180d885a816040518082815260200191505060405180910390a150565b60035481565b60015481565b6000809054906101000a900473ffffffffffffffffffffffffffffffffffffffff1673ffffffffffffffffffffffffffffffffffffffff16632f54bf6e336040518263ffffffff1660e01b8152600401808273ffffffffffffffffffffffffffffffffffffffff1673ffffffffffffffffffffffffffffffffffffffff16815260200191505060206040518083038186803b158015610c9f57600080fd5b505afa158015610cb3573d6000803e3d6000fd5b505050506040513d6020811015610cc957600080fd5b8101908080519060200190929190505050610d4c576040517f08c379a00000000000000000000000000000000000000000000000000000000081526004018080602001828103825260108152602001807f4d75737420626520616e2061646d696e0000000000000000000000000000000081525060200191505060405180910390fd5b60016005600083815260200190815260200160002060000160006101000a81548160ff0219169083151502179055508060056000838152602001908152602001600020600101819055507f3784e033ee28778700c45b7b5dc00a3b76095515425249233e3afbcb0ac09a67816040518082815260200191505060405180910390a150565b6000806000806005600086815260200190815260200160002060000160009054906101000a900460ff1660056000878152602001908152602001600020600201546005600088815260200190815260200160002060030154600560008981526020019081526020016000206004015493509350935093509193509193565b600060149054906101000a900460ff1681565b60008060009054906101000a900473ffffffffffffffffffffffffffffffffffffffff1673ffffffffffffffffffffffffffffffffffffffff16636a064d2d306040518263ffffffff1660e01b8152600401808273ffffffffffffffffffffffffffffffffffffffff1673ffffffffffffffffffffffffffffffffffffffff168152602001915050602060405180830381600087803b158015610f0357600080fd5b505af1158015610f17573d6000803e3d6000fd5b505050506040513d6020811015610f2d57600080fd5b8101908080519060200190929190505050610f4757600080fd5b600660003373ffffffffffffffffffffffffffffffffffffffff1673ffffffffffffffffffffffffffffffffffffffff16815260200190815260200160002060009054906101000a900460ff1615610f9e57600080fd5b8651885114610fac57600080fd5b8560025414610fba57600080fd5b6000809054906101000a900473ffffffffffffffffffffffffffffffffffffffff1673ffffffffffffffffffffffffffffffffffffffff16639bd09723876040518263ffffffff1660e01b815260040180828152602001915050602060405180830381600087803b15801561102e57600080fd5b505af1158015611042573d6000803e3d6000fd5b505050506040513d602081101561105857600080fd5b810190808051906020019092919050505061107257600080fd5b6000809054906101000a900473ffffffffffffffffffffffffffffffffffffffff1673ffffffffffffffffffffffffffffffffffffffff16633823a473878a888888886040518763ffffffff1660e01b815260040180878152602001806020018681526020018560ff1660ff168152602001848152602001838152602001828103825287818151815260200191508051906020019060200280838360005b8381101561112b578082015181840152602081019050611110565b50505050905001975050505050505050602060405180830381600087803b15801561115557600080fd5b505af1158015611169573d6000803e3d6000fd5b505050506040513d602081101561117f57600080fd5b810190808051906020019092919050505061119957600080fd5b6001600660003373ffffffffffffffffffffffffffffffffffffffff1673ffffffffffffffffffffffffffffffffffffffff16815260200190815260200160002060006101000a81548160ff02191690831515021790555060008090505b885181101561138757600560008a838151811061121057fe5b6020026020010151815260200190815260200160002060000160009054906101000a900460ff1661124057600080fd5b6001600560008b848151811061125257fe5b602002602001015181526020019081526020016000206004015401600560008b848151811061127d57fe5b60200260200101518152602001908152602001600020600401819055508781815181106112a657fe5b6020026020010151600560008b84815181106112be57fe5b602002602001015181526020019081526020016000206003015401600560008b84815181106112e957fe5b602002602001015181526020019081526020016000206003018190555061132288828151811061131557fe5b60200260200101516113c8565b600560008b848151811061133257fe5b602002602001015181526020019081526020016000206002015401600560008b848151811061135d57fe5b602002602001015181526020019081526020016000206002018190555080806001019150506111f7565b5060019050979650505050505050565b60025481565b60045481565b6000809054906101000a900473ffffffffffffffffffffffffffffffffffffffff1681565b600081905091905056fea265627a7a723158203a518d19b7ef29bcbd120a71199490f3912c7800282394b6cfb16cfa19b5a77764736f6c634300050c00324d6574686f642063616e206f6e6c792062652063616c6c6564206279206f776e65724d6574686f642063616e206f6e6c792062652063616c6c6564206279207175657374696f6e73496e76616c696420707265764f776e65722c206f776e657220706169722070726f7669646564a265627a7a723158207deb5ecbc9669d01f91062c2cccc94d62ccac93ba1f7ef47cac5fe15e51bfb9f64736f6c634300050c0032",
  "source": "pragma solidity ^0.5.0;\n\nimport './Admin.sol';\nimport './Question.sol';\n\ncontract Culturestake is Admin {\n  mapping (bytes32 => Festival) festivals;\n  mapping (address => VotingBooth) votingBooths;\n  mapping (address => bool) public questions;\n\n  struct VotingBooth {\n    bool active;\n    bytes32 festival;\n    mapping (uint256 => bool) nonces;\n  }\n\n  struct Festival {\n    bool active;\n    uint256 startTime;\n    uint256 duration;\n    mapping (address => bool) questions;\n  }\n\n  event InitQuestion(bytes32 festival, address questionAddress, uint8 questionType, bytes32 question);\n  event InitFestival(bytes32 festival, uint256 startTime, uint256 duration);\n  event InitVotingBooth(bytes32 festival, address boothAddress);\n\n  event DeactivateQuestion(address questionAddress);\n  event DeactivateFestival(bytes32 festival);\n  event DeactivateVotingBooth(address boothAddress);\n\n  modifier onlyQuestions() {\n      require(questions[msg.sender], \"Method can only be called by questions\");\n      _;\n  }\n\n  constructor(address[] memory _owners) public Admin(_owners) {}\n\n  function isValidFestival(bytes32 _festival) public view returns (bool) {\n    // case festival has been manually deactivated\n    if (!festivals[_festival].active) return false;\n    // case festival hasn't started\n    if (festivals[_festival].startTime > block.timestamp) return false;\n    // case festival has expired\n    uint256 festivalEnd = festivals[_festival].startTime + festivals[_festival].duration;\n    if (festivalEnd <= block.timestamp) return false;\n    return true;\n  }\n\n  function isValidVotingBooth(\n    bytes32 _festival,\n    bytes32[] memory _answers,\n    uint256 _nonce,\n    uint8 sigV,\n    bytes32 sigR,\n    bytes32 sigS\n  ) public view returns (address) {\n      bytes32 h = getHash(_answers, _nonce);\n      address addressFromSig = ecrecover(h, sigV, sigR, sigS);\n      if (!votingBooths[addressFromSig].active) return address(0);\n      if (!(votingBooths[addressFromSig].festival == _festival)) return address(0);\n      if (!isValidVotingNonce(addressFromSig, _nonce)) return address(0);\n      return addressFromSig;\n  }\n\n  function getHash(\n    bytes32[] memory _answers,\n    uint256 _nonce\n  ) public view returns (bytes32) {\n    return keccak256(abi.encode(_answers, _nonce));\n  }\n\n  function validateVotingBooth(\n    bytes32 _festival,\n    bytes32[] memory _answers,\n    uint256 _nonce,\n    uint8 sigV,\n    bytes32 sigR,\n    bytes32 sigS\n  ) public returns (bool) {\n    address addressFromSig = isValidVotingBooth(_festival, _answers, _nonce, sigV, sigR, sigS);\n    require(addressFromSig != address(0));\n    _burnNonce(addressFromSig, _nonce);\n    return true;\n  }\n\n  function _burnNonce(address _booth, uint256 _nonce) internal {\n    votingBooths[_booth].nonces[_nonce] = true;\n  }\n\n  function burnNonce(address _booth, uint256 _nonce) public onlyQuestions {\n    _burnNonce(_booth, _nonce);\n  }\n\n  function initVotingBooth(\n    bytes32 _festival,\n    address _booth\n  ) public authorized {\n      require(isValidFestival(_festival));\n      votingBooths[_booth].active = true;\n      votingBooths[_booth].festival = _festival;\n      emit InitVotingBooth(_festival, _booth);\n  }\n\n  function deactivateVotingBooth(address _booth) public authorized {\n    votingBooths[_booth].active = false;\n    emit DeactivateVotingBooth(_booth);\n  }\n\n  function getVotingBooth(address _booth) public view returns (bool, bytes32) {\n    return (votingBooths[_booth].active, votingBooths[_booth].festival);\n  }\n\n  function isValidVotingNonce(address _booth, uint256 _nonce) public view returns (bool) {\n    return (!votingBooths[_booth].nonces[_nonce]);\n  }\n\n  function initFestival(\n    bytes32 _festival,\n    uint256 _startTime,\n    uint256 _duration\n  ) public authorized {\n    festivals[_festival].active = true;\n    festivals[_festival].startTime = _startTime;\n    festivals[_festival].duration = _duration;\n    emit InitFestival(_festival, _startTime, _duration);\n  }\n\n  function deactivateFestival(bytes32 _festival) public authorized {\n    festivals[_festival].active = false;\n    emit DeactivateFestival(_festival);\n  }\n\n  function getFestival(bytes32 _festival) public view returns (bool, uint256, uint256) {\n    return (\n      festivals[_festival].active,\n      festivals[_festival].startTime,\n      festivals[_festival].duration\n    );\n  }\n\n  function deactivateQuestion(address _question) public authorized {\n    questions[_question] = false;\n    emit DeactivateQuestion(_question);\n  }\n\n  function initQuestion(\n    uint8 _questionType,\n    bytes32 _question,\n    uint256 _maxVoteTokens,\n    bytes32 _festival\n  ) public authorized {\n    require(isValidFestival(_festival));\n    Question questionContract = new Question(_questionType, _question, _maxVoteTokens, _festival);\n    questions[address(questionContract)] = true;\n    emit InitQuestion(_festival, address(questionContract), _questionType, _question);\n  }\n}",
  "sourcePath": "/media/000/Documents/culturestake/culturestake-contracts/contracts/Culturestake.sol",
  "compiler": {
    "name": "solc",
    "version": "0.5.12+commit.7709ece9.Emscripten.clang"
  },
  "schemaVersion": "3.0.20",
  "updatedAt": "2020-04-13T18:13:04.903Z",
  "devdoc": {
    "methods": {}
  },
  "userdoc": {
    "methods": {}
  }
}