{
  "contractName": "Culturestake",
  "abi": [
    {
      "inputs": [
        {
          "internalType": "address[]",
          "name": "_owners",
          "type": "address[]"
        },
        {
          "internalType": "address",
          "name": "_questionMasterCopy",
          "type": "address"
        }
      ],
      "payable": false,
      "stateMutability": "nonpayable",
      "type": "constructor"
    },
    {
      "anonymous": false,
      "inputs": [
        {
          "indexed": false,
          "internalType": "address",
          "name": "owner",
          "type": "address"
        }
      ],
      "name": "AddedOwner",
      "type": "event"
    },
    {
      "anonymous": false,
      "inputs": [
        {
          "indexed": true,
          "internalType": "bytes32",
          "name": "festival",
          "type": "bytes32"
        }
      ],
      "name": "DeactivateFestival",
      "type": "event"
    },
    {
      "anonymous": false,
      "inputs": [
        {
          "indexed": true,
          "internalType": "bytes32",
          "name": "question",
          "type": "bytes32"
        }
      ],
      "name": "DeactivateQuestion",
      "type": "event"
    },
    {
      "anonymous": false,
      "inputs": [
        {
          "indexed": true,
          "internalType": "address",
          "name": "boothAddress",
          "type": "address"
        }
      ],
      "name": "DeactivateVotingBooth",
      "type": "event"
    },
    {
      "anonymous": false,
      "inputs": [
        {
          "indexed": true,
          "internalType": "bytes32",
          "name": "festival",
          "type": "bytes32"
        },
        {
          "indexed": false,
          "internalType": "uint256",
          "name": "startTime",
          "type": "uint256"
        },
        {
          "indexed": false,
          "internalType": "uint256",
          "name": "endTime",
          "type": "uint256"
        }
      ],
      "name": "InitFestival",
      "type": "event"
    },
    {
      "anonymous": false,
      "inputs": [
        {
          "indexed": true,
          "internalType": "bytes32",
          "name": "question",
          "type": "bytes32"
        },
        {
          "indexed": true,
          "internalType": "bytes32",
          "name": "festival",
          "type": "bytes32"
        },
        {
          "indexed": true,
          "internalType": "address",
          "name": "questionAddress",
          "type": "address"
        }
      ],
      "name": "InitQuestion",
      "type": "event"
    },
    {
      "anonymous": false,
      "inputs": [
        {
          "indexed": true,
          "internalType": "bytes32",
          "name": "festival",
          "type": "bytes32"
        },
        {
          "indexed": true,
          "internalType": "address",
          "name": "boothAddress",
          "type": "address"
        }
      ],
      "name": "InitVotingBooth",
      "type": "event"
    },
    {
      "anonymous": false,
      "inputs": [
        {
          "indexed": false,
          "internalType": "contract Proxy",
          "name": "proxy",
          "type": "address"
        }
      ],
      "name": "ProxyCreation",
      "type": "event"
    },
    {
      "anonymous": false,
      "inputs": [
        {
          "indexed": false,
          "internalType": "address",
          "name": "owner",
          "type": "address"
        }
      ],
      "name": "RemovedOwner",
      "type": "event"
    },
    {
      "constant": false,
      "inputs": [
        {
          "internalType": "address",
          "name": "owner",
          "type": "address"
        }
      ],
      "name": "addOwner",
      "outputs": [],
      "payable": false,
      "stateMutability": "nonpayable",
      "type": "function"
    },
    {
      "constant": true,
      "inputs": [],
      "name": "getOwners",
      "outputs": [
        {
          "internalType": "address[]",
          "name": "",
          "type": "address[]"
        }
      ],
      "payable": false,
      "stateMutability": "view",
      "type": "function"
    },
    {
      "constant": true,
      "inputs": [
        {
          "internalType": "address",
          "name": "owner",
          "type": "address"
        }
      ],
      "name": "isOwner",
      "outputs": [
        {
          "internalType": "bool",
          "name": "",
          "type": "bool"
        }
      ],
      "payable": false,
      "stateMutability": "view",
      "type": "function"
    },
    {
      "constant": true,
      "inputs": [],
      "name": "questionMasterCopy",
      "outputs": [
        {
          "internalType": "address",
          "name": "",
          "type": "address"
        }
      ],
      "payable": false,
      "stateMutability": "view",
      "type": "function"
    },
    {
      "constant": true,
      "inputs": [
        {
          "internalType": "address",
          "name": "",
          "type": "address"
        }
      ],
      "name": "questionsByAddress",
      "outputs": [
        {
          "internalType": "bool",
          "name": "",
          "type": "bool"
        }
      ],
      "payable": false,
      "stateMutability": "view",
      "type": "function"
    },
    {
      "constant": false,
      "inputs": [
        {
          "internalType": "address",
          "name": "prevOwner",
          "type": "address"
        },
        {
          "internalType": "address",
          "name": "owner",
          "type": "address"
        }
      ],
      "name": "removeOwner",
      "outputs": [],
      "payable": false,
      "stateMutability": "nonpayable",
      "type": "function"
    },
    {
      "constant": false,
      "inputs": [
        {
          "internalType": "address",
          "name": "prevOwner",
          "type": "address"
        },
        {
          "internalType": "address",
          "name": "oldOwner",
          "type": "address"
        },
        {
          "internalType": "address",
          "name": "newOwner",
          "type": "address"
        }
      ],
      "name": "swapOwner",
      "outputs": [],
      "payable": false,
      "stateMutability": "nonpayable",
      "type": "function"
    },
    {
      "constant": false,
      "inputs": [
        {
          "internalType": "address",
          "name": "_newQuestionMasterCopy",
          "type": "address"
        }
      ],
      "name": "setQuestionMasterCopy",
      "outputs": [],
      "payable": false,
      "stateMutability": "nonpayable",
      "type": "function"
    },
    {
      "constant": true,
      "inputs": [
        {
          "internalType": "bytes32",
          "name": "_festival",
          "type": "bytes32"
        }
      ],
      "name": "isActiveFestival",
      "outputs": [
        {
          "internalType": "bool",
          "name": "",
          "type": "bool"
        }
      ],
      "payable": false,
      "stateMutability": "view",
      "type": "function"
    },
    {
      "constant": true,
      "inputs": [
        {
          "internalType": "bytes32",
          "name": "_festival",
          "type": "bytes32"
        },
        {
          "internalType": "bytes32[]",
          "name": "_answers",
          "type": "bytes32[]"
        },
        {
          "internalType": "uint256",
          "name": "_nonce",
          "type": "uint256"
        },
        {
          "internalType": "uint8",
          "name": "sigV",
          "type": "uint8"
        },
        {
          "internalType": "bytes32",
          "name": "sigR",
          "type": "bytes32"
        },
        {
          "internalType": "bytes32",
          "name": "sigS",
          "type": "bytes32"
        }
      ],
      "name": "checkBoothSignature",
      "outputs": [
        {
          "internalType": "address",
          "name": "",
          "type": "address"
        }
      ],
      "payable": false,
      "stateMutability": "view",
      "type": "function"
    },
    {
      "constant": true,
      "inputs": [
        {
          "internalType": "bytes32[]",
          "name": "_answers",
          "type": "bytes32[]"
        },
        {
          "internalType": "uint256",
          "name": "_nonce",
          "type": "uint256"
        }
      ],
      "name": "getHash",
      "outputs": [
        {
          "internalType": "bytes32",
          "name": "",
          "type": "bytes32"
        }
      ],
      "payable": false,
      "stateMutability": "view",
      "type": "function"
    },
    {
      "constant": false,
      "inputs": [
        {
          "internalType": "bytes32",
          "name": "_festival",
          "type": "bytes32"
        },
        {
          "internalType": "bytes32[]",
          "name": "_answers",
          "type": "bytes32[]"
        },
        {
          "internalType": "uint256",
          "name": "_nonce",
          "type": "uint256"
        },
        {
          "internalType": "uint8",
          "name": "sigV",
          "type": "uint8"
        },
        {
          "internalType": "bytes32",
          "name": "sigR",
          "type": "bytes32"
        },
        {
          "internalType": "bytes32",
          "name": "sigS",
          "type": "bytes32"
        }
      ],
      "name": "checkBoothSignatureAndBurnNonce",
      "outputs": [
        {
          "internalType": "bool",
          "name": "",
          "type": "bool"
        }
      ],
      "payable": false,
      "stateMutability": "nonpayable",
      "type": "function"
    },
    {
      "constant": false,
      "inputs": [
        {
          "internalType": "address",
          "name": "_booth",
          "type": "address"
        },
        {
          "internalType": "uint256",
          "name": "_nonce",
          "type": "uint256"
        }
      ],
      "name": "burnNonce",
      "outputs": [],
      "payable": false,
      "stateMutability": "nonpayable",
      "type": "function"
    },
    {
      "constant": false,
      "inputs": [
        {
          "internalType": "bytes32",
          "name": "_festival",
          "type": "bytes32"
        },
        {
          "internalType": "address",
          "name": "_booth",
          "type": "address"
        }
      ],
      "name": "initVotingBooth",
      "outputs": [],
      "payable": false,
      "stateMutability": "nonpayable",
      "type": "function"
    },
    {
      "constant": false,
      "inputs": [
        {
          "internalType": "address",
          "name": "_booth",
          "type": "address"
        }
      ],
      "name": "deactivateVotingBooth",
      "outputs": [],
      "payable": false,
      "stateMutability": "nonpayable",
      "type": "function"
    },
    {
      "constant": true,
      "inputs": [
        {
          "internalType": "address",
          "name": "_booth",
          "type": "address"
        }
      ],
      "name": "getVotingBooth",
      "outputs": [
        {
          "internalType": "bool",
          "name": "",
          "type": "bool"
        },
        {
          "internalType": "bool",
          "name": "",
          "type": "bool"
        },
        {
          "internalType": "bytes32",
          "name": "",
          "type": "bytes32"
        }
      ],
      "payable": false,
      "stateMutability": "view",
      "type": "function"
    },
    {
      "constant": true,
      "inputs": [
        {
          "internalType": "address",
          "name": "_booth",
          "type": "address"
        },
        {
          "internalType": "uint256",
          "name": "_nonce",
          "type": "uint256"
        }
      ],
      "name": "isValidVotingNonce",
      "outputs": [
        {
          "internalType": "bool",
          "name": "",
          "type": "bool"
        }
      ],
      "payable": false,
      "stateMutability": "view",
      "type": "function"
    },
    {
      "constant": false,
      "inputs": [
        {
          "internalType": "bytes32",
          "name": "_festival",
          "type": "bytes32"
        },
        {
          "internalType": "uint256",
          "name": "_startTime",
          "type": "uint256"
        },
        {
          "internalType": "uint256",
          "name": "_endTime",
          "type": "uint256"
        }
      ],
      "name": "initFestival",
      "outputs": [],
      "payable": false,
      "stateMutability": "nonpayable",
      "type": "function"
    },
    {
      "constant": false,
      "inputs": [
        {
          "internalType": "bytes32",
          "name": "_festival",
          "type": "bytes32"
        }
      ],
      "name": "deactivateFestival",
      "outputs": [],
      "payable": false,
      "stateMutability": "nonpayable",
      "type": "function"
    },
    {
      "constant": true,
      "inputs": [
        {
          "internalType": "bytes32",
          "name": "_festival",
          "type": "bytes32"
        }
      ],
      "name": "getFestival",
      "outputs": [
        {
          "internalType": "bool",
          "name": "",
          "type": "bool"
        },
        {
          "internalType": "bool",
          "name": "",
          "type": "bool"
        },
        {
          "internalType": "uint256",
          "name": "",
          "type": "uint256"
        },
        {
          "internalType": "uint256",
          "name": "",
          "type": "uint256"
        }
      ],
      "payable": false,
      "stateMutability": "view",
      "type": "function"
    },
    {
      "constant": false,
      "inputs": [
        {
          "internalType": "bytes32",
          "name": "_question",
          "type": "bytes32"
        }
      ],
      "name": "deactivateQuestion",
      "outputs": [],
      "payable": false,
      "stateMutability": "nonpayable",
      "type": "function"
    },
    {
      "constant": false,
      "inputs": [
        {
          "internalType": "bytes32",
          "name": "_question",
          "type": "bytes32"
        },
        {
          "internalType": "uint256",
          "name": "_maxVoteTokens",
          "type": "uint256"
        },
        {
          "internalType": "bytes32",
          "name": "_festival",
          "type": "bytes32"
        }
      ],
      "name": "initQuestion",
      "outputs": [],
      "payable": false,
      "stateMutability": "nonpayable",
      "type": "function"
    },
    {
      "constant": true,
      "inputs": [
        {
          "internalType": "bytes32",
          "name": "_question",
          "type": "bytes32"
        }
      ],
      "name": "getQuestion",
      "outputs": [
        {
          "internalType": "bool",
          "name": "",
          "type": "bool"
        },
        {
          "internalType": "bool",
          "name": "",
          "type": "bool"
        },
        {
          "internalType": "address",
          "name": "",
          "type": "address"
        },
        {
          "internalType": "bytes32",
          "name": "",
          "type": "bytes32"
        },
        {
          "internalType": "uint256",
          "name": "",
          "type": "uint256"
        }
      ],
      "payable": false,
      "stateMutability": "view",
      "type": "function"
    }
  ],
  "bytecode": "0x60806040523480156200001157600080fd5b506040516200354e3803806200354e833981810160405260408110156200003757600080fd5b81019080805160405193929190846401000000008211156200005857600080fd5b838201915060208201858111156200006f57600080fd5b82518660208202830111640100000000821117156200008d57600080fd5b8083526020830192505050908051906020019060200280838360005b83811015620000c6578082015181840152602081019050620000a9565b505050509050016040526020018051906020019092919050505081620000f2816200013c60201b60201c565b5080600660006101000a81548173ffffffffffffffffffffffffffffffffffffffff021916908373ffffffffffffffffffffffffffffffffffffffff1602179055505050620004c7565b60006001905060008090505b82518110156200043c5760008382815181106200016157fe5b60200260200101519050600073ffffffffffffffffffffffffffffffffffffffff168173ffffffffffffffffffffffffffffffffffffffff1614158015620001d65750600173ffffffffffffffffffffffffffffffffffffffff168173ffffffffffffffffffffffffffffffffffffffff1614155b62000249576040517f08c379a000000000000000000000000000000000000000000000000000000000815260040180806020018281038252601e8152602001807f496e76616c6964206f776e657220616464726573732070726f7669646564000081525060200191505060405180910390fd5b600073ffffffffffffffffffffffffffffffffffffffff166000808373ffffffffffffffffffffffffffffffffffffffff1673ffffffffffffffffffffffffffffffffffffffff16815260200190815260200160002060009054906101000a900473ffffffffffffffffffffffffffffffffffffffff1673ffffffffffffffffffffffffffffffffffffffff16146200034a576040517f08c379a00000000000000000000000000000000000000000000000000000000081526004018080602001828103825260208152602001807f4475706c6963617465206f776e657220616464726573732070726f766964656481525060200191505060405180910390fd5b806000808573ffffffffffffffffffffffffffffffffffffffff1673ffffffffffffffffffffffffffffffffffffffff16815260200190815260200160002060006101000a81548173ffffffffffffffffffffffffffffffffffffffff021916908373ffffffffffffffffffffffffffffffffffffffff1602179055508092507f9465fa0c962cc76958e6373a993326400c1c94f8be2fe3a952adfa7f60b2ea2681604051808273ffffffffffffffffffffffffffffffffffffffff1673ffffffffffffffffffffffffffffffffffffffff16815260200191505060405180910390a150808060010191505062000148565b5060016000808373ffffffffffffffffffffffffffffffffffffffff1673ffffffffffffffffffffffffffffffffffffffff16815260200190815260200160002060006101000a81548173ffffffffffffffffffffffffffffffffffffffff021916908373ffffffffffffffffffffffffffffffffffffffff16021790555081516001819055505050565b61307780620004d76000396000f3fe608060405234801561001057600080fd5b506004361061014d5760003560e01c80637b50b1af116100c3578063c7b753071161007c578063c7b75307146108b7578063d004038214610905578063e3077d9b14610949578063e318b52b146109a8578063e4288a7814610a2c578063fbe5ce0a14610a925761014d565b80637b50b1af14610639578063825ea758146106955780638dc47f3b146106c35780638fb6636514610711578063a0e67e2b14610753578063b3789b1a146107b25761014d565b80634e53d09d116101155780634e53d09d1461043f5780635223c790146104ad57806358c039cd146104f35780636418741d146105855780637065cb48146105b3578063798da56b146105f75761014d565b80631d17390a1461015257806324a448921461019c5780632f54bf6e14610272578063307eb662146102ce5780634892c56c146103fb575b600080fd5b61015a610af6565b604051808273ffffffffffffffffffffffffffffffffffffffff1673ffffffffffffffffffffffffffffffffffffffff16815260200191505060405180910390f35b61025c600480360360408110156101b257600080fd5b81019080803590602001906401000000008111156101cf57600080fd5b8201836020820111156101e157600080fd5b8035906020019184602083028401116401000000008311171561020357600080fd5b919080806020026020016040519081016040528093929190818152602001838360200280828437600081840152601f19601f82011690508083019250505050505050919291929080359060200190929190505050610b1c565b6040518082815260200191505060405180910390f35b6102b46004803603602081101561028857600080fd5b81019080803573ffffffffffffffffffffffffffffffffffffffff169060200190929190505050610b96565b604051808215151515815260200191505060405180910390f35b6103b9600480360360c08110156102e457600080fd5b81019080803590602001909291908035906020019064010000000081111561030b57600080fd5b82018360208201111561031d57600080fd5b8035906020019184602083028401116401000000008311171561033f57600080fd5b919080806020026020016040519081016040528093929190818152602001838360200280828437600081840152601f19601f82011690508083019250505050505050919291929080359060200190929190803560ff1690602001909291908035906020019092919080359060200190929190505050610c67565b604051808273ffffffffffffffffffffffffffffffffffffffff1673ffffffffffffffffffffffffffffffffffffffff16815260200191505060405180910390f35b61043d6004803603602081101561041157600080fd5b81019080803573ffffffffffffffffffffffffffffffffffffffff169060200190929190505050610e1d565b005b6104816004803603602081101561045557600080fd5b81019080803573ffffffffffffffffffffffffffffffffffffffff169060200190929190505050610f1c565b604051808415151515815260200183151515158152602001828152602001935050505060405180910390f35b6104d9600480360360208110156104c357600080fd5b8101908080359060200190929190505050611011565b604051808215151515815260200191505060405180910390f35b61051f6004803603602081101561050957600080fd5b81019080803590602001909291905050506110ce565b6040518086151515158152602001851515151581526020018473ffffffffffffffffffffffffffffffffffffffff1673ffffffffffffffffffffffffffffffffffffffff1681526020018381526020018281526020019550505050505060405180910390f35b6105b16004803603602081101561059b57600080fd5b8101908080359060200190929190505050611196565b005b6105f5600480360360208110156105c957600080fd5b81019080803573ffffffffffffffffffffffffffffffffffffffff1690602001909291905050506112e1565b005b6106376004803603606081101561060d57600080fd5b810190808035906020019092919080359060200190929190803590602001909291905050506116ed565b005b61067b6004803603602081101561064f57600080fd5b81019080803573ffffffffffffffffffffffffffffffffffffffff1690602001909291905050506119b0565b604051808215151515815260200191505060405180910390f35b6106c1600480360360208110156106ab57600080fd5b81019080803590602001909291905050506119d0565b005b61070f600480360360408110156106d957600080fd5b8101908080359060200190929190803573ffffffffffffffffffffffffffffffffffffffff169060200190929190505050611a8d565b005b6107516004803603606081101561072757600080fd5b81019080803590602001909291908035906020019092919080359060200190929190505050611c5c565b005b61075b611d92565b6040518080602001828103825283818151815260200191508051906020019060200280838360005b8381101561079e578082015181840152602081019050610783565b505050509050019250505060405180910390f35b61089d600480360360c08110156107c857600080fd5b8101908080359060200190929190803590602001906401000000008111156107ef57600080fd5b82018360208201111561080157600080fd5b8035906020019184602083028401116401000000008311171561082357600080fd5b919080806020026020016040519081016040528093929190818152602001838360200280828437600081840152601f19601f82011690508083019250505050505050919291929080359060200190929190803560ff1690602001909291908035906020019092919080359060200190929190505050611f25565b604051808215151515815260200191505060405180910390f35b610903600480360360408110156108cd57600080fd5b81019080803573ffffffffffffffffffffffffffffffffffffffff16906020019092919080359060200190929190505050611f8b565b005b6109476004803603602081101561091b57600080fd5b81019080803573ffffffffffffffffffffffffffffffffffffffff16906020019092919050505061203b565b005b6109756004803603602081101561095f57600080fd5b81019080803590602001909291905050506120dd565b60405180851515151581526020018415151515815260200183815260200182815260200194505050505060405180910390f35b610a2a600480360360608110156109be57600080fd5b81019080803573ffffffffffffffffffffffffffffffffffffffff169060200190929190803573ffffffffffffffffffffffffffffffffffffffff169060200190929190803573ffffffffffffffffffffffffffffffffffffffff169060200190929190505050612168565b005b610a7860048036036040811015610a4257600080fd5b81019080803573ffffffffffffffffffffffffffffffffffffffff16906020019092919080359060200190929190505050612801565b604051808215151515815260200191505060405180910390f35b610af460048036036040811015610aa857600080fd5b81019080803573ffffffffffffffffffffffffffffffffffffffff169060200190929190803573ffffffffffffffffffffffffffffffffffffffff16906020019092919050505061286d565b005b600660009054906101000a900473ffffffffffffffffffffffffffffffffffffffff1681565b600082826040516020018080602001838152602001828103825284818151815260200191508051906020019060200280838360005b83811015610b6c578082015181840152602081019050610b51565b50505050905001935050505060405160208183030381529060405280519060200120905092915050565b6000600173ffffffffffffffffffffffffffffffffffffffff168273ffffffffffffffffffffffffffffffffffffffff1614158015610c605750600073ffffffffffffffffffffffffffffffffffffffff166000808473ffffffffffffffffffffffffffffffffffffffff1673ffffffffffffffffffffffffffffffffffffffff16815260200190815260200160002060009054906101000a900473ffffffffffffffffffffffffffffffffffffffff1673ffffffffffffffffffffffffffffffffffffffff1614155b9050919050565b600080610c748787610b1c565b9050600060018287878760405160008152602001604052604051808581526020018460ff1660ff1681526020018381526020018281526020019450505050506020604051602081039080840390855afa158015610cd5573d6000803e3d6000fd5b505050602060405103519050600460008273ffffffffffffffffffffffffffffffffffffffff1673ffffffffffffffffffffffffffffffffffffffff16815260200190815260200160002060000160009054906101000a900460ff16610d4057600092505050610e13565b600460008273ffffffffffffffffffffffffffffffffffffffff1673ffffffffffffffffffffffffffffffffffffffff16815260200190815260200160002060000160019054906101000a900460ff1615610da057600092505050610e13565b88600460008373ffffffffffffffffffffffffffffffffffffffff1673ffffffffffffffffffffffffffffffffffffffff1681526020019081526020016000206001015414610df457600092505050610e13565b610dfe8188612801565b610e0d57600092505050610e13565b80925050505b9695505050505050565b610e2633610b96565b610e7b576040517f08c379a0000000000000000000000000000000000000000000000000000000008152600401808060200182810382526022815260200180612fd56022913960400191505060405180910390fd5b6001600460008373ffffffffffffffffffffffffffffffffffffffff1673ffffffffffffffffffffffffffffffffffffffff16815260200190815260200160002060000160016101000a81548160ff0219169083151502179055508073ffffffffffffffffffffffffffffffffffffffff167fafbb4aa0f013cf60d928c38db1e3425d09ca11fdcd41516eee577abcef7cd2a460405160405180910390a250565b6000806000600460008573ffffffffffffffffffffffffffffffffffffffff1673ffffffffffffffffffffffffffffffffffffffff16815260200190815260200160002060000160009054906101000a900460ff16600460008673ffffffffffffffffffffffffffffffffffffffff1673ffffffffffffffffffffffffffffffffffffffff16815260200190815260200160002060000160019054906101000a900460ff16600460008773ffffffffffffffffffffffffffffffffffffffff1673ffffffffffffffffffffffffffffffffffffffff168152602001908152602001600020600101549250925092509193909250565b60006002600083815260200190815260200160002060000160009054906101000a900460ff1661104457600090506110c9565b6002600083815260200190815260200160002060000160019054906101000a900460ff161561107657600090506110c9565b426002600084815260200190815260200160002060010154111561109d57600090506110c9565b42600260008481526020019081526020016000206002015410156110c457600090506110c9565b600190505b919050565b60008060008060006003600087815260200190815260200160002060000160009054906101000a900460ff166003600088815260200190815260200160002060000160019054906101000a900460ff166003600089815260200190815260200160002060000160029054906101000a900473ffffffffffffffffffffffffffffffffffffffff16600360008a815260200190815260200160002060010154600360008b8152602001908152602001600020600201549450945094509450945091939590929450565b61119f33610b96565b6111f4576040517f08c379a0000000000000000000000000000000000000000000000000000000008152600401808060200182810382526022815260200180612fd56022913960400191505060405180910390fd5b60016003600083815260200190815260200160002060000160016101000a81548160ff0219169083151502179055506000600560006003600085815260200190815260200160002060000160029054906101000a900473ffffffffffffffffffffffffffffffffffffffff1673ffffffffffffffffffffffffffffffffffffffff1673ffffffffffffffffffffffffffffffffffffffff16815260200190815260200160002060006101000a81548160ff021916908315150217905550807fa7609dc65daa4aef2b5398974fc443f78f8f44703963fccde2f3e508b57994ed60405160405180910390a250565b6112ea33610b96565b61133f576040517f08c379a0000000000000000000000000000000000000000000000000000000008152600401808060200182810382526022815260200180612fd56022913960400191505060405180910390fd5b600073ffffffffffffffffffffffffffffffffffffffff168173ffffffffffffffffffffffffffffffffffffffff16141580156113a95750600173ffffffffffffffffffffffffffffffffffffffff168173ffffffffffffffffffffffffffffffffffffffff1614155b61141b576040517f08c379a000000000000000000000000000000000000000000000000000000000815260040180806020018281038252601e8152602001807f496e76616c6964206f776e657220616464726573732070726f7669646564000081525060200191505060405180910390fd5b600073ffffffffffffffffffffffffffffffffffffffff166000808373ffffffffffffffffffffffffffffffffffffffff1673ffffffffffffffffffffffffffffffffffffffff16815260200190815260200160002060009054906101000a900473ffffffffffffffffffffffffffffffffffffffff1673ffffffffffffffffffffffffffffffffffffffff161461151b576040517f08c379a000000000000000000000000000000000000000000000000000000000815260040180806020018281038252601b8152602001807f4164647265737320697320616c726561647920616e206f776e6572000000000081525060200191505060405180910390fd5b600080600173ffffffffffffffffffffffffffffffffffffffff1673ffffffffffffffffffffffffffffffffffffffff16815260200190815260200160002060009054906101000a900473ffffffffffffffffffffffffffffffffffffffff166000808373ffffffffffffffffffffffffffffffffffffffff1673ffffffffffffffffffffffffffffffffffffffff16815260200190815260200160002060006101000a81548173ffffffffffffffffffffffffffffffffffffffff021916908373ffffffffffffffffffffffffffffffffffffffff16021790555080600080600173ffffffffffffffffffffffffffffffffffffffff1673ffffffffffffffffffffffffffffffffffffffff16815260200190815260200160002060006101000a81548173ffffffffffffffffffffffffffffffffffffffff021916908373ffffffffffffffffffffffffffffffffffffffff1602179055506001600081548092919060010191905055507f9465fa0c962cc76958e6373a993326400c1c94f8be2fe3a952adfa7f60b2ea2681604051808273ffffffffffffffffffffffffffffffffffffffff1673ffffffffffffffffffffffffffffffffffffffff16815260200191505060405180910390a150565b6116f633610b96565b61174b576040517f08c379a0000000000000000000000000000000000000000000000000000000008152600401808060200182810382526022815260200180612fd56022913960400191505060405180910390fd5b6002600082815260200190815260200160002060000160009054906101000a900460ff1661177857600080fd5b6003600084815260200190815260200160002060000160009054906101000a900460ff16156117a657600080fd5b606063568acc9030858585604051602401808573ffffffffffffffffffffffffffffffffffffffff1673ffffffffffffffffffffffffffffffffffffffff1681526020018481526020018381526020018281526020019450505050506040516020818303038152906040529060e01b6020820180517bffffffffffffffffffffffffffffffffffffffffffffffffffffffff83818316178352505050509050600061185082612c5c565b90506001600560008373ffffffffffffffffffffffffffffffffffffffff1673ffffffffffffffffffffffffffffffffffffffff16815260200190815260200160002060006101000a81548160ff02191690831515021790555060016003600087815260200190815260200160002060000160006101000a81548160ff021916908315150217905550826003600087815260200190815260200160002060010181905550806003600087815260200190815260200160002060000160026101000a81548173ffffffffffffffffffffffffffffffffffffffff021916908373ffffffffffffffffffffffffffffffffffffffff1602179055508360036000878152602001908152602001600020600201819055508073ffffffffffffffffffffffffffffffffffffffff1683867fb370cad5e23aaf054a0abd15ae3794b1a99ecf72dd0642cb0db1474a679eafcb60405160405180910390a45050505050565b60056020528060005260406000206000915054906101000a900460ff1681565b6119d933610b96565b611a2e576040517f08c379a0000000000000000000000000000000000000000000000000000000008152600401808060200182810382526022815260200180612fd56022913960400191505060405180910390fd5b60016002600083815260200190815260200160002060000160016101000a81548160ff021916908315150217905550807f6b7ca7d367bb287c2641eecf063be04b9c10b283dc77970ae7f9c7cedf14a02e60405160405180910390a250565b611a9633610b96565b611aeb576040517f08c379a0000000000000000000000000000000000000000000000000000000008152600401808060200182810382526022815260200180612fd56022913960400191505060405180910390fd5b6002600083815260200190815260200160002060000160009054906101000a900460ff16611b1857600080fd5b600460008273ffffffffffffffffffffffffffffffffffffffff1673ffffffffffffffffffffffffffffffffffffffff16815260200190815260200160002060000160009054906101000a900460ff1615611b7257600080fd5b6001600460008373ffffffffffffffffffffffffffffffffffffffff1673ffffffffffffffffffffffffffffffffffffffff16815260200190815260200160002060000160006101000a81548160ff02191690831515021790555081600460008373ffffffffffffffffffffffffffffffffffffffff1673ffffffffffffffffffffffffffffffffffffffff168152602001908152602001600020600101819055508073ffffffffffffffffffffffffffffffffffffffff16827fb19d4fd999959d9d0075148221b684d4ebf7e97d11e7ea9af2af2026783489f760405160405180910390a35050565b611c6533610b96565b611cba576040517f08c379a0000000000000000000000000000000000000000000000000000000008152600401808060200182810382526022815260200180612fd56022913960400191505060405180910390fd5b6002600084815260200190815260200160002060000160009054906101000a900460ff1615611ce857600080fd5b60016002600085815260200190815260200160002060000160006101000a81548160ff021916908315150217905550816002600085815260200190815260200160002060010181905550806002600085815260200190815260200160002060020181905550827f890f4e89c76488160aacf9a41549a0e1bc74be23625284e4b75d98924189e2198383604051808381526020018281526020019250505060405180910390a2505050565b606080600154604051908082528060200260200182016040528015611dc65781602001602082028038833980820191505090505b50905060008090506000806000600173ffffffffffffffffffffffffffffffffffffffff1673ffffffffffffffffffffffffffffffffffffffff16815260200190815260200160002060009054906101000a900473ffffffffffffffffffffffffffffffffffffffff1690505b600173ffffffffffffffffffffffffffffffffffffffff168173ffffffffffffffffffffffffffffffffffffffff1614611f1c5780838381518110611e7457fe5b602002602001019073ffffffffffffffffffffffffffffffffffffffff16908173ffffffffffffffffffffffffffffffffffffffff16815250506000808273ffffffffffffffffffffffffffffffffffffffff1673ffffffffffffffffffffffffffffffffffffffff16815260200190815260200160002060009054906101000a900473ffffffffffffffffffffffffffffffffffffffff1690508180600101925050611e33565b82935050505090565b600080611f36888888888888610c67565b9050600073ffffffffffffffffffffffffffffffffffffffff168173ffffffffffffffffffffffffffffffffffffffff161415611f7257600080fd5b611f7c8187612d70565b60019150509695505050505050565b600560003373ffffffffffffffffffffffffffffffffffffffff1673ffffffffffffffffffffffffffffffffffffffff16815260200190815260200160002060009054906101000a900460ff1661202d576040517f08c379a0000000000000000000000000000000000000000000000000000000008152600401808060200182810382526026815260200180612ff76026913960400191505060405180910390fd5b6120378282612d70565b5050565b61204433610b96565b612099576040517f08c379a0000000000000000000000000000000000000000000000000000000008152600401808060200182810382526022815260200180612fd56022913960400191505060405180910390fd5b80600660006101000a81548173ffffffffffffffffffffffffffffffffffffffff021916908373ffffffffffffffffffffffffffffffffffffffff16021790555050565b6000806000806002600086815260200190815260200160002060000160009054906101000a900460ff166002600087815260200190815260200160002060000160019054906101000a900460ff166002600088815260200190815260200160002060010154600260008981526020019081526020016000206002015493509350935093509193509193565b61217133610b96565b6121c6576040517f08c379a0000000000000000000000000000000000000000000000000000000008152600401808060200182810382526022815260200180612fd56022913960400191505060405180910390fd5b600073ffffffffffffffffffffffffffffffffffffffff168173ffffffffffffffffffffffffffffffffffffffff16141580156122305750600173ffffffffffffffffffffffffffffffffffffffff168173ffffffffffffffffffffffffffffffffffffffff1614155b6122a2576040517f08c379a000000000000000000000000000000000000000000000000000000000815260040180806020018281038252601e8152602001807f496e76616c6964206f776e657220616464726573732070726f7669646564000081525060200191505060405180910390fd5b600073ffffffffffffffffffffffffffffffffffffffff166000808373ffffffffffffffffffffffffffffffffffffffff1673ffffffffffffffffffffffffffffffffffffffff16815260200190815260200160002060009054906101000a900473ffffffffffffffffffffffffffffffffffffffff1673ffffffffffffffffffffffffffffffffffffffff16146123a2576040517f08c379a000000000000000000000000000000000000000000000000000000000815260040180806020018281038252601b8152602001807f4164647265737320697320616c726561647920616e206f776e6572000000000081525060200191505060405180910390fd5b600073ffffffffffffffffffffffffffffffffffffffff168273ffffffffffffffffffffffffffffffffffffffff161415801561240c5750600173ffffffffffffffffffffffffffffffffffffffff168273ffffffffffffffffffffffffffffffffffffffff1614155b61247e576040517f08c379a000000000000000000000000000000000000000000000000000000000815260040180806020018281038252601e8152602001807f496e76616c6964206f776e657220616464726573732070726f7669646564000081525060200191505060405180910390fd5b8173ffffffffffffffffffffffffffffffffffffffff166000808573ffffffffffffffffffffffffffffffffffffffff1673ffffffffffffffffffffffffffffffffffffffff16815260200190815260200160002060009054906101000a900473ffffffffffffffffffffffffffffffffffffffff1673ffffffffffffffffffffffffffffffffffffffff1614612560576040517f08c379a000000000000000000000000000000000000000000000000000000000815260040180806020018281038252602681526020018061301d6026913960400191505060405180910390fd5b6000808373ffffffffffffffffffffffffffffffffffffffff1673ffffffffffffffffffffffffffffffffffffffff16815260200190815260200160002060009054906101000a900473ffffffffffffffffffffffffffffffffffffffff166000808373ffffffffffffffffffffffffffffffffffffffff1673ffffffffffffffffffffffffffffffffffffffff16815260200190815260200160002060006101000a81548173ffffffffffffffffffffffffffffffffffffffff021916908373ffffffffffffffffffffffffffffffffffffffff160217905550806000808573ffffffffffffffffffffffffffffffffffffffff1673ffffffffffffffffffffffffffffffffffffffff16815260200190815260200160002060006101000a81548173ffffffffffffffffffffffffffffffffffffffff021916908373ffffffffffffffffffffffffffffffffffffffff16021790555060008060008473ffffffffffffffffffffffffffffffffffffffff1673ffffffffffffffffffffffffffffffffffffffff16815260200190815260200160002060006101000a81548173ffffffffffffffffffffffffffffffffffffffff021916908373ffffffffffffffffffffffffffffffffffffffff1602179055507ff8d49fc529812e9a7c5c50e69c20f0dccc0db8fa95c98bc58cc9a4f1c1299eaf82604051808273ffffffffffffffffffffffffffffffffffffffff1673ffffffffffffffffffffffffffffffffffffffff16815260200191505060405180910390a17f9465fa0c962cc76958e6373a993326400c1c94f8be2fe3a952adfa7f60b2ea2681604051808273ffffffffffffffffffffffffffffffffffffffff1673ffffffffffffffffffffffffffffffffffffffff16815260200191505060405180910390a1505050565b6000600460008473ffffffffffffffffffffffffffffffffffffffff1673ffffffffffffffffffffffffffffffffffffffff168152602001908152602001600020600201600083815260200190815260200160002060009054906101000a900460ff1615905092915050565b61287633610b96565b6128cb576040517f08c379a0000000000000000000000000000000000000000000000000000000008152600401808060200182810382526022815260200180612fd56022913960400191505060405180910390fd5b600073ffffffffffffffffffffffffffffffffffffffff168173ffffffffffffffffffffffffffffffffffffffff16141580156129355750600173ffffffffffffffffffffffffffffffffffffffff168173ffffffffffffffffffffffffffffffffffffffff1614155b6129a7576040517f08c379a000000000000000000000000000000000000000000000000000000000815260040180806020018281038252601e8152602001807f496e76616c6964206f776e657220616464726573732070726f7669646564000081525060200191505060405180910390fd5b8073ffffffffffffffffffffffffffffffffffffffff166000808473ffffffffffffffffffffffffffffffffffffffff1673ffffffffffffffffffffffffffffffffffffffff16815260200190815260200160002060009054906101000a900473ffffffffffffffffffffffffffffffffffffffff1673ffffffffffffffffffffffffffffffffffffffff1614612a89576040517f08c379a000000000000000000000000000000000000000000000000000000000815260040180806020018281038252602681526020018061301d6026913960400191505060405180910390fd5b6000808273ffffffffffffffffffffffffffffffffffffffff1673ffffffffffffffffffffffffffffffffffffffff16815260200190815260200160002060009054906101000a900473ffffffffffffffffffffffffffffffffffffffff166000808473ffffffffffffffffffffffffffffffffffffffff1673ffffffffffffffffffffffffffffffffffffffff16815260200190815260200160002060006101000a81548173ffffffffffffffffffffffffffffffffffffffff021916908373ffffffffffffffffffffffffffffffffffffffff16021790555060008060008373ffffffffffffffffffffffffffffffffffffffff1673ffffffffffffffffffffffffffffffffffffffff16815260200190815260200160002060006101000a81548173ffffffffffffffffffffffffffffffffffffffff021916908373ffffffffffffffffffffffffffffffffffffffff160217905550600160008154809291906001900391905055507ff8d49fc529812e9a7c5c50e69c20f0dccc0db8fa95c98bc58cc9a4f1c1299eaf81604051808273ffffffffffffffffffffffffffffffffffffffff1673ffffffffffffffffffffffffffffffffffffffff16815260200191505060405180910390a15050565b6000600660009054906101000a900473ffffffffffffffffffffffffffffffffffffffff16604051612c8d90612de0565b808273ffffffffffffffffffffffffffffffffffffffff1673ffffffffffffffffffffffffffffffffffffffff168152602001915050604051809103906000f080158015612cdf573d6000803e3d6000fd5b509050600082511115612d085760008060008451602086016000865af11415612d0757600080fd5b5b7fa38789425dbeee0239e16ff2d2567e31720127fbc6430758c1a4efc6aef29f8081604051808273ffffffffffffffffffffffffffffffffffffffff1673ffffffffffffffffffffffffffffffffffffffff16815260200191505060405180910390a1919050565b6001600460008473ffffffffffffffffffffffffffffffffffffffff1673ffffffffffffffffffffffffffffffffffffffff168152602001908152602001600020600201600083815260200190815260200160002060006101000a81548160ff0219169083151502179055505050565b6101e780612dee8339019056fe608060405234801561001057600080fd5b506040516101e73803806101e78339818101604052602081101561003357600080fd5b8101908080519060200190929190505050600073ffffffffffffffffffffffffffffffffffffffff168173ffffffffffffffffffffffffffffffffffffffff1614156100ca576040517f08c379a00000000000000000000000000000000000000000000000000000000081526004018080602001828103825260248152602001806101c36024913960400191505060405180910390fd5b806000806101000a81548173ffffffffffffffffffffffffffffffffffffffff021916908373ffffffffffffffffffffffffffffffffffffffff1602179055505060aa806101196000396000f3fe608060405273ffffffffffffffffffffffffffffffffffffffff600054167fa619486e0000000000000000000000000000000000000000000000000000000060003514156050578060005260206000f35b3660008037600080366000845af43d6000803e60008114156070573d6000fd5b3d6000f3fea265627a7a723158203039c0d4caf2e00bba0ad3894272bc150fb47d3f123984428a2dbfbf4b1f8df764736f6c634300050c0032496e76616c6964206d617374657220636f707920616464726573732070726f76696465644d6574686f642063616e206f6e6c792062652063616c6c6564206279206f776e65724d6574686f642063616e206f6e6c792062652063616c6c6564206279207175657374696f6e73496e76616c696420707265764f776e65722c206f776e657220706169722070726f7669646564a265627a7a72315820a5bb929afc3b7eb5d88a2c5d40a0f0da4bb2a79faf431ecb73beb6a0d807e33864736f6c634300050c0032",
  "source": "pragma solidity ^0.5.0;\n\nimport \"openzeppelin-solidity/contracts/math/SafeMath.sol\";\n\nimport './Admin.sol';\nimport './Question.sol';\nimport \"./Proxy.sol\";\n\ncontract Culturestake is Admin {\n  using SafeMath for uint256;\n\n  mapping (bytes32 => Festival) festivals;\n  mapping (bytes32 => QuestionStruct) questions;\n  mapping (address => VotingBooth) votingBooths;\n  mapping (address => bool) public questionsByAddress;\n  address public questionMasterCopy;\n\n  struct VotingBooth {\n    bool inited;\n    bool deactivated;\n    bytes32 festival;\n    mapping (uint256 => bool) nonces;\n  }\n\n  struct Festival {\n    bool inited;\n    bool deactivated;\n    uint256 startTime;\n    uint256 endTime;\n  }\n\n  struct QuestionStruct {\n    bool inited;\n    bool deactivated;\n    address contractAddress;\n    bytes32 festival;\n    uint256 maxVoteTokens;\n  }\n\n  event InitQuestion(bytes32 indexed question, bytes32 indexed festival, address indexed questionAddress);\n  event InitFestival(bytes32 indexed festival, uint256 startTime, uint256 endTime);\n  event InitVotingBooth(bytes32 indexed festival, address indexed boothAddress);\n\n  event DeactivateQuestion(bytes32 indexed question);\n  event DeactivateFestival(bytes32 indexed festival);\n  event DeactivateVotingBooth(address indexed boothAddress);\n\n  event ProxyCreation(Proxy proxy);\n\n  modifier onlyQuestions() {\n      require(questionsByAddress[msg.sender], \"Method can only be called by questions\");\n      _;\n  }\n\n  constructor(address[] memory _owners, address _questionMasterCopy) public Admin(_owners) {\n    questionMasterCopy = _questionMasterCopy;\n  }\n\n  function setQuestionMasterCopy(address _newQuestionMasterCopy) public authorized {\n    questionMasterCopy = _newQuestionMasterCopy;\n  }\n\n  function isActiveFestival(bytes32 _festival) public view returns (bool) {\n    // case festival has not been inited\n    if (!festivals[_festival].inited) return false;\n    // case festival has been manually deactivated\n    if (festivals[_festival].deactivated) return false;\n    // case festival hasn't started\n    if (festivals[_festival].startTime > block.timestamp) return false;\n    // case festival has ended\n    if (festivals[_festival].endTime < block.timestamp) return false;\n    return true;\n  }\n\n  function checkBoothSignature(\n    bytes32 _festival,\n    bytes32[] memory _answers,\n    uint256 _nonce,\n    uint8 sigV,\n    bytes32 sigR,\n    bytes32 sigS\n  ) public view returns (address) {\n      bytes32 h = getHash(_answers, _nonce);\n      address addressFromSig = ecrecover(h, sigV, sigR, sigS);\n      // case is not a booth\n      if (!votingBooths[addressFromSig].inited) return address(0);\n      // case was manually deactivated\n      if (votingBooths[addressFromSig].deactivated) return address(0);\n      // case is from the wrong festival\n      if (!(votingBooths[addressFromSig].festival == _festival)) return address(0);\n      // case nonce has been used\n      if (!isValidVotingNonce(addressFromSig, _nonce)) return address(0);\n      return addressFromSig;\n  }\n\n  function getHash(\n    bytes32[] memory _answers,\n    uint256 _nonce\n  ) public view returns (bytes32) {\n    return keccak256(abi.encode(_answers, _nonce));\n  }\n\n  function checkBoothSignatureAndBurnNonce(\n    bytes32 _festival,\n    bytes32[] memory _answers,\n    uint256 _nonce,\n    uint8 sigV,\n    bytes32 sigR,\n    bytes32 sigS\n  ) public returns (bool) {\n    address addressFromSig = checkBoothSignature(_festival, _answers, _nonce, sigV, sigR, sigS);\n    require(addressFromSig != address(0));\n    _burnNonce(addressFromSig, _nonce);\n    return true;\n  }\n\n  function _burnNonce(address _booth, uint256 _nonce) internal {\n    votingBooths[_booth].nonces[_nonce] = true;\n  }\n\n  function burnNonce(address _booth, uint256 _nonce) public onlyQuestions {\n    _burnNonce(_booth, _nonce);\n  }\n\n  function initVotingBooth(\n    bytes32 _festival,\n    address _booth\n  ) public authorized {\n      require(festivals[_festival].inited);\n      require(!votingBooths[_booth].inited);\n      votingBooths[_booth].inited = true;\n      votingBooths[_booth].festival = _festival;\n      emit InitVotingBooth(_festival, _booth);\n  }\n\n  function deactivateVotingBooth(address _booth) public authorized {\n    votingBooths[_booth].deactivated = true;\n    emit DeactivateVotingBooth(_booth);\n  }\n\n  function getVotingBooth(address _booth) public view returns (bool, bool, bytes32) {\n    return (votingBooths[_booth].inited, votingBooths[_booth].deactivated, votingBooths[_booth].festival);\n  }\n\n  function isValidVotingNonce(address _booth, uint256 _nonce) public view returns (bool) {\n    return (!votingBooths[_booth].nonces[_nonce]);\n  }\n\n  function initFestival(\n    bytes32 _festival,\n    uint256 _startTime,\n    uint256 _endTime\n  ) public authorized {\n    require(!festivals[_festival].inited);\n    festivals[_festival].inited = true;\n    festivals[_festival].startTime = _startTime;\n    festivals[_festival].endTime = _endTime;\n    emit InitFestival(_festival, _startTime, _endTime);\n  }\n\n  function deactivateFestival(bytes32 _festival) public authorized {\n    festivals[_festival].deactivated = true;\n    emit DeactivateFestival(_festival);\n  }\n\n  function getFestival(bytes32 _festival) public view returns (bool, bool, uint256, uint256) {\n    return (\n      festivals[_festival].inited,\n      festivals[_festival].deactivated,\n      festivals[_festival].startTime,\n      festivals[_festival].endTime\n    );\n  }\n\n  function deactivateQuestion(bytes32 _question) public authorized {\n    questions[_question].deactivated = true;\n    questionsByAddress[questions[_question].contractAddress] = false;\n    emit DeactivateQuestion(_question);\n  }\n\n  // function initQuestion(\n  //   bytes32 _question,\n  //   uint256 _maxVoteTokens,\n  //   bytes32 _festival\n  // ) public authorized {\n  //   require(festivals[_festival].inited);\n  //   require(!questions[_question].inited);\n\n  //   Question questionContract = new Question(_question, _maxVoteTokens, _festival);\n  //   questionsByAddress[address(questionContract)] = true;\n\n  //   questions[_question].inited = true;\n  //   questions[_question].festival = _festival;\n  //   questions[_question].contractAddress = address(questionContract);\n  //   questions[_question].maxVoteTokens = _maxVoteTokens;\n\n  //   emit InitQuestion(_question, _festival, address(questionContract));\n  // }\n\n  function initQuestion(\n    bytes32 _question,\n    uint256 _maxVoteTokens,\n    bytes32 _festival\n  ) public authorized {\n    require(festivals[_festival].inited);\n    require(!questions[_question].inited);\n\n    bytes memory data = abi.encodeWithSelector(\n      0x568acc90, address(this), _question, _maxVoteTokens, _festival\n    );\n\n    Proxy questionContract = createProxy(data);\n    questionsByAddress[address(questionContract)] = true;\n\n    questions[_question].inited = true;\n    questions[_question].festival = _festival;\n    questions[_question].contractAddress = address(questionContract);\n    questions[_question].maxVoteTokens = _maxVoteTokens;\n\n    emit InitQuestion(_question, _festival, address(questionContract));\n  }\n\n  /// @dev Allows to create new proxy contact and execute a message call to the new proxy within one transaction.\n  /// @param data Payload for message call sent to new proxy contract.\n  function createProxy(bytes memory data)\n      internal\n      returns (Proxy proxy)\n  {\n      proxy = new Proxy(questionMasterCopy);\n      if (data.length > 0)\n          // solium-disable-next-line security/no-inline-assembly\n          assembly {\n              if eq(call(gas, proxy, 0, add(data, 0x20), mload(data), 0, 0), 0) { revert(0, 0) }\n          }\n      emit ProxyCreation(proxy);\n  }\n\n  function getQuestion(bytes32 _question) public view returns (bool, bool, address, bytes32, uint256) {\n    return (\n      questions[_question].inited,\n      questions[_question].deactivated,\n      questions[_question].contractAddress,\n      questions[_question].festival,\n      questions[_question].maxVoteTokens\n    );\n  }\n}",
  "sourcePath": "/media/000/Documents/culturestake/culturestake-contracts/contracts/Culturestake.sol",
  "compiler": {
    "name": "solc",
    "version": "0.5.12+commit.7709ece9.Emscripten.clang"
  },
  "schemaVersion": "3.0.20",
  "updatedAt": "2020-08-06T12:30:49.694Z",
  "networkType": "ethereum",
  "devdoc": {
    "methods": {}
  },
  "userdoc": {
    "methods": {}
  }
}