{
  "contractName": "Culturestake",
  "abi": [
    {
      "inputs": [
        {
          "internalType": "address[]",
          "name": "_owners",
          "type": "address[]"
        }
      ],
      "payable": false,
      "stateMutability": "nonpayable",
      "type": "constructor"
    },
    {
      "anonymous": false,
      "inputs": [
        {
          "indexed": false,
          "internalType": "address",
          "name": "owner",
          "type": "address"
        }
      ],
      "name": "AddedOwner",
      "type": "event"
    },
    {
      "anonymous": false,
      "inputs": [
        {
          "indexed": true,
          "internalType": "bytes32",
          "name": "festival",
          "type": "bytes32"
        }
      ],
      "name": "DeactivateFestival",
      "type": "event"
    },
    {
      "anonymous": false,
      "inputs": [
        {
          "indexed": true,
          "internalType": "bytes32",
          "name": "question",
          "type": "bytes32"
        }
      ],
      "name": "DeactivateQuestion",
      "type": "event"
    },
    {
      "anonymous": false,
      "inputs": [
        {
          "indexed": true,
          "internalType": "address",
          "name": "boothAddress",
          "type": "address"
        }
      ],
      "name": "DeactivateVotingBooth",
      "type": "event"
    },
    {
      "anonymous": false,
      "inputs": [
        {
          "indexed": true,
          "internalType": "bytes32",
          "name": "festival",
          "type": "bytes32"
        },
        {
          "indexed": false,
          "internalType": "uint256",
          "name": "startTime",
          "type": "uint256"
        },
        {
          "indexed": false,
          "internalType": "uint256",
          "name": "endTime",
          "type": "uint256"
        }
      ],
      "name": "InitFestival",
      "type": "event"
    },
    {
      "anonymous": false,
      "inputs": [
        {
          "indexed": true,
          "internalType": "bytes32",
          "name": "question",
          "type": "bytes32"
        },
        {
          "indexed": true,
          "internalType": "bytes32",
          "name": "festival",
          "type": "bytes32"
        },
        {
          "indexed": true,
          "internalType": "address",
          "name": "questionAddress",
          "type": "address"
        }
      ],
      "name": "InitQuestion",
      "type": "event"
    },
    {
      "anonymous": false,
      "inputs": [
        {
          "indexed": true,
          "internalType": "bytes32",
          "name": "festival",
          "type": "bytes32"
        },
        {
          "indexed": true,
          "internalType": "address",
          "name": "boothAddress",
          "type": "address"
        }
      ],
      "name": "InitVotingBooth",
      "type": "event"
    },
    {
      "anonymous": false,
      "inputs": [
        {
          "indexed": false,
          "internalType": "address",
          "name": "owner",
          "type": "address"
        }
      ],
      "name": "RemovedOwner",
      "type": "event"
    },
    {
      "constant": false,
      "inputs": [
        {
          "internalType": "address",
          "name": "owner",
          "type": "address"
        }
      ],
      "name": "addOwner",
      "outputs": [],
      "payable": false,
      "stateMutability": "nonpayable",
      "type": "function"
    },
    {
      "constant": true,
      "inputs": [],
      "name": "getOwners",
      "outputs": [
        {
          "internalType": "address[]",
          "name": "",
          "type": "address[]"
        }
      ],
      "payable": false,
      "stateMutability": "view",
      "type": "function"
    },
    {
      "constant": true,
      "inputs": [
        {
          "internalType": "address",
          "name": "owner",
          "type": "address"
        }
      ],
      "name": "isOwner",
      "outputs": [
        {
          "internalType": "bool",
          "name": "",
          "type": "bool"
        }
      ],
      "payable": false,
      "stateMutability": "view",
      "type": "function"
    },
    {
      "constant": true,
      "inputs": [
        {
          "internalType": "address",
          "name": "",
          "type": "address"
        }
      ],
      "name": "questionsByAddress",
      "outputs": [
        {
          "internalType": "bool",
          "name": "",
          "type": "bool"
        }
      ],
      "payable": false,
      "stateMutability": "view",
      "type": "function"
    },
    {
      "constant": false,
      "inputs": [
        {
          "internalType": "address",
          "name": "prevOwner",
          "type": "address"
        },
        {
          "internalType": "address",
          "name": "owner",
          "type": "address"
        }
      ],
      "name": "removeOwner",
      "outputs": [],
      "payable": false,
      "stateMutability": "nonpayable",
      "type": "function"
    },
    {
      "constant": false,
      "inputs": [
        {
          "internalType": "address",
          "name": "prevOwner",
          "type": "address"
        },
        {
          "internalType": "address",
          "name": "oldOwner",
          "type": "address"
        },
        {
          "internalType": "address",
          "name": "newOwner",
          "type": "address"
        }
      ],
      "name": "swapOwner",
      "outputs": [],
      "payable": false,
      "stateMutability": "nonpayable",
      "type": "function"
    },
    {
      "constant": true,
      "inputs": [
        {
          "internalType": "bytes32",
          "name": "_festival",
          "type": "bytes32"
        }
      ],
      "name": "isActiveFestival",
      "outputs": [
        {
          "internalType": "bool",
          "name": "",
          "type": "bool"
        }
      ],
      "payable": false,
      "stateMutability": "view",
      "type": "function"
    },
    {
      "constant": true,
      "inputs": [
        {
          "internalType": "bytes32",
          "name": "_festival",
          "type": "bytes32"
        },
        {
          "internalType": "bytes32[]",
          "name": "_answers",
          "type": "bytes32[]"
        },
        {
          "internalType": "uint256",
          "name": "_nonce",
          "type": "uint256"
        },
        {
          "internalType": "uint8",
          "name": "sigV",
          "type": "uint8"
        },
        {
          "internalType": "bytes32",
          "name": "sigR",
          "type": "bytes32"
        },
        {
          "internalType": "bytes32",
          "name": "sigS",
          "type": "bytes32"
        }
      ],
      "name": "checkBoothSignature",
      "outputs": [
        {
          "internalType": "address",
          "name": "",
          "type": "address"
        }
      ],
      "payable": false,
      "stateMutability": "view",
      "type": "function"
    },
    {
      "constant": true,
      "inputs": [
        {
          "internalType": "bytes32[]",
          "name": "_answers",
          "type": "bytes32[]"
        },
        {
          "internalType": "uint256",
          "name": "_nonce",
          "type": "uint256"
        }
      ],
      "name": "getHash",
      "outputs": [
        {
          "internalType": "bytes32",
          "name": "",
          "type": "bytes32"
        }
      ],
      "payable": false,
      "stateMutability": "view",
      "type": "function"
    },
    {
      "constant": false,
      "inputs": [
        {
          "internalType": "bytes32",
          "name": "_festival",
          "type": "bytes32"
        },
        {
          "internalType": "bytes32[]",
          "name": "_answers",
          "type": "bytes32[]"
        },
        {
          "internalType": "uint256",
          "name": "_nonce",
          "type": "uint256"
        },
        {
          "internalType": "uint8",
          "name": "sigV",
          "type": "uint8"
        },
        {
          "internalType": "bytes32",
          "name": "sigR",
          "type": "bytes32"
        },
        {
          "internalType": "bytes32",
          "name": "sigS",
          "type": "bytes32"
        }
      ],
      "name": "checkBoothSignatureAndBurnNonce",
      "outputs": [
        {
          "internalType": "bool",
          "name": "",
          "type": "bool"
        }
      ],
      "payable": false,
      "stateMutability": "nonpayable",
      "type": "function"
    },
    {
      "constant": false,
      "inputs": [
        {
          "internalType": "address",
          "name": "_booth",
          "type": "address"
        },
        {
          "internalType": "uint256",
          "name": "_nonce",
          "type": "uint256"
        }
      ],
      "name": "burnNonce",
      "outputs": [],
      "payable": false,
      "stateMutability": "nonpayable",
      "type": "function"
    },
    {
      "constant": false,
      "inputs": [
        {
          "internalType": "bytes32",
          "name": "_festival",
          "type": "bytes32"
        },
        {
          "internalType": "address",
          "name": "_booth",
          "type": "address"
        }
      ],
      "name": "initVotingBooth",
      "outputs": [],
      "payable": false,
      "stateMutability": "nonpayable",
      "type": "function"
    },
    {
      "constant": false,
      "inputs": [
        {
          "internalType": "address",
          "name": "_booth",
          "type": "address"
        }
      ],
      "name": "deactivateVotingBooth",
      "outputs": [],
      "payable": false,
      "stateMutability": "nonpayable",
      "type": "function"
    },
    {
      "constant": true,
      "inputs": [
        {
          "internalType": "address",
          "name": "_booth",
          "type": "address"
        }
      ],
      "name": "getVotingBooth",
      "outputs": [
        {
          "internalType": "bool",
          "name": "",
          "type": "bool"
        },
        {
          "internalType": "bool",
          "name": "",
          "type": "bool"
        },
        {
          "internalType": "bytes32",
          "name": "",
          "type": "bytes32"
        }
      ],
      "payable": false,
      "stateMutability": "view",
      "type": "function"
    },
    {
      "constant": true,
      "inputs": [
        {
          "internalType": "address",
          "name": "_booth",
          "type": "address"
        },
        {
          "internalType": "uint256",
          "name": "_nonce",
          "type": "uint256"
        }
      ],
      "name": "isValidVotingNonce",
      "outputs": [
        {
          "internalType": "bool",
          "name": "",
          "type": "bool"
        }
      ],
      "payable": false,
      "stateMutability": "view",
      "type": "function"
    },
    {
      "constant": false,
      "inputs": [
        {
          "internalType": "bytes32",
          "name": "_festival",
          "type": "bytes32"
        },
        {
          "internalType": "uint256",
          "name": "_startTime",
          "type": "uint256"
        },
        {
          "internalType": "uint256",
          "name": "_endTime",
          "type": "uint256"
        }
      ],
      "name": "initFestival",
      "outputs": [],
      "payable": false,
      "stateMutability": "nonpayable",
      "type": "function"
    },
    {
      "constant": false,
      "inputs": [
        {
          "internalType": "bytes32",
          "name": "_festival",
          "type": "bytes32"
        }
      ],
      "name": "deactivateFestival",
      "outputs": [],
      "payable": false,
      "stateMutability": "nonpayable",
      "type": "function"
    },
    {
      "constant": true,
      "inputs": [
        {
          "internalType": "bytes32",
          "name": "_festival",
          "type": "bytes32"
        }
      ],
      "name": "getFestival",
      "outputs": [
        {
          "internalType": "bool",
          "name": "",
          "type": "bool"
        },
        {
          "internalType": "bool",
          "name": "",
          "type": "bool"
        },
        {
          "internalType": "uint256",
          "name": "",
          "type": "uint256"
        },
        {
          "internalType": "uint256",
          "name": "",
          "type": "uint256"
        }
      ],
      "payable": false,
      "stateMutability": "view",
      "type": "function"
    },
    {
      "constant": false,
      "inputs": [
        {
          "internalType": "bytes32",
          "name": "_question",
          "type": "bytes32"
        }
      ],
      "name": "deactivateQuestion",
      "outputs": [],
      "payable": false,
      "stateMutability": "nonpayable",
      "type": "function"
    },
    {
      "constant": false,
      "inputs": [
        {
          "internalType": "bytes32",
          "name": "_question",
          "type": "bytes32"
        },
        {
          "internalType": "uint256",
          "name": "_maxVoteTokens",
          "type": "uint256"
        },
        {
          "internalType": "bytes32",
          "name": "_festival",
          "type": "bytes32"
        }
      ],
      "name": "initQuestion",
      "outputs": [],
      "payable": false,
      "stateMutability": "nonpayable",
      "type": "function"
    },
    {
      "constant": true,
      "inputs": [
        {
          "internalType": "bytes32",
          "name": "_question",
          "type": "bytes32"
        }
      ],
      "name": "getQuestion",
      "outputs": [
        {
          "internalType": "bool",
          "name": "",
          "type": "bool"
        },
        {
          "internalType": "bool",
          "name": "",
          "type": "bool"
        },
        {
          "internalType": "address",
          "name": "",
          "type": "address"
        },
        {
          "internalType": "bytes32",
          "name": "",
          "type": "bytes32"
        },
        {
          "internalType": "uint256",
          "name": "",
          "type": "uint256"
        }
      ],
      "payable": false,
      "stateMutability": "view",
      "type": "function"
    }
  ],
  "bytecode": "0x60806040523480156200001157600080fd5b506040516200454338038062004543833981810160405260208110156200003757600080fd5b81019080805160405193929190846401000000008211156200005857600080fd5b838201915060208201858111156200006f57600080fd5b82518660208202830111640100000000821117156200008d57600080fd5b8083526020830192505050908051906020019060200280838360005b83811015620000c6578082015181840152602081019050620000a9565b5050505090500160405250505080620000e581620000ed60201b60201c565b505062000478565b60006001905060008090505b8251811015620003ed5760008382815181106200011257fe5b60200260200101519050600073ffffffffffffffffffffffffffffffffffffffff168173ffffffffffffffffffffffffffffffffffffffff1614158015620001875750600173ffffffffffffffffffffffffffffffffffffffff168173ffffffffffffffffffffffffffffffffffffffff1614155b620001fa576040517f08c379a000000000000000000000000000000000000000000000000000000000815260040180806020018281038252601e8152602001807f496e76616c6964206f776e657220616464726573732070726f7669646564000081525060200191505060405180910390fd5b600073ffffffffffffffffffffffffffffffffffffffff166000808373ffffffffffffffffffffffffffffffffffffffff1673ffffffffffffffffffffffffffffffffffffffff16815260200190815260200160002060009054906101000a900473ffffffffffffffffffffffffffffffffffffffff1673ffffffffffffffffffffffffffffffffffffffff1614620002fb576040517f08c379a00000000000000000000000000000000000000000000000000000000081526004018080602001828103825260208152602001807f4475706c6963617465206f776e657220616464726573732070726f766964656481525060200191505060405180910390fd5b806000808573ffffffffffffffffffffffffffffffffffffffff1673ffffffffffffffffffffffffffffffffffffffff16815260200190815260200160002060006101000a81548173ffffffffffffffffffffffffffffffffffffffff021916908373ffffffffffffffffffffffffffffffffffffffff1602179055508092507f9465fa0c962cc76958e6373a993326400c1c94f8be2fe3a952adfa7f60b2ea2681604051808273ffffffffffffffffffffffffffffffffffffffff1673ffffffffffffffffffffffffffffffffffffffff16815260200191505060405180910390a1508080600101915050620000f9565b5060016000808373ffffffffffffffffffffffffffffffffffffffff1673ffffffffffffffffffffffffffffffffffffffff16815260200190815260200160002060006101000a81548173ffffffffffffffffffffffffffffffffffffffff021916908373ffffffffffffffffffffffffffffffffffffffff16021790555081516001819055505050565b6140bb80620004886000396000f3fe608060405234801561001057600080fd5b50600436106101375760003560e01c80637b50b1af116100b8578063b3789b1a1161007c578063b3789b1a14610752578063c7b7530714610857578063e3077d9b146108a5578063e318b52b14610904578063e4288a7814610988578063fbe5ce0a146109ee57610137565b80637b50b1af146105d9578063825ea758146106355780638dc47f3b146106635780638fb66365146106b1578063a0e67e2b146106f357610137565b80635223c790116100ff5780635223c7901461044d57806358c039cd146104935780636418741d146105255780637065cb4814610553578063798da56b1461059757610137565b806324a448921461013c5780632f54bf6e14610212578063307eb6621461026e5780634892c56c1461039b5780634e53d09d146103df575b600080fd5b6101fc6004803603604081101561015257600080fd5b810190808035906020019064010000000081111561016f57600080fd5b82018360208201111561018157600080fd5b803590602001918460208302840111640100000000831117156101a357600080fd5b919080806020026020016040519081016040528093929190818152602001838360200280828437600081840152601f19601f82011690508083019250505050505050919291929080359060200190929190505050610a52565b6040518082815260200191505060405180910390f35b6102546004803603602081101561022857600080fd5b81019080803573ffffffffffffffffffffffffffffffffffffffff169060200190929190505050610acc565b604051808215151515815260200191505060405180910390f35b610359600480360360c081101561028457600080fd5b8101908080359060200190929190803590602001906401000000008111156102ab57600080fd5b8201836020820111156102bd57600080fd5b803590602001918460208302840111640100000000831117156102df57600080fd5b919080806020026020016040519081016040528093929190818152602001838360200280828437600081840152601f19601f82011690508083019250505050505050919291929080359060200190929190803560ff1690602001909291908035906020019092919080359060200190929190505050610b9d565b604051808273ffffffffffffffffffffffffffffffffffffffff1673ffffffffffffffffffffffffffffffffffffffff16815260200191505060405180910390f35b6103dd600480360360208110156103b157600080fd5b81019080803573ffffffffffffffffffffffffffffffffffffffff169060200190929190505050610d53565b005b610421600480360360208110156103f557600080fd5b81019080803573ffffffffffffffffffffffffffffffffffffffff169060200190929190505050610e52565b604051808415151515815260200183151515158152602001828152602001935050505060405180910390f35b6104796004803603602081101561046357600080fd5b8101908080359060200190929190505050610f47565b604051808215151515815260200191505060405180910390f35b6104bf600480360360208110156104a957600080fd5b8101908080359060200190929190505050611004565b6040518086151515158152602001851515151581526020018473ffffffffffffffffffffffffffffffffffffffff1673ffffffffffffffffffffffffffffffffffffffff1681526020018381526020018281526020019550505050505060405180910390f35b6105516004803603602081101561053b57600080fd5b81019080803590602001909291905050506110cc565b005b6105956004803603602081101561056957600080fd5b81019080803573ffffffffffffffffffffffffffffffffffffffff169060200190929190505050611217565b005b6105d7600480360360608110156105ad57600080fd5b81019080803590602001909291908035906020019092919080359060200190929190505050611623565b005b61061b600480360360208110156105ef57600080fd5b81019080803573ffffffffffffffffffffffffffffffffffffffff169060200190929190505050611879565b604051808215151515815260200191505060405180910390f35b6106616004803603602081101561064b57600080fd5b8101908080359060200190929190505050611899565b005b6106af6004803603604081101561067957600080fd5b8101908080359060200190929190803573ffffffffffffffffffffffffffffffffffffffff169060200190929190505050611956565b005b6106f1600480360360608110156106c757600080fd5b81019080803590602001909291908035906020019092919080359060200190929190505050611b25565b005b6106fb611c5b565b6040518080602001828103825283818151815260200191508051906020019060200280838360005b8381101561073e578082015181840152602081019050610723565b505050509050019250505060405180910390f35b61083d600480360360c081101561076857600080fd5b81019080803590602001909291908035906020019064010000000081111561078f57600080fd5b8201836020820111156107a157600080fd5b803590602001918460208302840111640100000000831117156107c357600080fd5b919080806020026020016040519081016040528093929190818152602001838360200280828437600081840152601f19601f82011690508083019250505050505050919291929080359060200190929190803560ff1690602001909291908035906020019092919080359060200190929190505050611dee565b604051808215151515815260200191505060405180910390f35b6108a36004803603604081101561086d57600080fd5b81019080803573ffffffffffffffffffffffffffffffffffffffff16906020019092919080359060200190929190505050611e54565b005b6108d1600480360360208110156108bb57600080fd5b8101908080359060200190929190505050611f04565b60405180851515151581526020018415151515815260200183815260200182815260200194505050505060405180910390f35b6109866004803603606081101561091a57600080fd5b81019080803573ffffffffffffffffffffffffffffffffffffffff169060200190929190803573ffffffffffffffffffffffffffffffffffffffff169060200190929190803573ffffffffffffffffffffffffffffffffffffffff169060200190929190505050611f8f565b005b6109d46004803603604081101561099e57600080fd5b81019080803573ffffffffffffffffffffffffffffffffffffffff16906020019092919080359060200190929190505050612628565b604051808215151515815260200191505060405180910390f35b610a5060048036036040811015610a0457600080fd5b81019080803573ffffffffffffffffffffffffffffffffffffffff169060200190929190803573ffffffffffffffffffffffffffffffffffffffff169060200190929190505050612694565b005b600082826040516020018080602001838152602001828103825284818151815260200191508051906020019060200280838360005b83811015610aa2578082015181840152602081019050610a87565b50505050905001935050505060405160208183030381529060405280519060200120905092915050565b6000600173ffffffffffffffffffffffffffffffffffffffff168273ffffffffffffffffffffffffffffffffffffffff1614158015610b965750600073ffffffffffffffffffffffffffffffffffffffff166000808473ffffffffffffffffffffffffffffffffffffffff1673ffffffffffffffffffffffffffffffffffffffff16815260200190815260200160002060009054906101000a900473ffffffffffffffffffffffffffffffffffffffff1673ffffffffffffffffffffffffffffffffffffffff1614155b9050919050565b600080610baa8787610a52565b9050600060018287878760405160008152602001604052604051808581526020018460ff1660ff1681526020018381526020018281526020019450505050506020604051602081039080840390855afa158015610c0b573d6000803e3d6000fd5b505050602060405103519050600460008273ffffffffffffffffffffffffffffffffffffffff1673ffffffffffffffffffffffffffffffffffffffff16815260200190815260200160002060000160009054906101000a900460ff16610c7657600092505050610d49565b600460008273ffffffffffffffffffffffffffffffffffffffff1673ffffffffffffffffffffffffffffffffffffffff16815260200190815260200160002060000160019054906101000a900460ff1615610cd657600092505050610d49565b88600460008373ffffffffffffffffffffffffffffffffffffffff1673ffffffffffffffffffffffffffffffffffffffff1681526020019081526020016000206001015414610d2a57600092505050610d49565b610d348188612628565b610d4357600092505050610d49565b80925050505b9695505050505050565b610d5c33610acc565b610db1576040517f08c379a00000000000000000000000000000000000000000000000000000000081526004018080602001828103825260228152602001806140196022913960400191505060405180910390fd5b6001600460008373ffffffffffffffffffffffffffffffffffffffff1673ffffffffffffffffffffffffffffffffffffffff16815260200190815260200160002060000160016101000a81548160ff0219169083151502179055508073ffffffffffffffffffffffffffffffffffffffff167fafbb4aa0f013cf60d928c38db1e3425d09ca11fdcd41516eee577abcef7cd2a460405160405180910390a250565b6000806000600460008573ffffffffffffffffffffffffffffffffffffffff1673ffffffffffffffffffffffffffffffffffffffff16815260200190815260200160002060000160009054906101000a900460ff16600460008673ffffffffffffffffffffffffffffffffffffffff1673ffffffffffffffffffffffffffffffffffffffff16815260200190815260200160002060000160019054906101000a900460ff16600460008773ffffffffffffffffffffffffffffffffffffffff1673ffffffffffffffffffffffffffffffffffffffff168152602001908152602001600020600101549250925092509193909250565b60006002600083815260200190815260200160002060000160009054906101000a900460ff16610f7a5760009050610fff565b6002600083815260200190815260200160002060000160019054906101000a900460ff1615610fac5760009050610fff565b4260026000848152602001908152602001600020600101541115610fd35760009050610fff565b4260026000848152602001908152602001600020600201541015610ffa5760009050610fff565b600190505b919050565b60008060008060006003600087815260200190815260200160002060000160009054906101000a900460ff166003600088815260200190815260200160002060000160019054906101000a900460ff166003600089815260200190815260200160002060000160029054906101000a900473ffffffffffffffffffffffffffffffffffffffff16600360008a815260200190815260200160002060010154600360008b8152602001908152602001600020600201549450945094509450945091939590929450565b6110d533610acc565b61112a576040517f08c379a00000000000000000000000000000000000000000000000000000000081526004018080602001828103825260228152602001806140196022913960400191505060405180910390fd5b60016003600083815260200190815260200160002060000160016101000a81548160ff0219169083151502179055506000600560006003600085815260200190815260200160002060000160029054906101000a900473ffffffffffffffffffffffffffffffffffffffff1673ffffffffffffffffffffffffffffffffffffffff1673ffffffffffffffffffffffffffffffffffffffff16815260200190815260200160002060006101000a81548160ff021916908315150217905550807fa7609dc65daa4aef2b5398974fc443f78f8f44703963fccde2f3e508b57994ed60405160405180910390a250565b61122033610acc565b611275576040517f08c379a00000000000000000000000000000000000000000000000000000000081526004018080602001828103825260228152602001806140196022913960400191505060405180910390fd5b600073ffffffffffffffffffffffffffffffffffffffff168173ffffffffffffffffffffffffffffffffffffffff16141580156112df5750600173ffffffffffffffffffffffffffffffffffffffff168173ffffffffffffffffffffffffffffffffffffffff1614155b611351576040517f08c379a000000000000000000000000000000000000000000000000000000000815260040180806020018281038252601e8152602001807f496e76616c6964206f776e657220616464726573732070726f7669646564000081525060200191505060405180910390fd5b600073ffffffffffffffffffffffffffffffffffffffff166000808373ffffffffffffffffffffffffffffffffffffffff1673ffffffffffffffffffffffffffffffffffffffff16815260200190815260200160002060009054906101000a900473ffffffffffffffffffffffffffffffffffffffff1673ffffffffffffffffffffffffffffffffffffffff1614611451576040517f08c379a000000000000000000000000000000000000000000000000000000000815260040180806020018281038252601b8152602001807f4164647265737320697320616c726561647920616e206f776e6572000000000081525060200191505060405180910390fd5b600080600173ffffffffffffffffffffffffffffffffffffffff1673ffffffffffffffffffffffffffffffffffffffff16815260200190815260200160002060009054906101000a900473ffffffffffffffffffffffffffffffffffffffff166000808373ffffffffffffffffffffffffffffffffffffffff1673ffffffffffffffffffffffffffffffffffffffff16815260200190815260200160002060006101000a81548173ffffffffffffffffffffffffffffffffffffffff021916908373ffffffffffffffffffffffffffffffffffffffff16021790555080600080600173ffffffffffffffffffffffffffffffffffffffff1673ffffffffffffffffffffffffffffffffffffffff16815260200190815260200160002060006101000a81548173ffffffffffffffffffffffffffffffffffffffff021916908373ffffffffffffffffffffffffffffffffffffffff1602179055506001600081548092919060010191905055507f9465fa0c962cc76958e6373a993326400c1c94f8be2fe3a952adfa7f60b2ea2681604051808273ffffffffffffffffffffffffffffffffffffffff1673ffffffffffffffffffffffffffffffffffffffff16815260200191505060405180910390a150565b61162c33610acc565b611681576040517f08c379a00000000000000000000000000000000000000000000000000000000081526004018080602001828103825260228152602001806140196022913960400191505060405180910390fd5b6002600082815260200190815260200160002060000160009054906101000a900460ff166116ae57600080fd5b6003600084815260200190815260200160002060000160009054906101000a900460ff16156116dc57600080fd5b600082826040516116ec90612af3565b8083815260200182815260200192505050604051809103906000f080158015611719573d6000803e3d6000fd5b5090506001600560008373ffffffffffffffffffffffffffffffffffffffff1673ffffffffffffffffffffffffffffffffffffffff16815260200190815260200160002060006101000a81548160ff02191690831515021790555060016003600086815260200190815260200160002060000160006101000a81548160ff021916908315150217905550816003600086815260200190815260200160002060010181905550806003600086815260200190815260200160002060000160026101000a81548173ffffffffffffffffffffffffffffffffffffffff021916908373ffffffffffffffffffffffffffffffffffffffff1602179055508260036000868152602001908152602001600020600201819055508073ffffffffffffffffffffffffffffffffffffffff1682857fb370cad5e23aaf054a0abd15ae3794b1a99ecf72dd0642cb0db1474a679eafcb60405160405180910390a450505050565b60056020528060005260406000206000915054906101000a900460ff1681565b6118a233610acc565b6118f7576040517f08c379a00000000000000000000000000000000000000000000000000000000081526004018080602001828103825260228152602001806140196022913960400191505060405180910390fd5b60016002600083815260200190815260200160002060000160016101000a81548160ff021916908315150217905550807f6b7ca7d367bb287c2641eecf063be04b9c10b283dc77970ae7f9c7cedf14a02e60405160405180910390a250565b61195f33610acc565b6119b4576040517f08c379a00000000000000000000000000000000000000000000000000000000081526004018080602001828103825260228152602001806140196022913960400191505060405180910390fd5b6002600083815260200190815260200160002060000160009054906101000a900460ff166119e157600080fd5b600460008273ffffffffffffffffffffffffffffffffffffffff1673ffffffffffffffffffffffffffffffffffffffff16815260200190815260200160002060000160009054906101000a900460ff1615611a3b57600080fd5b6001600460008373ffffffffffffffffffffffffffffffffffffffff1673ffffffffffffffffffffffffffffffffffffffff16815260200190815260200160002060000160006101000a81548160ff02191690831515021790555081600460008373ffffffffffffffffffffffffffffffffffffffff1673ffffffffffffffffffffffffffffffffffffffff168152602001908152602001600020600101819055508073ffffffffffffffffffffffffffffffffffffffff16827fb19d4fd999959d9d0075148221b684d4ebf7e97d11e7ea9af2af2026783489f760405160405180910390a35050565b611b2e33610acc565b611b83576040517f08c379a00000000000000000000000000000000000000000000000000000000081526004018080602001828103825260228152602001806140196022913960400191505060405180910390fd5b6002600084815260200190815260200160002060000160009054906101000a900460ff1615611bb157600080fd5b60016002600085815260200190815260200160002060000160006101000a81548160ff021916908315150217905550816002600085815260200190815260200160002060010181905550806002600085815260200190815260200160002060020181905550827f890f4e89c76488160aacf9a41549a0e1bc74be23625284e4b75d98924189e2198383604051808381526020018281526020019250505060405180910390a2505050565b606080600154604051908082528060200260200182016040528015611c8f5781602001602082028038833980820191505090505b50905060008090506000806000600173ffffffffffffffffffffffffffffffffffffffff1673ffffffffffffffffffffffffffffffffffffffff16815260200190815260200160002060009054906101000a900473ffffffffffffffffffffffffffffffffffffffff1690505b600173ffffffffffffffffffffffffffffffffffffffff168173ffffffffffffffffffffffffffffffffffffffff1614611de55780838381518110611d3d57fe5b602002602001019073ffffffffffffffffffffffffffffffffffffffff16908173ffffffffffffffffffffffffffffffffffffffff16815250506000808273ffffffffffffffffffffffffffffffffffffffff1673ffffffffffffffffffffffffffffffffffffffff16815260200190815260200160002060009054906101000a900473ffffffffffffffffffffffffffffffffffffffff1690508180600101925050611cfc565b82935050505090565b600080611dff888888888888610b9d565b9050600073ffffffffffffffffffffffffffffffffffffffff168173ffffffffffffffffffffffffffffffffffffffff161415611e3b57600080fd5b611e458187612a83565b60019150509695505050505050565b600560003373ffffffffffffffffffffffffffffffffffffffff1673ffffffffffffffffffffffffffffffffffffffff16815260200190815260200160002060009054906101000a900460ff16611ef6576040517f08c379a000000000000000000000000000000000000000000000000000000000815260040180806020018281038252602681526020018061403b6026913960400191505060405180910390fd5b611f008282612a83565b5050565b6000806000806002600086815260200190815260200160002060000160009054906101000a900460ff166002600087815260200190815260200160002060000160019054906101000a900460ff166002600088815260200190815260200160002060010154600260008981526020019081526020016000206002015493509350935093509193509193565b611f9833610acc565b611fed576040517f08c379a00000000000000000000000000000000000000000000000000000000081526004018080602001828103825260228152602001806140196022913960400191505060405180910390fd5b600073ffffffffffffffffffffffffffffffffffffffff168173ffffffffffffffffffffffffffffffffffffffff16141580156120575750600173ffffffffffffffffffffffffffffffffffffffff168173ffffffffffffffffffffffffffffffffffffffff1614155b6120c9576040517f08c379a000000000000000000000000000000000000000000000000000000000815260040180806020018281038252601e8152602001807f496e76616c6964206f776e657220616464726573732070726f7669646564000081525060200191505060405180910390fd5b600073ffffffffffffffffffffffffffffffffffffffff166000808373ffffffffffffffffffffffffffffffffffffffff1673ffffffffffffffffffffffffffffffffffffffff16815260200190815260200160002060009054906101000a900473ffffffffffffffffffffffffffffffffffffffff1673ffffffffffffffffffffffffffffffffffffffff16146121c9576040517f08c379a000000000000000000000000000000000000000000000000000000000815260040180806020018281038252601b8152602001807f4164647265737320697320616c726561647920616e206f776e6572000000000081525060200191505060405180910390fd5b600073ffffffffffffffffffffffffffffffffffffffff168273ffffffffffffffffffffffffffffffffffffffff16141580156122335750600173ffffffffffffffffffffffffffffffffffffffff168273ffffffffffffffffffffffffffffffffffffffff1614155b6122a5576040517f08c379a000000000000000000000000000000000000000000000000000000000815260040180806020018281038252601e8152602001807f496e76616c6964206f776e657220616464726573732070726f7669646564000081525060200191505060405180910390fd5b8173ffffffffffffffffffffffffffffffffffffffff166000808573ffffffffffffffffffffffffffffffffffffffff1673ffffffffffffffffffffffffffffffffffffffff16815260200190815260200160002060009054906101000a900473ffffffffffffffffffffffffffffffffffffffff1673ffffffffffffffffffffffffffffffffffffffff1614612387576040517f08c379a00000000000000000000000000000000000000000000000000000000081526004018080602001828103825260268152602001806140616026913960400191505060405180910390fd5b6000808373ffffffffffffffffffffffffffffffffffffffff1673ffffffffffffffffffffffffffffffffffffffff16815260200190815260200160002060009054906101000a900473ffffffffffffffffffffffffffffffffffffffff166000808373ffffffffffffffffffffffffffffffffffffffff1673ffffffffffffffffffffffffffffffffffffffff16815260200190815260200160002060006101000a81548173ffffffffffffffffffffffffffffffffffffffff021916908373ffffffffffffffffffffffffffffffffffffffff160217905550806000808573ffffffffffffffffffffffffffffffffffffffff1673ffffffffffffffffffffffffffffffffffffffff16815260200190815260200160002060006101000a81548173ffffffffffffffffffffffffffffffffffffffff021916908373ffffffffffffffffffffffffffffffffffffffff16021790555060008060008473ffffffffffffffffffffffffffffffffffffffff1673ffffffffffffffffffffffffffffffffffffffff16815260200190815260200160002060006101000a81548173ffffffffffffffffffffffffffffffffffffffff021916908373ffffffffffffffffffffffffffffffffffffffff1602179055507ff8d49fc529812e9a7c5c50e69c20f0dccc0db8fa95c98bc58cc9a4f1c1299eaf82604051808273ffffffffffffffffffffffffffffffffffffffff1673ffffffffffffffffffffffffffffffffffffffff16815260200191505060405180910390a17f9465fa0c962cc76958e6373a993326400c1c94f8be2fe3a952adfa7f60b2ea2681604051808273ffffffffffffffffffffffffffffffffffffffff1673ffffffffffffffffffffffffffffffffffffffff16815260200191505060405180910390a1505050565b6000600460008473ffffffffffffffffffffffffffffffffffffffff1673ffffffffffffffffffffffffffffffffffffffff168152602001908152602001600020600201600083815260200190815260200160002060009054906101000a900460ff1615905092915050565b61269d33610acc565b6126f2576040517f08c379a00000000000000000000000000000000000000000000000000000000081526004018080602001828103825260228152602001806140196022913960400191505060405180910390fd5b600073ffffffffffffffffffffffffffffffffffffffff168173ffffffffffffffffffffffffffffffffffffffff161415801561275c5750600173ffffffffffffffffffffffffffffffffffffffff168173ffffffffffffffffffffffffffffffffffffffff1614155b6127ce576040517f08c379a000000000000000000000000000000000000000000000000000000000815260040180806020018281038252601e8152602001807f496e76616c6964206f776e657220616464726573732070726f7669646564000081525060200191505060405180910390fd5b8073ffffffffffffffffffffffffffffffffffffffff166000808473ffffffffffffffffffffffffffffffffffffffff1673ffffffffffffffffffffffffffffffffffffffff16815260200190815260200160002060009054906101000a900473ffffffffffffffffffffffffffffffffffffffff1673ffffffffffffffffffffffffffffffffffffffff16146128b0576040517f08c379a00000000000000000000000000000000000000000000000000000000081526004018080602001828103825260268152602001806140616026913960400191505060405180910390fd5b6000808273ffffffffffffffffffffffffffffffffffffffff1673ffffffffffffffffffffffffffffffffffffffff16815260200190815260200160002060009054906101000a900473ffffffffffffffffffffffffffffffffffffffff166000808473ffffffffffffffffffffffffffffffffffffffff1673ffffffffffffffffffffffffffffffffffffffff16815260200190815260200160002060006101000a81548173ffffffffffffffffffffffffffffffffffffffff021916908373ffffffffffffffffffffffffffffffffffffffff16021790555060008060008373ffffffffffffffffffffffffffffffffffffffff1673ffffffffffffffffffffffffffffffffffffffff16815260200190815260200160002060006101000a81548173ffffffffffffffffffffffffffffffffffffffff021916908373ffffffffffffffffffffffffffffffffffffffff160217905550600160008154809291906001900391905055507ff8d49fc529812e9a7c5c50e69c20f0dccc0db8fa95c98bc58cc9a4f1c1299eaf81604051808273ffffffffffffffffffffffffffffffffffffffff1673ffffffffffffffffffffffffffffffffffffffff16815260200191505060405180910390a15050565b6001600460008473ffffffffffffffffffffffffffffffffffffffff1673ffffffffffffffffffffffffffffffffffffffff168152602001908152602001600020600201600083815260200190815260200160002060006101000a81548160ff0219169083151502179055505050565b61151880612b018339019056fe608060405234801561001057600080fd5b506040516115183803806115188339818101604052604081101561003357600080fd5b810190808051906020019092919080519060200190929190505050336000806101000a81548173ffffffffffffffffffffffffffffffffffffffff021916908373ffffffffffffffffffffffffffffffffffffffff1602179055508160028190555080600181905550505061146b806100ad6000396000f3fe608060405234801561001057600080fd5b506004361061009e5760003560e01c80638a4599c7116100665780638a4599c714610307578063a6a1ef5514610362578063ad1b2b74146104fb578063e168c3ec14610519578063f851a440146105375761009e565b806305fce0b7146100a357806309eef43e1461023157806315474c101461028d57806336ddc96f146102bb57806346c231cb146102d9575b600080fd5b610217600480360360808110156100b957600080fd5b81019080803590602001906401000000008111156100d657600080fd5b8201836020820111156100e857600080fd5b8035906020019184602083028401116401000000008311171561010a57600080fd5b919080806020026020016040519081016040528093929190818152602001838360200280828437600081840152601f19601f8201169050808301925050505050505091929192908035906020019064010000000081111561016a57600080fd5b82018360208201111561017c57600080fd5b8035906020019184602083028401116401000000008311171561019e57600080fd5b919080806020026020016040519081016040528093929190818152602001838360200280828437600081840152601f19601f820116905080830192505050505050509192919290803573ffffffffffffffffffffffffffffffffffffffff16906020019092919080359060200190929190505050610581565b604051808215151515815260200191505060405180910390f35b6102736004803603602081101561024757600080fd5b81019080803573ffffffffffffffffffffffffffffffffffffffff1690602001909291905050506109fa565b604051808215151515815260200191505060405180910390f35b6102b9600480360360208110156102a357600080fd5b8101908080359060200190929190505050610a1a565b005b6102c3610bc4565b6040518082815260200191505060405180910390f35b610305600480360360208110156102ef57600080fd5b8101908080359060200190929190505050610bca565b005b6103336004803603602081101561031d57600080fd5b8101908080359060200190929190505050610d8f565b604051808515151515815260200184815260200183815260200182815260200194505050505060405180910390f35b6104e1600480360360e081101561037857600080fd5b810190808035906020019064010000000081111561039557600080fd5b8201836020820111156103a757600080fd5b803590602001918460208302840111640100000000831117156103c957600080fd5b919080806020026020016040519081016040528093929190818152602001838360200280828437600081840152601f19601f8201169050808301925050505050505091929192908035906020019064010000000081111561042957600080fd5b82018360208201111561043b57600080fd5b8035906020019184602083028401116401000000008311171561045d57600080fd5b919080806020026020016040519081016040528093929190818152602001838360200280828437600081840152601f19601f8201169050808301925050505050505091929192908035906020019092919080359060200190929190803560ff1690602001909291908035906020019092919080359060200190929190505050610e0d565b604051808215151515815260200191505060405180910390f35b610503611373565b6040518082815260200191505060405180910390f35b610521611379565b6040518082815260200191505060405180910390f35b61053f61137f565b604051808273ffffffffffffffffffffffffffffffffffffffff1673ffffffffffffffffffffffffffffffffffffffff16815260200191505060405180910390f35b60008060009054906101000a900473ffffffffffffffffffffffffffffffffffffffff1673ffffffffffffffffffffffffffffffffffffffff16632f54bf6e336040518263ffffffff1660e01b8152600401808273ffffffffffffffffffffffffffffffffffffffff1673ffffffffffffffffffffffffffffffffffffffff16815260200191505060206040518083038186803b15801561062157600080fd5b505afa158015610635573d6000803e3d6000fd5b505050506040513d602081101561064b57600080fd5b81019080805190602001909291905050506106ce576040517f08c379a00000000000000000000000000000000000000000000000000000000081526004018080602001828103825260108152602001807f4d75737420626520616e2061646d696e0000000000000000000000000000000081525060200191505060405180910390fd5b60008090505b85518110156109ed5761071a6001600460008985815181106106f257fe5b60200260200101518152602001908152602001600020600401546113a490919063ffffffff16565b6004600088848151811061072a57fe5b602002602001015181526020019081526020016000206004018190555061079685828151811061075657fe5b60200260200101516004600089858151811061076e57fe5b60200260200101518152602001908152602001600020600301546113a490919063ffffffff16565b600460008884815181106107a657fe5b602002602001015181526020019081526020016000206003018190555060006107e18683815181106107d457fe5b602002602001015161142c565b905061081f81600460008a86815181106107f757fe5b60200260200101518152602001908152602001600020600201546113a490919063ffffffff16565b6004600089858151811061082f57fe5b60200260200101518152602001908152602001600020600201819055506000809054906101000a900473ffffffffffffffffffffffffffffffffffffffff1673ffffffffffffffffffffffffffffffffffffffff1663c7b7530786866040518363ffffffff1660e01b8152600401808373ffffffffffffffffffffffffffffffffffffffff1673ffffffffffffffffffffffffffffffffffffffff16815260200182815260200192505050600060405180830381600087803b1580156108f457600080fd5b505af1158015610908573d6000803e3d6000fd5b5050505086828151811061091857fe5b60200260200101517f213d52f8d67eeb20811b31721709e38d2ab4a03c6094739a68c3ebbc0858d03e87848151811061094d57fe5b602002602001015183600460008c888151811061096657fe5b60200260200101518152602001908152602001600020600401548989604051808681526020018581526020018481526020018373ffffffffffffffffffffffffffffffffffffffff1673ffffffffffffffffffffffffffffffffffffffff1681526020018281526020019550505050505060405180910390a25080806001019150506106d4565b5060019050949350505050565b60056020528060005260406000206000915054906101000a900460ff1681565b6000809054906101000a900473ffffffffffffffffffffffffffffffffffffffff1673ffffffffffffffffffffffffffffffffffffffff16632f54bf6e336040518263ffffffff1660e01b8152600401808273ffffffffffffffffffffffffffffffffffffffff1673ffffffffffffffffffffffffffffffffffffffff16815260200191505060206040518083038186803b158015610ab857600080fd5b505afa158015610acc573d6000803e3d6000fd5b505050506040513d6020811015610ae257600080fd5b8101908080519060200190929190505050610b65576040517f08c379a00000000000000000000000000000000000000000000000000000000081526004018080602001828103825260108152602001807f4d75737420626520616e2061646d696e0000000000000000000000000000000081525060200191505060405180910390fd5b60016004600083815260200190815260200160002060000160016101000a81548160ff021916908315150217905550807fc65978a4584654f295e4ad49b6d4162923e3c5e206f86ebbccc2e1dc180d885a60405160405180910390a250565b60025481565b6000809054906101000a900473ffffffffffffffffffffffffffffffffffffffff1673ffffffffffffffffffffffffffffffffffffffff16632f54bf6e336040518263ffffffff1660e01b8152600401808273ffffffffffffffffffffffffffffffffffffffff1673ffffffffffffffffffffffffffffffffffffffff16815260200191505060206040518083038186803b158015610c6857600080fd5b505afa158015610c7c573d6000803e3d6000fd5b505050506040513d6020811015610c9257600080fd5b8101908080519060200190929190505050610d15576040517f08c379a00000000000000000000000000000000000000000000000000000000081526004018080602001828103825260108152602001807f4d75737420626520616e2061646d696e0000000000000000000000000000000081525060200191505060405180910390fd5b60016004600083815260200190815260200160002060000160006101000a81548160ff021916908315150217905550806004600083815260200190815260200160002060010181905550807f3784e033ee28778700c45b7b5dc00a3b76095515425249233e3afbcb0ac09a6760405160405180910390a250565b6000806000806004600086815260200190815260200160002060000160009054906101000a900460ff1660046000878152602001908152602001600020600201546004600088815260200190815260200160002060030154600460008981526020019081526020016000206004015493509350935093509193509193565b60008060009054906101000a900473ffffffffffffffffffffffffffffffffffffffff1673ffffffffffffffffffffffffffffffffffffffff16636a064d2d306040518263ffffffff1660e01b8152600401808273ffffffffffffffffffffffffffffffffffffffff1673ffffffffffffffffffffffffffffffffffffffff168152602001915050602060405180830381600087803b158015610eaf57600080fd5b505af1158015610ec3573d6000803e3d6000fd5b505050506040513d6020811015610ed957600080fd5b8101908080519060200190929190505050610ef357600080fd5b600560003373ffffffffffffffffffffffffffffffffffffffff1673ffffffffffffffffffffffffffffffffffffffff16815260200190815260200160002060009054906101000a900460ff1615610f4a57600080fd5b8651885114610f5857600080fd5b8560015414610f6657600080fd5b6000809054906101000a900473ffffffffffffffffffffffffffffffffffffffff1673ffffffffffffffffffffffffffffffffffffffff16635223c790876040518263ffffffff1660e01b815260040180828152602001915050602060405180830381600087803b158015610fda57600080fd5b505af1158015610fee573d6000803e3d6000fd5b505050506040513d602081101561100457600080fd5b810190808051906020019092919050505061101e57600080fd5b6000809054906101000a900473ffffffffffffffffffffffffffffffffffffffff1673ffffffffffffffffffffffffffffffffffffffff1663b3789b1a878a888888886040518763ffffffff1660e01b815260040180878152602001806020018681526020018560ff1660ff168152602001848152602001838152602001828103825287818151815260200191508051906020019060200280838360005b838110156110d75780820151818401526020810190506110bc565b50505050905001975050505050505050602060405180830381600087803b15801561110157600080fd5b505af1158015611115573d6000803e3d6000fd5b505050506040513d602081101561112b57600080fd5b810190808051906020019092919050505061114557600080fd5b6001600560003373ffffffffffffffffffffffffffffffffffffffff1673ffffffffffffffffffffffffffffffffffffffff16815260200190815260200160002060006101000a81548160ff02191690831515021790555060008090505b885181101561136357600460008a83815181106111bc57fe5b6020026020010151815260200190815260200160002060000160009054906101000a900460ff166111ec57600080fd5b6112296001600460008c858151811061120157fe5b60200260200101518152602001908152602001600020600401546113a490919063ffffffff16565b600460008b848151811061123957fe5b60200260200101518152602001908152602001600020600401819055506112a588828151811061126557fe5b6020026020010151600460008c858151811061127d57fe5b60200260200101518152602001908152602001600020600301546113a490919063ffffffff16565b600460008b84815181106112b557fe5b60200260200101518152602001908152602001600020600301819055506113296112f18983815181106112e457fe5b602002602001015161142c565b600460008c858151811061130157fe5b60200260200101518152602001908152602001600020600201546113a490919063ffffffff16565b600460008b848151811061133957fe5b602002602001015181526020019081526020016000206002018190555080806001019150506111a3565b5060019050979650505050505050565b60015481565b60035481565b6000809054906101000a900473ffffffffffffffffffffffffffffffffffffffff1681565b600080828401905083811015611422576040517f08c379a000000000000000000000000000000000000000000000000000000000815260040180806020018281038252601b8152602001807f536166654d6174683a206164646974696f6e206f766572666c6f77000000000081525060200191505060405180910390fd5b8091505092915050565b600081905091905056fea265627a7a723158209882d8a8e7432fcefb6c7a6cf47511725c9875ccd8726a28920357835177044564736f6c634300050c00324d6574686f642063616e206f6e6c792062652063616c6c6564206279206f776e65724d6574686f642063616e206f6e6c792062652063616c6c6564206279207175657374696f6e73496e76616c696420707265764f776e65722c206f776e657220706169722070726f7669646564a265627a7a7231582015982874f6afba34f20856a3784d0380ebc1756223b022d090750e98b21e2f0364736f6c634300050c0032",
  "source": "pragma solidity ^0.5.0;\n\nimport \"openzeppelin-solidity/contracts/math/SafeMath.sol\";\n\nimport './Admin.sol';\nimport './Question.sol';\n\ncontract Culturestake is Admin {\n  using SafeMath for uint256;\n\n  mapping (bytes32 => Festival) festivals;\n  mapping (bytes32 => QuestionStruct) questions;\n  mapping (address => VotingBooth) votingBooths;\n  mapping (address => bool) public questionsByAddress;\n\n  struct VotingBooth {\n    bool inited;\n    bool deactivated;\n    bytes32 festival;\n    mapping (uint256 => bool) nonces;\n  }\n\n  struct Festival {\n    bool inited;\n    bool deactivated;\n    uint256 startTime;\n    uint256 endTime;\n  }\n\n  struct QuestionStruct {\n    bool inited;\n    bool deactivated;\n    address contractAddress;\n    bytes32 festival;\n    uint256 maxVoteTokens;\n  }\n\n  event InitQuestion(bytes32 indexed question, bytes32 indexed festival, address indexed questionAddress);\n  event InitFestival(bytes32 indexed festival, uint256 startTime, uint256 endTime);\n  event InitVotingBooth(bytes32 indexed festival, address indexed boothAddress);\n\n  event DeactivateQuestion(bytes32 indexed question);\n  event DeactivateFestival(bytes32 indexed festival);\n  event DeactivateVotingBooth(address indexed boothAddress);\n\n  modifier onlyQuestions() {\n      require(questionsByAddress[msg.sender], \"Method can only be called by questions\");\n      _;\n  }\n\n  constructor(address[] memory _owners) public Admin(_owners) {}\n\n  function isActiveFestival(bytes32 _festival) public view returns (bool) {\n    // case festival has not been inited\n    if (!festivals[_festival].inited) return false;\n    // case festival has been manually deactivated\n    if (festivals[_festival].deactivated) return false;\n    // case festival hasn't started\n    if (festivals[_festival].startTime > block.timestamp) return false;\n    // case festival has ended\n    if (festivals[_festival].endTime < block.timestamp) return false;\n    return true;\n  }\n\n  function checkBoothSignature(\n    bytes32 _festival,\n    bytes32[] memory _answers,\n    uint256 _nonce,\n    uint8 sigV,\n    bytes32 sigR,\n    bytes32 sigS\n  ) public view returns (address) {\n      bytes32 h = getHash(_answers, _nonce);\n      address addressFromSig = ecrecover(h, sigV, sigR, sigS);\n      // case is not a booth\n      if (!votingBooths[addressFromSig].inited) return address(0);\n      // case was manually deactivated\n      if (votingBooths[addressFromSig].deactivated) return address(0);\n      // case is from the wrong festival\n      if (!(votingBooths[addressFromSig].festival == _festival)) return address(0);\n      // case nonce has been used\n      if (!isValidVotingNonce(addressFromSig, _nonce)) return address(0);\n      return addressFromSig;\n  }\n\n  function getHash(\n    bytes32[] memory _answers,\n    uint256 _nonce\n  ) public view returns (bytes32) {\n    return keccak256(abi.encode(_answers, _nonce));\n  }\n\n  function checkBoothSignatureAndBurnNonce(\n    bytes32 _festival,\n    bytes32[] memory _answers,\n    uint256 _nonce,\n    uint8 sigV,\n    bytes32 sigR,\n    bytes32 sigS\n  ) public returns (bool) {\n    address addressFromSig = checkBoothSignature(_festival, _answers, _nonce, sigV, sigR, sigS);\n    require(addressFromSig != address(0));\n    _burnNonce(addressFromSig, _nonce);\n    return true;\n  }\n\n  function _burnNonce(address _booth, uint256 _nonce) internal {\n    votingBooths[_booth].nonces[_nonce] = true;\n  }\n\n  function burnNonce(address _booth, uint256 _nonce) public onlyQuestions {\n    _burnNonce(_booth, _nonce);\n  }\n\n  function initVotingBooth(\n    bytes32 _festival,\n    address _booth\n  ) public authorized {\n      require(festivals[_festival].inited);\n      require(!votingBooths[_booth].inited);\n      votingBooths[_booth].inited = true;\n      votingBooths[_booth].festival = _festival;\n      emit InitVotingBooth(_festival, _booth);\n  }\n\n  function deactivateVotingBooth(address _booth) public authorized {\n    votingBooths[_booth].deactivated = true;\n    emit DeactivateVotingBooth(_booth);\n  }\n\n  function getVotingBooth(address _booth) public view returns (bool, bool, bytes32) {\n    return (votingBooths[_booth].inited, votingBooths[_booth].deactivated, votingBooths[_booth].festival);\n  }\n\n  function isValidVotingNonce(address _booth, uint256 _nonce) public view returns (bool) {\n    return (!votingBooths[_booth].nonces[_nonce]);\n  }\n\n  function initFestival(\n    bytes32 _festival,\n    uint256 _startTime,\n    uint256 _endTime\n  ) public authorized {\n    require(!festivals[_festival].inited);\n    festivals[_festival].inited = true;\n    festivals[_festival].startTime = _startTime;\n    festivals[_festival].endTime = _endTime;\n    emit InitFestival(_festival, _startTime, _endTime);\n  }\n\n  function deactivateFestival(bytes32 _festival) public authorized {\n    festivals[_festival].deactivated = true;\n    emit DeactivateFestival(_festival);\n  }\n\n  function getFestival(bytes32 _festival) public view returns (bool, bool, uint256, uint256) {\n    return (\n      festivals[_festival].inited,\n      festivals[_festival].deactivated,\n      festivals[_festival].startTime,\n      festivals[_festival].endTime\n    );\n  }\n\n  function deactivateQuestion(bytes32 _question) public authorized {\n    questions[_question].deactivated = true;\n    questionsByAddress[questions[_question].contractAddress] = false;\n    emit DeactivateQuestion(_question);\n  }\n\n  function initQuestion(\n    bytes32 _question,\n    uint256 _maxVoteTokens,\n    bytes32 _festival\n  ) public authorized {\n    require(festivals[_festival].inited);\n    require(!questions[_question].inited);\n\n    Question questionContract = new Question(_maxVoteTokens, _festival);\n    questionsByAddress[address(questionContract)] = true;\n\n    questions[_question].inited = true;\n    questions[_question].festival = _festival;\n    questions[_question].contractAddress = address(questionContract);\n    questions[_question].maxVoteTokens = _maxVoteTokens;\n\n    emit InitQuestion(_question, _festival, address(questionContract));\n  }\n\n  function getQuestion(bytes32 _question) public view returns (bool, bool, address, bytes32, uint256) {\n    return (\n      questions[_question].inited,\n      questions[_question].deactivated,\n      questions[_question].contractAddress,\n      questions[_question].festival,\n      questions[_question].maxVoteTokens\n    );\n  }\n}",
  "sourcePath": "/media/000/Documents/culturestake/culturestake-contracts/contracts/Culturestake.sol",
  "compiler": {
    "name": "solc",
    "version": "0.5.12+commit.7709ece9.Emscripten.clang"
  },
  "schemaVersion": "3.0.20",
  "updatedAt": "2020-07-18T18:35:38.724Z",
  "devdoc": {
    "methods": {}
  },
  "userdoc": {
    "methods": {}
  }
}