{
  "contractName": "Culturestake",
  "abi": [
    {
      "inputs": [
        {
          "internalType": "address[]",
          "name": "_owners",
          "type": "address[]"
        },
        {
          "internalType": "address",
          "name": "_questionMasterCopy",
          "type": "address"
        }
      ],
      "payable": false,
      "stateMutability": "nonpayable",
      "type": "constructor"
    },
    {
      "anonymous": false,
      "inputs": [
        {
          "indexed": false,
          "internalType": "address",
          "name": "owner",
          "type": "address"
        }
      ],
      "name": "AddedOwner",
      "type": "event"
    },
    {
      "anonymous": false,
      "inputs": [
        {
          "indexed": true,
          "internalType": "bytes32",
          "name": "festival",
          "type": "bytes32"
        }
      ],
      "name": "DeactivateFestival",
      "type": "event"
    },
    {
      "anonymous": false,
      "inputs": [
        {
          "indexed": true,
          "internalType": "bytes32",
          "name": "question",
          "type": "bytes32"
        }
      ],
      "name": "DeactivateQuestion",
      "type": "event"
    },
    {
      "anonymous": false,
      "inputs": [
        {
          "indexed": true,
          "internalType": "address",
          "name": "boothAddress",
          "type": "address"
        }
      ],
      "name": "DeactivateVotingBooth",
      "type": "event"
    },
    {
      "anonymous": false,
      "inputs": [
        {
          "indexed": true,
          "internalType": "bytes32",
          "name": "festival",
          "type": "bytes32"
        },
        {
          "indexed": false,
          "internalType": "uint256",
          "name": "startTime",
          "type": "uint256"
        },
        {
          "indexed": false,
          "internalType": "uint256",
          "name": "endTime",
          "type": "uint256"
        }
      ],
      "name": "InitFestival",
      "type": "event"
    },
    {
      "anonymous": false,
      "inputs": [
        {
          "indexed": true,
          "internalType": "bytes32",
          "name": "question",
          "type": "bytes32"
        },
        {
          "indexed": true,
          "internalType": "bytes32",
          "name": "festival",
          "type": "bytes32"
        },
        {
          "indexed": true,
          "internalType": "address",
          "name": "questionAddress",
          "type": "address"
        }
      ],
      "name": "InitQuestion",
      "type": "event"
    },
    {
      "anonymous": false,
      "inputs": [
        {
          "indexed": true,
          "internalType": "bytes32",
          "name": "festival",
          "type": "bytes32"
        },
        {
          "indexed": true,
          "internalType": "address",
          "name": "boothAddress",
          "type": "address"
        }
      ],
      "name": "InitVotingBooth",
      "type": "event"
    },
    {
      "anonymous": false,
      "inputs": [
        {
          "indexed": false,
          "internalType": "contract Proxy",
          "name": "proxy",
          "type": "address"
        }
      ],
      "name": "ProxyCreation",
      "type": "event"
    },
    {
      "anonymous": false,
      "inputs": [
        {
          "indexed": false,
          "internalType": "address",
          "name": "owner",
          "type": "address"
        }
      ],
      "name": "RemovedOwner",
      "type": "event"
    },
    {
      "constant": false,
      "inputs": [
        {
          "internalType": "address",
          "name": "owner",
          "type": "address"
        }
      ],
      "name": "addOwner",
      "outputs": [],
      "payable": false,
      "stateMutability": "nonpayable",
      "type": "function"
    },
    {
      "constant": true,
      "inputs": [],
      "name": "getOwners",
      "outputs": [
        {
          "internalType": "address[]",
          "name": "",
          "type": "address[]"
        }
      ],
      "payable": false,
      "stateMutability": "view",
      "type": "function"
    },
    {
      "constant": true,
      "inputs": [
        {
          "internalType": "address",
          "name": "owner",
          "type": "address"
        }
      ],
      "name": "isOwner",
      "outputs": [
        {
          "internalType": "bool",
          "name": "",
          "type": "bool"
        }
      ],
      "payable": false,
      "stateMutability": "view",
      "type": "function"
    },
    {
      "constant": true,
      "inputs": [],
      "name": "questionMasterCopy",
      "outputs": [
        {
          "internalType": "address",
          "name": "",
          "type": "address"
        }
      ],
      "payable": false,
      "stateMutability": "view",
      "type": "function"
    },
    {
      "constant": true,
      "inputs": [
        {
          "internalType": "address",
          "name": "",
          "type": "address"
        }
      ],
      "name": "questionsByAddress",
      "outputs": [
        {
          "internalType": "bool",
          "name": "",
          "type": "bool"
        }
      ],
      "payable": false,
      "stateMutability": "view",
      "type": "function"
    },
    {
      "constant": false,
      "inputs": [
        {
          "internalType": "address",
          "name": "prevOwner",
          "type": "address"
        },
        {
          "internalType": "address",
          "name": "owner",
          "type": "address"
        }
      ],
      "name": "removeOwner",
      "outputs": [],
      "payable": false,
      "stateMutability": "nonpayable",
      "type": "function"
    },
    {
      "constant": false,
      "inputs": [
        {
          "internalType": "address",
          "name": "prevOwner",
          "type": "address"
        },
        {
          "internalType": "address",
          "name": "oldOwner",
          "type": "address"
        },
        {
          "internalType": "address",
          "name": "newOwner",
          "type": "address"
        }
      ],
      "name": "swapOwner",
      "outputs": [],
      "payable": false,
      "stateMutability": "nonpayable",
      "type": "function"
    },
    {
      "constant": true,
      "inputs": [],
      "name": "voteRelayer",
      "outputs": [
        {
          "internalType": "address",
          "name": "",
          "type": "address"
        }
      ],
      "payable": false,
      "stateMutability": "view",
      "type": "function"
    },
    {
      "constant": false,
      "inputs": [
        {
          "internalType": "address",
          "name": "_newQuestionMasterCopy",
          "type": "address"
        }
      ],
      "name": "setQuestionMasterCopy",
      "outputs": [],
      "payable": false,
      "stateMutability": "nonpayable",
      "type": "function"
    },
    {
      "constant": false,
      "inputs": [
        {
          "internalType": "address",
          "name": "_newVoteRelayer",
          "type": "address"
        }
      ],
      "name": "setVoteRelayer",
      "outputs": [],
      "payable": false,
      "stateMutability": "nonpayable",
      "type": "function"
    },
    {
      "constant": true,
      "inputs": [
        {
          "internalType": "address",
          "name": "_sender",
          "type": "address"
        }
      ],
      "name": "isVoteRelayer",
      "outputs": [
        {
          "internalType": "bool",
          "name": "",
          "type": "bool"
        }
      ],
      "payable": false,
      "stateMutability": "view",
      "type": "function"
    },
    {
      "constant": true,
      "inputs": [
        {
          "internalType": "bytes32",
          "name": "_festival",
          "type": "bytes32"
        }
      ],
      "name": "isActiveFestival",
      "outputs": [
        {
          "internalType": "bool",
          "name": "",
          "type": "bool"
        }
      ],
      "payable": false,
      "stateMutability": "view",
      "type": "function"
    },
    {
      "constant": true,
      "inputs": [
        {
          "internalType": "bytes32",
          "name": "_festival",
          "type": "bytes32"
        },
        {
          "internalType": "bytes32[]",
          "name": "_answers",
          "type": "bytes32[]"
        },
        {
          "internalType": "uint256",
          "name": "_nonce",
          "type": "uint256"
        },
        {
          "internalType": "uint8",
          "name": "sigV",
          "type": "uint8"
        },
        {
          "internalType": "bytes32",
          "name": "sigR",
          "type": "bytes32"
        },
        {
          "internalType": "bytes32",
          "name": "sigS",
          "type": "bytes32"
        }
      ],
      "name": "checkBoothSignature",
      "outputs": [
        {
          "internalType": "address",
          "name": "",
          "type": "address"
        }
      ],
      "payable": false,
      "stateMutability": "view",
      "type": "function"
    },
    {
      "constant": true,
      "inputs": [
        {
          "internalType": "bytes32[]",
          "name": "_answers",
          "type": "bytes32[]"
        },
        {
          "internalType": "uint256",
          "name": "_nonce",
          "type": "uint256"
        }
      ],
      "name": "getHash",
      "outputs": [
        {
          "internalType": "bytes32",
          "name": "",
          "type": "bytes32"
        }
      ],
      "payable": false,
      "stateMutability": "view",
      "type": "function"
    },
    {
      "constant": false,
      "inputs": [
        {
          "internalType": "address",
          "name": "_booth",
          "type": "address"
        },
        {
          "internalType": "uint256",
          "name": "_nonce",
          "type": "uint256"
        }
      ],
      "name": "burnNonce",
      "outputs": [],
      "payable": false,
      "stateMutability": "nonpayable",
      "type": "function"
    },
    {
      "constant": false,
      "inputs": [
        {
          "internalType": "bytes32",
          "name": "_festival",
          "type": "bytes32"
        },
        {
          "internalType": "address",
          "name": "_booth",
          "type": "address"
        }
      ],
      "name": "initVotingBooth",
      "outputs": [],
      "payable": false,
      "stateMutability": "nonpayable",
      "type": "function"
    },
    {
      "constant": false,
      "inputs": [
        {
          "internalType": "address",
          "name": "_booth",
          "type": "address"
        }
      ],
      "name": "deactivateVotingBooth",
      "outputs": [],
      "payable": false,
      "stateMutability": "nonpayable",
      "type": "function"
    },
    {
      "constant": true,
      "inputs": [
        {
          "internalType": "address",
          "name": "_booth",
          "type": "address"
        }
      ],
      "name": "getVotingBooth",
      "outputs": [
        {
          "internalType": "bool",
          "name": "",
          "type": "bool"
        },
        {
          "internalType": "bool",
          "name": "",
          "type": "bool"
        },
        {
          "internalType": "bytes32",
          "name": "",
          "type": "bytes32"
        }
      ],
      "payable": false,
      "stateMutability": "view",
      "type": "function"
    },
    {
      "constant": true,
      "inputs": [
        {
          "internalType": "address",
          "name": "_booth",
          "type": "address"
        },
        {
          "internalType": "uint256",
          "name": "_nonce",
          "type": "uint256"
        }
      ],
      "name": "isValidVotingNonce",
      "outputs": [
        {
          "internalType": "bool",
          "name": "",
          "type": "bool"
        }
      ],
      "payable": false,
      "stateMutability": "view",
      "type": "function"
    },
    {
      "constant": false,
      "inputs": [
        {
          "internalType": "bytes32",
          "name": "_festival",
          "type": "bytes32"
        },
        {
          "internalType": "uint256",
          "name": "_startTime",
          "type": "uint256"
        },
        {
          "internalType": "uint256",
          "name": "_endTime",
          "type": "uint256"
        }
      ],
      "name": "initFestival",
      "outputs": [],
      "payable": false,
      "stateMutability": "nonpayable",
      "type": "function"
    },
    {
      "constant": false,
      "inputs": [
        {
          "internalType": "bytes32",
          "name": "_festival",
          "type": "bytes32"
        }
      ],
      "name": "deactivateFestival",
      "outputs": [],
      "payable": false,
      "stateMutability": "nonpayable",
      "type": "function"
    },
    {
      "constant": true,
      "inputs": [
        {
          "internalType": "bytes32",
          "name": "_festival",
          "type": "bytes32"
        }
      ],
      "name": "getFestival",
      "outputs": [
        {
          "internalType": "bool",
          "name": "",
          "type": "bool"
        },
        {
          "internalType": "bool",
          "name": "",
          "type": "bool"
        },
        {
          "internalType": "uint256",
          "name": "",
          "type": "uint256"
        },
        {
          "internalType": "uint256",
          "name": "",
          "type": "uint256"
        }
      ],
      "payable": false,
      "stateMutability": "view",
      "type": "function"
    },
    {
      "constant": false,
      "inputs": [
        {
          "internalType": "bytes32",
          "name": "_question",
          "type": "bytes32"
        }
      ],
      "name": "deactivateQuestion",
      "outputs": [],
      "payable": false,
      "stateMutability": "nonpayable",
      "type": "function"
    },
    {
      "constant": false,
      "inputs": [
        {
          "internalType": "bytes32",
          "name": "_question",
          "type": "bytes32"
        },
        {
          "internalType": "uint256",
          "name": "_maxVoteTokens",
          "type": "uint256"
        },
        {
          "internalType": "bytes32",
          "name": "_festival",
          "type": "bytes32"
        }
      ],
      "name": "initQuestion",
      "outputs": [],
      "payable": false,
      "stateMutability": "nonpayable",
      "type": "function"
    },
    {
      "constant": true,
      "inputs": [
        {
          "internalType": "bytes32",
          "name": "_question",
          "type": "bytes32"
        }
      ],
      "name": "getQuestion",
      "outputs": [
        {
          "internalType": "bool",
          "name": "",
          "type": "bool"
        },
        {
          "internalType": "bool",
          "name": "",
          "type": "bool"
        },
        {
          "internalType": "address",
          "name": "",
          "type": "address"
        },
        {
          "internalType": "bytes32",
          "name": "",
          "type": "bytes32"
        },
        {
          "internalType": "uint256",
          "name": "",
          "type": "uint256"
        }
      ],
      "payable": false,
      "stateMutability": "view",
      "type": "function"
    }
  ],
  "bytecode": "0x60806040523480156200001157600080fd5b506040516200361538038062003615833981810160405260408110156200003757600080fd5b81019080805160405193929190846401000000008211156200005857600080fd5b838201915060208201858111156200006f57600080fd5b82518660208202830111640100000000821117156200008d57600080fd5b8083526020830192505050908051906020019060200280838360005b83811015620000c6578082015181840152602081019050620000a9565b505050509050016040526020018051906020019092919050505081620000f2816200013c60201b60201c565b5080600660006101000a81548173ffffffffffffffffffffffffffffffffffffffff021916908373ffffffffffffffffffffffffffffffffffffffff1602179055505050620004c7565b60006001905060008090505b82518110156200043c5760008382815181106200016157fe5b60200260200101519050600073ffffffffffffffffffffffffffffffffffffffff168173ffffffffffffffffffffffffffffffffffffffff1614158015620001d65750600173ffffffffffffffffffffffffffffffffffffffff168173ffffffffffffffffffffffffffffffffffffffff1614155b62000249576040517f08c379a000000000000000000000000000000000000000000000000000000000815260040180806020018281038252601e8152602001807f496e76616c6964206f776e657220616464726573732070726f7669646564000081525060200191505060405180910390fd5b600073ffffffffffffffffffffffffffffffffffffffff166000808373ffffffffffffffffffffffffffffffffffffffff1673ffffffffffffffffffffffffffffffffffffffff16815260200190815260200160002060009054906101000a900473ffffffffffffffffffffffffffffffffffffffff1673ffffffffffffffffffffffffffffffffffffffff16146200034a576040517f08c379a00000000000000000000000000000000000000000000000000000000081526004018080602001828103825260208152602001807f4475706c6963617465206f776e657220616464726573732070726f766964656481525060200191505060405180910390fd5b806000808573ffffffffffffffffffffffffffffffffffffffff1673ffffffffffffffffffffffffffffffffffffffff16815260200190815260200160002060006101000a81548173ffffffffffffffffffffffffffffffffffffffff021916908373ffffffffffffffffffffffffffffffffffffffff1602179055508092507f9465fa0c962cc76958e6373a993326400c1c94f8be2fe3a952adfa7f60b2ea2681604051808273ffffffffffffffffffffffffffffffffffffffff1673ffffffffffffffffffffffffffffffffffffffff16815260200191505060405180910390a150808060010191505062000148565b5060016000808373ffffffffffffffffffffffffffffffffffffffff1673ffffffffffffffffffffffffffffffffffffffff16815260200190815260200160002060006101000a81548173ffffffffffffffffffffffffffffffffffffffff021916908373ffffffffffffffffffffffffffffffffffffffff16021790555081516001819055505050565b61313e80620004d76000396000f3fe608060405234801561001057600080fd5b50600436106101735760003560e01c80637b50b1af116100de578063b8a81f9a11610097578063e3077d9b11610071578063e3077d9b14610954578063e318b52b146109b3578063e4288a7814610a37578063fbe5ce0a14610a9d57610173565b8063b8a81f9a14610866578063c7b75307146108c2578063d00403821461091057610173565b80637b50b1af146106a9578063807df2b314610705578063825ea758146107495780638dc47f3b146107775780638fb66365146107c5578063a0e67e2b1461080757610173565b80634e53d09d116101305780634e53d09d146104af5780635223c7901461051d57806358c039cd146105635780636418741d146105f55780637065cb4814610623578063798da56b1461066757610173565b80630a5336c6146101785780631d17390a146101c257806324a448921461020c5780632f54bf6e146102e2578063307eb6621461033e5780634892c56c1461046b575b600080fd5b610180610b01565b604051808273ffffffffffffffffffffffffffffffffffffffff1673ffffffffffffffffffffffffffffffffffffffff16815260200191505060405180910390f35b6101ca610b27565b604051808273ffffffffffffffffffffffffffffffffffffffff1673ffffffffffffffffffffffffffffffffffffffff16815260200191505060405180910390f35b6102cc6004803603604081101561022257600080fd5b810190808035906020019064010000000081111561023f57600080fd5b82018360208201111561025157600080fd5b8035906020019184602083028401116401000000008311171561027357600080fd5b919080806020026020016040519081016040528093929190818152602001838360200280828437600081840152601f19601f82011690508083019250505050505050919291929080359060200190929190505050610b4d565b6040518082815260200191505060405180910390f35b610324600480360360208110156102f857600080fd5b81019080803573ffffffffffffffffffffffffffffffffffffffff169060200190929190505050610bc7565b604051808215151515815260200191505060405180910390f35b610429600480360360c081101561035457600080fd5b81019080803590602001909291908035906020019064010000000081111561037b57600080fd5b82018360208201111561038d57600080fd5b803590602001918460208302840111640100000000831117156103af57600080fd5b919080806020026020016040519081016040528093929190818152602001838360200280828437600081840152601f19601f82011690508083019250505050505050919291929080359060200190929190803560ff1690602001909291908035906020019092919080359060200190929190505050610c98565b604051808273ffffffffffffffffffffffffffffffffffffffff1673ffffffffffffffffffffffffffffffffffffffff16815260200191505060405180910390f35b6104ad6004803603602081101561048157600080fd5b81019080803573ffffffffffffffffffffffffffffffffffffffff169060200190929190505050610e4e565b005b6104f1600480360360208110156104c557600080fd5b81019080803573ffffffffffffffffffffffffffffffffffffffff169060200190929190505050610f4d565b604051808415151515815260200183151515158152602001828152602001935050505060405180910390f35b6105496004803603602081101561053357600080fd5b8101908080359060200190929190505050611042565b604051808215151515815260200191505060405180910390f35b61058f6004803603602081101561057957600080fd5b81019080803590602001909291905050506110ff565b6040518086151515158152602001851515151581526020018473ffffffffffffffffffffffffffffffffffffffff1673ffffffffffffffffffffffffffffffffffffffff1681526020018381526020018281526020019550505050505060405180910390f35b6106216004803603602081101561060b57600080fd5b81019080803590602001909291905050506111c7565b005b6106656004803603602081101561063957600080fd5b81019080803573ffffffffffffffffffffffffffffffffffffffff169060200190929190505050611312565b005b6106a76004803603606081101561067d57600080fd5b8101908080359060200190929190803590602001909291908035906020019092919050505061171e565b005b6106eb600480360360208110156106bf57600080fd5b81019080803573ffffffffffffffffffffffffffffffffffffffff1690602001909291905050506119e1565b604051808215151515815260200191505060405180910390f35b6107476004803603602081101561071b57600080fd5b81019080803573ffffffffffffffffffffffffffffffffffffffff169060200190929190505050611a01565b005b6107756004803603602081101561075f57600080fd5b8101908080359060200190929190505050611aa3565b005b6107c36004803603604081101561078d57600080fd5b8101908080359060200190929190803573ffffffffffffffffffffffffffffffffffffffff169060200190929190505050611b60565b005b610805600480360360608110156107db57600080fd5b81019080803590602001909291908035906020019092919080359060200190929190505050611d2f565b005b61080f611e65565b6040518080602001828103825283818151815260200191508051906020019060200280838360005b83811015610852578082015181840152602081019050610837565b505050509050019250505060405180910390f35b6108a86004803603602081101561087c57600080fd5b81019080803573ffffffffffffffffffffffffffffffffffffffff169060200190929190505050611ff8565b604051808215151515815260200191505060405180910390f35b61090e600480360360408110156108d857600080fd5b81019080803573ffffffffffffffffffffffffffffffffffffffff16906020019092919080359060200190929190505050612052565b005b6109526004803603602081101561092657600080fd5b81019080803573ffffffffffffffffffffffffffffffffffffffff169060200190929190505050612102565b005b6109806004803603602081101561096a57600080fd5b81019080803590602001909291905050506121a4565b60405180851515151581526020018415151515815260200183815260200182815260200194505050505060405180910390f35b610a35600480360360608110156109c957600080fd5b81019080803573ffffffffffffffffffffffffffffffffffffffff169060200190929190803573ffffffffffffffffffffffffffffffffffffffff169060200190929190803573ffffffffffffffffffffffffffffffffffffffff16906020019092919050505061222f565b005b610a8360048036036040811015610a4d57600080fd5b81019080803573ffffffffffffffffffffffffffffffffffffffff169060200190929190803590602001909291905050506128c8565b604051808215151515815260200191505060405180910390f35b610aff60048036036040811015610ab357600080fd5b81019080803573ffffffffffffffffffffffffffffffffffffffff169060200190929190803573ffffffffffffffffffffffffffffffffffffffff169060200190929190505050612934565b005b600760009054906101000a900473ffffffffffffffffffffffffffffffffffffffff1681565b600660009054906101000a900473ffffffffffffffffffffffffffffffffffffffff1681565b600082826040516020018080602001838152602001828103825284818151815260200191508051906020019060200280838360005b83811015610b9d578082015181840152602081019050610b82565b50505050905001935050505060405160208183030381529060405280519060200120905092915050565b6000600173ffffffffffffffffffffffffffffffffffffffff168273ffffffffffffffffffffffffffffffffffffffff1614158015610c915750600073ffffffffffffffffffffffffffffffffffffffff166000808473ffffffffffffffffffffffffffffffffffffffff1673ffffffffffffffffffffffffffffffffffffffff16815260200190815260200160002060009054906101000a900473ffffffffffffffffffffffffffffffffffffffff1673ffffffffffffffffffffffffffffffffffffffff1614155b9050919050565b600080610ca58787610b4d565b9050600060018287878760405160008152602001604052604051808581526020018460ff1660ff1681526020018381526020018281526020019450505050506020604051602081039080840390855afa158015610d06573d6000803e3d6000fd5b505050602060405103519050600460008273ffffffffffffffffffffffffffffffffffffffff1673ffffffffffffffffffffffffffffffffffffffff16815260200190815260200160002060000160009054906101000a900460ff16610d7157600092505050610e44565b600460008273ffffffffffffffffffffffffffffffffffffffff1673ffffffffffffffffffffffffffffffffffffffff16815260200190815260200160002060000160019054906101000a900460ff1615610dd157600092505050610e44565b88600460008373ffffffffffffffffffffffffffffffffffffffff1673ffffffffffffffffffffffffffffffffffffffff1681526020019081526020016000206001015414610e2557600092505050610e44565b610e2f81886128c8565b610e3e57600092505050610e44565b80925050505b9695505050505050565b610e5733610bc7565b610eac576040517f08c379a000000000000000000000000000000000000000000000000000000000815260040180806020018281038252602281526020018061309c6022913960400191505060405180910390fd5b6001600460008373ffffffffffffffffffffffffffffffffffffffff1673ffffffffffffffffffffffffffffffffffffffff16815260200190815260200160002060000160016101000a81548160ff0219169083151502179055508073ffffffffffffffffffffffffffffffffffffffff167fafbb4aa0f013cf60d928c38db1e3425d09ca11fdcd41516eee577abcef7cd2a460405160405180910390a250565b6000806000600460008573ffffffffffffffffffffffffffffffffffffffff1673ffffffffffffffffffffffffffffffffffffffff16815260200190815260200160002060000160009054906101000a900460ff16600460008673ffffffffffffffffffffffffffffffffffffffff1673ffffffffffffffffffffffffffffffffffffffff16815260200190815260200160002060000160019054906101000a900460ff16600460008773ffffffffffffffffffffffffffffffffffffffff1673ffffffffffffffffffffffffffffffffffffffff168152602001908152602001600020600101549250925092509193909250565b60006002600083815260200190815260200160002060000160009054906101000a900460ff1661107557600090506110fa565b6002600083815260200190815260200160002060000160019054906101000a900460ff16156110a757600090506110fa565b42600260008481526020019081526020016000206001015411156110ce57600090506110fa565b42600260008481526020019081526020016000206002015410156110f557600090506110fa565b600190505b919050565b60008060008060006003600087815260200190815260200160002060000160009054906101000a900460ff166003600088815260200190815260200160002060000160019054906101000a900460ff166003600089815260200190815260200160002060000160029054906101000a900473ffffffffffffffffffffffffffffffffffffffff16600360008a815260200190815260200160002060010154600360008b8152602001908152602001600020600201549450945094509450945091939590929450565b6111d033610bc7565b611225576040517f08c379a000000000000000000000000000000000000000000000000000000000815260040180806020018281038252602281526020018061309c6022913960400191505060405180910390fd5b60016003600083815260200190815260200160002060000160016101000a81548160ff0219169083151502179055506000600560006003600085815260200190815260200160002060000160029054906101000a900473ffffffffffffffffffffffffffffffffffffffff1673ffffffffffffffffffffffffffffffffffffffff1673ffffffffffffffffffffffffffffffffffffffff16815260200190815260200160002060006101000a81548160ff021916908315150217905550807fa7609dc65daa4aef2b5398974fc443f78f8f44703963fccde2f3e508b57994ed60405160405180910390a250565b61131b33610bc7565b611370576040517f08c379a000000000000000000000000000000000000000000000000000000000815260040180806020018281038252602281526020018061309c6022913960400191505060405180910390fd5b600073ffffffffffffffffffffffffffffffffffffffff168173ffffffffffffffffffffffffffffffffffffffff16141580156113da5750600173ffffffffffffffffffffffffffffffffffffffff168173ffffffffffffffffffffffffffffffffffffffff1614155b61144c576040517f08c379a000000000000000000000000000000000000000000000000000000000815260040180806020018281038252601e8152602001807f496e76616c6964206f776e657220616464726573732070726f7669646564000081525060200191505060405180910390fd5b600073ffffffffffffffffffffffffffffffffffffffff166000808373ffffffffffffffffffffffffffffffffffffffff1673ffffffffffffffffffffffffffffffffffffffff16815260200190815260200160002060009054906101000a900473ffffffffffffffffffffffffffffffffffffffff1673ffffffffffffffffffffffffffffffffffffffff161461154c576040517f08c379a000000000000000000000000000000000000000000000000000000000815260040180806020018281038252601b8152602001807f4164647265737320697320616c726561647920616e206f776e6572000000000081525060200191505060405180910390fd5b600080600173ffffffffffffffffffffffffffffffffffffffff1673ffffffffffffffffffffffffffffffffffffffff16815260200190815260200160002060009054906101000a900473ffffffffffffffffffffffffffffffffffffffff166000808373ffffffffffffffffffffffffffffffffffffffff1673ffffffffffffffffffffffffffffffffffffffff16815260200190815260200160002060006101000a81548173ffffffffffffffffffffffffffffffffffffffff021916908373ffffffffffffffffffffffffffffffffffffffff16021790555080600080600173ffffffffffffffffffffffffffffffffffffffff1673ffffffffffffffffffffffffffffffffffffffff16815260200190815260200160002060006101000a81548173ffffffffffffffffffffffffffffffffffffffff021916908373ffffffffffffffffffffffffffffffffffffffff1602179055506001600081548092919060010191905055507f9465fa0c962cc76958e6373a993326400c1c94f8be2fe3a952adfa7f60b2ea2681604051808273ffffffffffffffffffffffffffffffffffffffff1673ffffffffffffffffffffffffffffffffffffffff16815260200191505060405180910390a150565b61172733610bc7565b61177c576040517f08c379a000000000000000000000000000000000000000000000000000000000815260040180806020018281038252602281526020018061309c6022913960400191505060405180910390fd5b6002600082815260200190815260200160002060000160009054906101000a900460ff166117a957600080fd5b6003600084815260200190815260200160002060000160009054906101000a900460ff16156117d757600080fd5b6060632fa97de730858585604051602401808573ffffffffffffffffffffffffffffffffffffffff1673ffffffffffffffffffffffffffffffffffffffff1681526020018481526020018381526020018281526020019450505050506040516020818303038152906040529060e01b6020820180517bffffffffffffffffffffffffffffffffffffffffffffffffffffffff83818316178352505050509050600061188182612d23565b90506001600560008373ffffffffffffffffffffffffffffffffffffffff1673ffffffffffffffffffffffffffffffffffffffff16815260200190815260200160002060006101000a81548160ff02191690831515021790555060016003600087815260200190815260200160002060000160006101000a81548160ff021916908315150217905550826003600087815260200190815260200160002060010181905550806003600087815260200190815260200160002060000160026101000a81548173ffffffffffffffffffffffffffffffffffffffff021916908373ffffffffffffffffffffffffffffffffffffffff1602179055508360036000878152602001908152602001600020600201819055508073ffffffffffffffffffffffffffffffffffffffff1683867fb370cad5e23aaf054a0abd15ae3794b1a99ecf72dd0642cb0db1474a679eafcb60405160405180910390a45050505050565b60056020528060005260406000206000915054906101000a900460ff1681565b611a0a33610bc7565b611a5f576040517f08c379a000000000000000000000000000000000000000000000000000000000815260040180806020018281038252602281526020018061309c6022913960400191505060405180910390fd5b80600760006101000a81548173ffffffffffffffffffffffffffffffffffffffff021916908373ffffffffffffffffffffffffffffffffffffffff16021790555050565b611aac33610bc7565b611b01576040517f08c379a000000000000000000000000000000000000000000000000000000000815260040180806020018281038252602281526020018061309c6022913960400191505060405180910390fd5b60016002600083815260200190815260200160002060000160016101000a81548160ff021916908315150217905550807f6b7ca7d367bb287c2641eecf063be04b9c10b283dc77970ae7f9c7cedf14a02e60405160405180910390a250565b611b6933610bc7565b611bbe576040517f08c379a000000000000000000000000000000000000000000000000000000000815260040180806020018281038252602281526020018061309c6022913960400191505060405180910390fd5b6002600083815260200190815260200160002060000160009054906101000a900460ff16611beb57600080fd5b600460008273ffffffffffffffffffffffffffffffffffffffff1673ffffffffffffffffffffffffffffffffffffffff16815260200190815260200160002060000160009054906101000a900460ff1615611c4557600080fd5b6001600460008373ffffffffffffffffffffffffffffffffffffffff1673ffffffffffffffffffffffffffffffffffffffff16815260200190815260200160002060000160006101000a81548160ff02191690831515021790555081600460008373ffffffffffffffffffffffffffffffffffffffff1673ffffffffffffffffffffffffffffffffffffffff168152602001908152602001600020600101819055508073ffffffffffffffffffffffffffffffffffffffff16827fb19d4fd999959d9d0075148221b684d4ebf7e97d11e7ea9af2af2026783489f760405160405180910390a35050565b611d3833610bc7565b611d8d576040517f08c379a000000000000000000000000000000000000000000000000000000000815260040180806020018281038252602281526020018061309c6022913960400191505060405180910390fd5b6002600084815260200190815260200160002060000160009054906101000a900460ff1615611dbb57600080fd5b60016002600085815260200190815260200160002060000160006101000a81548160ff021916908315150217905550816002600085815260200190815260200160002060010181905550806002600085815260200190815260200160002060020181905550827f890f4e89c76488160aacf9a41549a0e1bc74be23625284e4b75d98924189e2198383604051808381526020018281526020019250505060405180910390a2505050565b606080600154604051908082528060200260200182016040528015611e995781602001602082028038833980820191505090505b50905060008090506000806000600173ffffffffffffffffffffffffffffffffffffffff1673ffffffffffffffffffffffffffffffffffffffff16815260200190815260200160002060009054906101000a900473ffffffffffffffffffffffffffffffffffffffff1690505b600173ffffffffffffffffffffffffffffffffffffffff168173ffffffffffffffffffffffffffffffffffffffff1614611fef5780838381518110611f4757fe5b602002602001019073ffffffffffffffffffffffffffffffffffffffff16908173ffffffffffffffffffffffffffffffffffffffff16815250506000808273ffffffffffffffffffffffffffffffffffffffff1673ffffffffffffffffffffffffffffffffffffffff16815260200190815260200160002060009054906101000a900473ffffffffffffffffffffffffffffffffffffffff1690508180600101925050611f06565b82935050505090565b6000600760009054906101000a900473ffffffffffffffffffffffffffffffffffffffff1673ffffffffffffffffffffffffffffffffffffffff168273ffffffffffffffffffffffffffffffffffffffff16149050919050565b600560003373ffffffffffffffffffffffffffffffffffffffff1673ffffffffffffffffffffffffffffffffffffffff16815260200190815260200160002060009054906101000a900460ff166120f4576040517f08c379a00000000000000000000000000000000000000000000000000000000081526004018080602001828103825260268152602001806130be6026913960400191505060405180910390fd5b6120fe8282612e37565b5050565b61210b33610bc7565b612160576040517f08c379a000000000000000000000000000000000000000000000000000000000815260040180806020018281038252602281526020018061309c6022913960400191505060405180910390fd5b80600660006101000a81548173ffffffffffffffffffffffffffffffffffffffff021916908373ffffffffffffffffffffffffffffffffffffffff16021790555050565b6000806000806002600086815260200190815260200160002060000160009054906101000a900460ff166002600087815260200190815260200160002060000160019054906101000a900460ff166002600088815260200190815260200160002060010154600260008981526020019081526020016000206002015493509350935093509193509193565b61223833610bc7565b61228d576040517f08c379a000000000000000000000000000000000000000000000000000000000815260040180806020018281038252602281526020018061309c6022913960400191505060405180910390fd5b600073ffffffffffffffffffffffffffffffffffffffff168173ffffffffffffffffffffffffffffffffffffffff16141580156122f75750600173ffffffffffffffffffffffffffffffffffffffff168173ffffffffffffffffffffffffffffffffffffffff1614155b612369576040517f08c379a000000000000000000000000000000000000000000000000000000000815260040180806020018281038252601e8152602001807f496e76616c6964206f776e657220616464726573732070726f7669646564000081525060200191505060405180910390fd5b600073ffffffffffffffffffffffffffffffffffffffff166000808373ffffffffffffffffffffffffffffffffffffffff1673ffffffffffffffffffffffffffffffffffffffff16815260200190815260200160002060009054906101000a900473ffffffffffffffffffffffffffffffffffffffff1673ffffffffffffffffffffffffffffffffffffffff1614612469576040517f08c379a000000000000000000000000000000000000000000000000000000000815260040180806020018281038252601b8152602001807f4164647265737320697320616c726561647920616e206f776e6572000000000081525060200191505060405180910390fd5b600073ffffffffffffffffffffffffffffffffffffffff168273ffffffffffffffffffffffffffffffffffffffff16141580156124d35750600173ffffffffffffffffffffffffffffffffffffffff168273ffffffffffffffffffffffffffffffffffffffff1614155b612545576040517f08c379a000000000000000000000000000000000000000000000000000000000815260040180806020018281038252601e8152602001807f496e76616c6964206f776e657220616464726573732070726f7669646564000081525060200191505060405180910390fd5b8173ffffffffffffffffffffffffffffffffffffffff166000808573ffffffffffffffffffffffffffffffffffffffff1673ffffffffffffffffffffffffffffffffffffffff16815260200190815260200160002060009054906101000a900473ffffffffffffffffffffffffffffffffffffffff1673ffffffffffffffffffffffffffffffffffffffff1614612627576040517f08c379a00000000000000000000000000000000000000000000000000000000081526004018080602001828103825260268152602001806130e46026913960400191505060405180910390fd5b6000808373ffffffffffffffffffffffffffffffffffffffff1673ffffffffffffffffffffffffffffffffffffffff16815260200190815260200160002060009054906101000a900473ffffffffffffffffffffffffffffffffffffffff166000808373ffffffffffffffffffffffffffffffffffffffff1673ffffffffffffffffffffffffffffffffffffffff16815260200190815260200160002060006101000a81548173ffffffffffffffffffffffffffffffffffffffff021916908373ffffffffffffffffffffffffffffffffffffffff160217905550806000808573ffffffffffffffffffffffffffffffffffffffff1673ffffffffffffffffffffffffffffffffffffffff16815260200190815260200160002060006101000a81548173ffffffffffffffffffffffffffffffffffffffff021916908373ffffffffffffffffffffffffffffffffffffffff16021790555060008060008473ffffffffffffffffffffffffffffffffffffffff1673ffffffffffffffffffffffffffffffffffffffff16815260200190815260200160002060006101000a81548173ffffffffffffffffffffffffffffffffffffffff021916908373ffffffffffffffffffffffffffffffffffffffff1602179055507ff8d49fc529812e9a7c5c50e69c20f0dccc0db8fa95c98bc58cc9a4f1c1299eaf82604051808273ffffffffffffffffffffffffffffffffffffffff1673ffffffffffffffffffffffffffffffffffffffff16815260200191505060405180910390a17f9465fa0c962cc76958e6373a993326400c1c94f8be2fe3a952adfa7f60b2ea2681604051808273ffffffffffffffffffffffffffffffffffffffff1673ffffffffffffffffffffffffffffffffffffffff16815260200191505060405180910390a1505050565b6000600460008473ffffffffffffffffffffffffffffffffffffffff1673ffffffffffffffffffffffffffffffffffffffff168152602001908152602001600020600201600083815260200190815260200160002060009054906101000a900460ff1615905092915050565b61293d33610bc7565b612992576040517f08c379a000000000000000000000000000000000000000000000000000000000815260040180806020018281038252602281526020018061309c6022913960400191505060405180910390fd5b600073ffffffffffffffffffffffffffffffffffffffff168173ffffffffffffffffffffffffffffffffffffffff16141580156129fc5750600173ffffffffffffffffffffffffffffffffffffffff168173ffffffffffffffffffffffffffffffffffffffff1614155b612a6e576040517f08c379a000000000000000000000000000000000000000000000000000000000815260040180806020018281038252601e8152602001807f496e76616c6964206f776e657220616464726573732070726f7669646564000081525060200191505060405180910390fd5b8073ffffffffffffffffffffffffffffffffffffffff166000808473ffffffffffffffffffffffffffffffffffffffff1673ffffffffffffffffffffffffffffffffffffffff16815260200190815260200160002060009054906101000a900473ffffffffffffffffffffffffffffffffffffffff1673ffffffffffffffffffffffffffffffffffffffff1614612b50576040517f08c379a00000000000000000000000000000000000000000000000000000000081526004018080602001828103825260268152602001806130e46026913960400191505060405180910390fd5b6000808273ffffffffffffffffffffffffffffffffffffffff1673ffffffffffffffffffffffffffffffffffffffff16815260200190815260200160002060009054906101000a900473ffffffffffffffffffffffffffffffffffffffff166000808473ffffffffffffffffffffffffffffffffffffffff1673ffffffffffffffffffffffffffffffffffffffff16815260200190815260200160002060006101000a81548173ffffffffffffffffffffffffffffffffffffffff021916908373ffffffffffffffffffffffffffffffffffffffff16021790555060008060008373ffffffffffffffffffffffffffffffffffffffff1673ffffffffffffffffffffffffffffffffffffffff16815260200190815260200160002060006101000a81548173ffffffffffffffffffffffffffffffffffffffff021916908373ffffffffffffffffffffffffffffffffffffffff160217905550600160008154809291906001900391905055507ff8d49fc529812e9a7c5c50e69c20f0dccc0db8fa95c98bc58cc9a4f1c1299eaf81604051808273ffffffffffffffffffffffffffffffffffffffff1673ffffffffffffffffffffffffffffffffffffffff16815260200191505060405180910390a15050565b6000600660009054906101000a900473ffffffffffffffffffffffffffffffffffffffff16604051612d5490612ea7565b808273ffffffffffffffffffffffffffffffffffffffff1673ffffffffffffffffffffffffffffffffffffffff168152602001915050604051809103906000f080158015612da6573d6000803e3d6000fd5b509050600082511115612dcf5760008060008451602086016000865af11415612dce57600080fd5b5b7fa38789425dbeee0239e16ff2d2567e31720127fbc6430758c1a4efc6aef29f8081604051808273ffffffffffffffffffffffffffffffffffffffff1673ffffffffffffffffffffffffffffffffffffffff16815260200191505060405180910390a1919050565b6001600460008473ffffffffffffffffffffffffffffffffffffffff1673ffffffffffffffffffffffffffffffffffffffff168152602001908152602001600020600201600083815260200190815260200160002060006101000a81548160ff0219169083151502179055505050565b6101e780612eb58339019056fe608060405234801561001057600080fd5b506040516101e73803806101e78339818101604052602081101561003357600080fd5b8101908080519060200190929190505050600073ffffffffffffffffffffffffffffffffffffffff168173ffffffffffffffffffffffffffffffffffffffff1614156100ca576040517f08c379a00000000000000000000000000000000000000000000000000000000081526004018080602001828103825260248152602001806101c36024913960400191505060405180910390fd5b806000806101000a81548173ffffffffffffffffffffffffffffffffffffffff021916908373ffffffffffffffffffffffffffffffffffffffff1602179055505060aa806101196000396000f3fe608060405273ffffffffffffffffffffffffffffffffffffffff600054167fa619486e0000000000000000000000000000000000000000000000000000000060003514156050578060005260206000f35b3660008037600080366000845af43d6000803e60008114156070573d6000fd5b3d6000f3fea265627a7a723158203039c0d4caf2e00bba0ad3894272bc150fb47d3f123984428a2dbfbf4b1f8df764736f6c634300050c0032496e76616c6964206d617374657220636f707920616464726573732070726f76696465644d6574686f642063616e206f6e6c792062652063616c6c6564206279206f776e65724d6574686f642063616e206f6e6c792062652063616c6c6564206279207175657374696f6e73496e76616c696420707265764f776e65722c206f776e657220706169722070726f7669646564a265627a7a7231582054930dba3cb095b459cbf558155ed7a8b449c738ee5ce635e1c41f32022f995a64736f6c634300050c0032",
  "source": "pragma solidity ^0.5.0;\n\nimport \"openzeppelin-solidity/contracts/math/SafeMath.sol\";\n\nimport './Admin.sol';\nimport './Question.sol';\nimport \"./Proxy.sol\";\n\ncontract Culturestake is Admin {\n  using SafeMath for uint256;\n\n  mapping (bytes32 => Festival) festivals;\n  mapping (bytes32 => QuestionStruct) questions;\n  mapping (address => VotingBooth) votingBooths;\n  mapping (address => bool) public questionsByAddress;\n  address public questionMasterCopy;\n  address public voteRelayer;\n\n  struct VotingBooth {\n    bool inited;\n    bool deactivated;\n    bytes32 festival;\n    mapping (uint256 => bool) nonces;\n  }\n\n  struct Festival {\n    bool inited;\n    bool deactivated;\n    uint256 startTime;\n    uint256 endTime;\n  }\n\n  struct QuestionStruct {\n    bool inited;\n    bool deactivated;\n    address contractAddress;\n    bytes32 festival;\n    uint256 maxVoteTokens;\n  }\n\n  event InitQuestion(bytes32 indexed question, bytes32 indexed festival, address indexed questionAddress);\n  event InitFestival(bytes32 indexed festival, uint256 startTime, uint256 endTime);\n  event InitVotingBooth(bytes32 indexed festival, address indexed boothAddress);\n\n  event DeactivateQuestion(bytes32 indexed question);\n  event DeactivateFestival(bytes32 indexed festival);\n  event DeactivateVotingBooth(address indexed boothAddress);\n\n  event ProxyCreation(Proxy proxy);\n\n  modifier onlyQuestions() {\n      require(questionsByAddress[msg.sender], \"Method can only be called by questions\");\n      _;\n  }\n\n  constructor(address[] memory _owners, address _questionMasterCopy) public Admin(_owners) {\n    questionMasterCopy = _questionMasterCopy;\n  }\n\n  function setQuestionMasterCopy(address _newQuestionMasterCopy) public authorized {\n    questionMasterCopy = _newQuestionMasterCopy;\n  }\n\n  function setVoteRelayer(address _newVoteRelayer) public authorized {\n    voteRelayer = _newVoteRelayer;\n  }\n\n  function isVoteRelayer(address _sender) public view returns (bool) {\n    return _sender == voteRelayer;\n  }\n\n  function isActiveFestival(bytes32 _festival) public view returns (bool) {\n    // case festival has not been inited\n    if (!festivals[_festival].inited) return false;\n    // case festival has been manually deactivated\n    if (festivals[_festival].deactivated) return false;\n    // case festival hasn't started\n    if (festivals[_festival].startTime > block.timestamp) return false;\n    // case festival has ended\n    if (festivals[_festival].endTime < block.timestamp) return false;\n    return true;\n  }\n\n  function checkBoothSignature(\n    bytes32 _festival,\n    bytes32[] memory _answers,\n    uint256 _nonce,\n    uint8 sigV,\n    bytes32 sigR,\n    bytes32 sigS\n  ) public view returns (address) {\n      bytes32 h = getHash(_answers, _nonce);\n      address addressFromSig = ecrecover(h, sigV, sigR, sigS);\n      // case is not a booth\n      if (!votingBooths[addressFromSig].inited) return address(0);\n      // case was manually deactivated\n      if (votingBooths[addressFromSig].deactivated) return address(0);\n      // case is from the wrong festival\n      if (!(votingBooths[addressFromSig].festival == _festival)) return address(0);\n      // case nonce has been used\n      if (!isValidVotingNonce(addressFromSig, _nonce)) return address(0);\n      return addressFromSig;\n  }\n\n  function getHash(\n    bytes32[] memory _answers,\n    uint256 _nonce\n  ) public view returns (bytes32) {\n    return keccak256(abi.encode(_answers, _nonce));\n  }\n\n  function _burnNonce(address _booth, uint256 _nonce) internal {\n    votingBooths[_booth].nonces[_nonce] = true;\n  }\n\n  function burnNonce(address _booth, uint256 _nonce) public onlyQuestions {\n    _burnNonce(_booth, _nonce);\n  }\n\n  function initVotingBooth(\n    bytes32 _festival,\n    address _booth\n  ) public authorized {\n      require(festivals[_festival].inited);\n      require(!votingBooths[_booth].inited);\n      votingBooths[_booth].inited = true;\n      votingBooths[_booth].festival = _festival;\n      emit InitVotingBooth(_festival, _booth);\n  }\n\n  function deactivateVotingBooth(address _booth) public authorized {\n    votingBooths[_booth].deactivated = true;\n    emit DeactivateVotingBooth(_booth);\n  }\n\n  function getVotingBooth(address _booth) public view returns (bool, bool, bytes32) {\n    return (votingBooths[_booth].inited, votingBooths[_booth].deactivated, votingBooths[_booth].festival);\n  }\n\n  function isValidVotingNonce(address _booth, uint256 _nonce) public view returns (bool) {\n    return (!votingBooths[_booth].nonces[_nonce]);\n  }\n\n  function initFestival(\n    bytes32 _festival,\n    uint256 _startTime,\n    uint256 _endTime\n  ) public authorized {\n    require(!festivals[_festival].inited);\n    festivals[_festival].inited = true;\n    festivals[_festival].startTime = _startTime;\n    festivals[_festival].endTime = _endTime;\n    emit InitFestival(_festival, _startTime, _endTime);\n  }\n\n  function deactivateFestival(bytes32 _festival) public authorized {\n    festivals[_festival].deactivated = true;\n    emit DeactivateFestival(_festival);\n  }\n\n  function getFestival(bytes32 _festival) public view returns (bool, bool, uint256, uint256) {\n    return (\n      festivals[_festival].inited,\n      festivals[_festival].deactivated,\n      festivals[_festival].startTime,\n      festivals[_festival].endTime\n    );\n  }\n\n  function deactivateQuestion(bytes32 _question) public authorized {\n    questions[_question].deactivated = true;\n    questionsByAddress[questions[_question].contractAddress] = false;\n    emit DeactivateQuestion(_question);\n  }\n\n  function initQuestion(\n    bytes32 _question,\n    uint256 _maxVoteTokens,\n    bytes32 _festival\n  ) public authorized {\n    require(festivals[_festival].inited);\n    require(!questions[_question].inited);\n\n    bytes memory data = abi.encodeWithSelector(\n      0x2fa97de7, address(this), _question, _maxVoteTokens, _festival\n    );\n\n    Proxy questionContract = createProxy(data);\n    questionsByAddress[address(questionContract)] = true;\n\n    questions[_question].inited = true;\n    questions[_question].festival = _festival;\n    questions[_question].contractAddress = address(questionContract);\n    questions[_question].maxVoteTokens = _maxVoteTokens;\n\n    emit InitQuestion(_question, _festival, address(questionContract));\n  }\n\n  /// @dev Allows to create new proxy contact and execute a message call to the new proxy within one transaction.\n  /// @param data Payload for message call sent to new proxy contract.\n  function createProxy(bytes memory data)\n      internal\n      returns (Proxy proxy)\n  {\n      proxy = new Proxy(questionMasterCopy);\n      if (data.length > 0)\n          // solium-disable-next-line security/no-inline-assembly\n          assembly {\n              if eq(call(gas, proxy, 0, add(data, 0x20), mload(data), 0, 0), 0) { revert(0, 0) }\n          }\n      emit ProxyCreation(proxy);\n  }\n\n  function getQuestion(bytes32 _question) public view returns (bool, bool, address, bytes32, uint256) {\n    return (\n      questions[_question].inited,\n      questions[_question].deactivated,\n      questions[_question].contractAddress,\n      questions[_question].festival,\n      questions[_question].maxVoteTokens\n    );\n  }\n}",
  "sourcePath": "/media/000/Documents/culturestake/culturestake-contracts/contracts/Culturestake.sol",
  "compiler": {
    "name": "solc",
    "version": "0.5.12+commit.7709ece9.Emscripten.clang"
  },
  "schemaVersion": "3.0.20",
  "updatedAt": "2020-08-07T18:35:07.509Z",
  "devdoc": {
    "methods": {}
  },
  "userdoc": {
    "methods": {}
  }
}