{
  "contractName": "Question",
  "abi": [
    {
      "inputs": [
        {
          "internalType": "uint256",
          "name": "_maxVoteTokens",
          "type": "uint256"
        },
        {
          "internalType": "bytes32",
          "name": "_festival",
          "type": "bytes32"
        }
      ],
      "payable": false,
      "stateMutability": "nonpayable",
      "type": "constructor"
    },
    {
      "anonymous": false,
      "inputs": [
        {
          "indexed": true,
          "internalType": "bytes32",
          "name": "answer",
          "type": "bytes32"
        }
      ],
      "name": "DeactivateAnswer",
      "type": "event"
    },
    {
      "anonymous": false,
      "inputs": [
        {
          "indexed": true,
          "internalType": "bytes32",
          "name": "answer",
          "type": "bytes32"
        }
      ],
      "name": "InitAnswer",
      "type": "event"
    },
    {
      "anonymous": false,
      "inputs": [
        {
          "indexed": true,
          "internalType": "bytes32",
          "name": "answer",
          "type": "bytes32"
        },
        {
          "indexed": false,
          "internalType": "uint256",
          "name": "voteTokens",
          "type": "uint256"
        },
        {
          "indexed": false,
          "internalType": "uint256",
          "name": "votePower",
          "type": "uint256"
        },
        {
          "indexed": false,
          "internalType": "uint256",
          "name": "votes",
          "type": "uint256"
        },
        {
          "indexed": false,
          "internalType": "address",
          "name": "booth",
          "type": "address"
        },
        {
          "indexed": false,
          "internalType": "uint256",
          "name": "nonce",
          "type": "uint256"
        }
      ],
      "name": "Vote",
      "type": "event"
    },
    {
      "constant": true,
      "inputs": [],
      "name": "admin",
      "outputs": [
        {
          "internalType": "address",
          "name": "",
          "type": "address"
        }
      ],
      "payable": false,
      "stateMutability": "view",
      "type": "function"
    },
    {
      "constant": true,
      "inputs": [],
      "name": "festival",
      "outputs": [
        {
          "internalType": "bytes32",
          "name": "",
          "type": "bytes32"
        }
      ],
      "payable": false,
      "stateMutability": "view",
      "type": "function"
    },
    {
      "constant": true,
      "inputs": [
        {
          "internalType": "address",
          "name": "",
          "type": "address"
        }
      ],
      "name": "hasVoted",
      "outputs": [
        {
          "internalType": "bool",
          "name": "",
          "type": "bool"
        }
      ],
      "payable": false,
      "stateMutability": "view",
      "type": "function"
    },
    {
      "constant": true,
      "inputs": [],
      "name": "maxVoteTokens",
      "outputs": [
        {
          "internalType": "uint256",
          "name": "",
          "type": "uint256"
        }
      ],
      "payable": false,
      "stateMutability": "view",
      "type": "function"
    },
    {
      "constant": true,
      "inputs": [],
      "name": "votes",
      "outputs": [
        {
          "internalType": "uint256",
          "name": "",
          "type": "uint256"
        }
      ],
      "payable": false,
      "stateMutability": "view",
      "type": "function"
    },
    {
      "constant": false,
      "inputs": [
        {
          "internalType": "bytes32",
          "name": "_answer",
          "type": "bytes32"
        }
      ],
      "name": "initAnswer",
      "outputs": [],
      "payable": false,
      "stateMutability": "nonpayable",
      "type": "function"
    },
    {
      "constant": false,
      "inputs": [
        {
          "internalType": "bytes32",
          "name": "_answer",
          "type": "bytes32"
        }
      ],
      "name": "deactivateAnswer",
      "outputs": [],
      "payable": false,
      "stateMutability": "nonpayable",
      "type": "function"
    },
    {
      "constant": false,
      "inputs": [
        {
          "internalType": "bytes32",
          "name": "_answer",
          "type": "bytes32"
        }
      ],
      "name": "getAnswer",
      "outputs": [
        {
          "internalType": "bool",
          "name": "",
          "type": "bool"
        },
        {
          "internalType": "uint256",
          "name": "",
          "type": "uint256"
        },
        {
          "internalType": "uint256",
          "name": "",
          "type": "uint256"
        },
        {
          "internalType": "uint256",
          "name": "",
          "type": "uint256"
        }
      ],
      "payable": false,
      "stateMutability": "nonpayable",
      "type": "function"
    },
    {
      "constant": false,
      "inputs": [
        {
          "internalType": "bytes32[]",
          "name": "_answers",
          "type": "bytes32[]"
        },
        {
          "internalType": "uint256[]",
          "name": "_voteTokens",
          "type": "uint256[]"
        },
        {
          "internalType": "bytes32",
          "name": "_festival",
          "type": "bytes32"
        },
        {
          "internalType": "uint256",
          "name": "_nonce",
          "type": "uint256"
        },
        {
          "internalType": "uint8",
          "name": "sigV",
          "type": "uint8"
        },
        {
          "internalType": "bytes32",
          "name": "sigR",
          "type": "bytes32"
        },
        {
          "internalType": "bytes32",
          "name": "sigS",
          "type": "bytes32"
        }
      ],
      "name": "recordVote",
      "outputs": [
        {
          "internalType": "bool",
          "name": "",
          "type": "bool"
        }
      ],
      "payable": false,
      "stateMutability": "nonpayable",
      "type": "function"
    },
    {
      "constant": false,
      "inputs": [
        {
          "internalType": "bytes32[]",
          "name": "_answers",
          "type": "bytes32[]"
        },
        {
          "internalType": "uint256[]",
          "name": "_voteTokens",
          "type": "uint256[]"
        },
        {
          "internalType": "address",
          "name": "_booth",
          "type": "address"
        },
        {
          "internalType": "uint256",
          "name": "_nonce",
          "type": "uint256"
        }
      ],
      "name": "recordUnsignedVote",
      "outputs": [
        {
          "internalType": "bool",
          "name": "",
          "type": "bool"
        }
      ],
      "payable": false,
      "stateMutability": "nonpayable",
      "type": "function"
    }
  ],
  "bytecode": "0x608060405234801561001057600080fd5b506040516115183803806115188339818101604052604081101561003357600080fd5b810190808051906020019092919080519060200190929190505050336000806101000a81548173ffffffffffffffffffffffffffffffffffffffff021916908373ffffffffffffffffffffffffffffffffffffffff1602179055508160028190555080600181905550505061146b806100ad6000396000f3fe608060405234801561001057600080fd5b506004361061009e5760003560e01c80638a4599c7116100665780638a4599c714610307578063a6a1ef5514610362578063ad1b2b74146104fb578063e168c3ec14610519578063f851a440146105375761009e565b806305fce0b7146100a357806309eef43e1461023157806315474c101461028d57806336ddc96f146102bb57806346c231cb146102d9575b600080fd5b610217600480360360808110156100b957600080fd5b81019080803590602001906401000000008111156100d657600080fd5b8201836020820111156100e857600080fd5b8035906020019184602083028401116401000000008311171561010a57600080fd5b919080806020026020016040519081016040528093929190818152602001838360200280828437600081840152601f19601f8201169050808301925050505050505091929192908035906020019064010000000081111561016a57600080fd5b82018360208201111561017c57600080fd5b8035906020019184602083028401116401000000008311171561019e57600080fd5b919080806020026020016040519081016040528093929190818152602001838360200280828437600081840152601f19601f820116905080830192505050505050509192919290803573ffffffffffffffffffffffffffffffffffffffff16906020019092919080359060200190929190505050610581565b604051808215151515815260200191505060405180910390f35b6102736004803603602081101561024757600080fd5b81019080803573ffffffffffffffffffffffffffffffffffffffff1690602001909291905050506109fa565b604051808215151515815260200191505060405180910390f35b6102b9600480360360208110156102a357600080fd5b8101908080359060200190929190505050610a1a565b005b6102c3610bc4565b6040518082815260200191505060405180910390f35b610305600480360360208110156102ef57600080fd5b8101908080359060200190929190505050610bca565b005b6103336004803603602081101561031d57600080fd5b8101908080359060200190929190505050610d8f565b604051808515151515815260200184815260200183815260200182815260200194505050505060405180910390f35b6104e1600480360360e081101561037857600080fd5b810190808035906020019064010000000081111561039557600080fd5b8201836020820111156103a757600080fd5b803590602001918460208302840111640100000000831117156103c957600080fd5b919080806020026020016040519081016040528093929190818152602001838360200280828437600081840152601f19601f8201169050808301925050505050505091929192908035906020019064010000000081111561042957600080fd5b82018360208201111561043b57600080fd5b8035906020019184602083028401116401000000008311171561045d57600080fd5b919080806020026020016040519081016040528093929190818152602001838360200280828437600081840152601f19601f8201169050808301925050505050505091929192908035906020019092919080359060200190929190803560ff1690602001909291908035906020019092919080359060200190929190505050610e0d565b604051808215151515815260200191505060405180910390f35b610503611373565b6040518082815260200191505060405180910390f35b610521611379565b6040518082815260200191505060405180910390f35b61053f61137f565b604051808273ffffffffffffffffffffffffffffffffffffffff1673ffffffffffffffffffffffffffffffffffffffff16815260200191505060405180910390f35b60008060009054906101000a900473ffffffffffffffffffffffffffffffffffffffff1673ffffffffffffffffffffffffffffffffffffffff16632f54bf6e336040518263ffffffff1660e01b8152600401808273ffffffffffffffffffffffffffffffffffffffff1673ffffffffffffffffffffffffffffffffffffffff16815260200191505060206040518083038186803b15801561062157600080fd5b505afa158015610635573d6000803e3d6000fd5b505050506040513d602081101561064b57600080fd5b81019080805190602001909291905050506106ce576040517f08c379a00000000000000000000000000000000000000000000000000000000081526004018080602001828103825260108152602001807f4d75737420626520616e2061646d696e0000000000000000000000000000000081525060200191505060405180910390fd5b60008090505b85518110156109ed5761071a6001600460008985815181106106f257fe5b60200260200101518152602001908152602001600020600401546113a490919063ffffffff16565b6004600088848151811061072a57fe5b602002602001015181526020019081526020016000206004018190555061079685828151811061075657fe5b60200260200101516004600089858151811061076e57fe5b60200260200101518152602001908152602001600020600301546113a490919063ffffffff16565b600460008884815181106107a657fe5b602002602001015181526020019081526020016000206003018190555060006107e18683815181106107d457fe5b602002602001015161142c565b905061081f81600460008a86815181106107f757fe5b60200260200101518152602001908152602001600020600201546113a490919063ffffffff16565b6004600089858151811061082f57fe5b60200260200101518152602001908152602001600020600201819055506000809054906101000a900473ffffffffffffffffffffffffffffffffffffffff1673ffffffffffffffffffffffffffffffffffffffff1663c7b7530786866040518363ffffffff1660e01b8152600401808373ffffffffffffffffffffffffffffffffffffffff1673ffffffffffffffffffffffffffffffffffffffff16815260200182815260200192505050600060405180830381600087803b1580156108f457600080fd5b505af1158015610908573d6000803e3d6000fd5b5050505086828151811061091857fe5b60200260200101517f213d52f8d67eeb20811b31721709e38d2ab4a03c6094739a68c3ebbc0858d03e87848151811061094d57fe5b602002602001015183600460008c888151811061096657fe5b60200260200101518152602001908152602001600020600401548989604051808681526020018581526020018481526020018373ffffffffffffffffffffffffffffffffffffffff1673ffffffffffffffffffffffffffffffffffffffff1681526020018281526020019550505050505060405180910390a25080806001019150506106d4565b5060019050949350505050565b60056020528060005260406000206000915054906101000a900460ff1681565b6000809054906101000a900473ffffffffffffffffffffffffffffffffffffffff1673ffffffffffffffffffffffffffffffffffffffff16632f54bf6e336040518263ffffffff1660e01b8152600401808273ffffffffffffffffffffffffffffffffffffffff1673ffffffffffffffffffffffffffffffffffffffff16815260200191505060206040518083038186803b158015610ab857600080fd5b505afa158015610acc573d6000803e3d6000fd5b505050506040513d6020811015610ae257600080fd5b8101908080519060200190929190505050610b65576040517f08c379a00000000000000000000000000000000000000000000000000000000081526004018080602001828103825260108152602001807f4d75737420626520616e2061646d696e0000000000000000000000000000000081525060200191505060405180910390fd5b60016004600083815260200190815260200160002060000160016101000a81548160ff021916908315150217905550807fc65978a4584654f295e4ad49b6d4162923e3c5e206f86ebbccc2e1dc180d885a60405160405180910390a250565b60025481565b6000809054906101000a900473ffffffffffffffffffffffffffffffffffffffff1673ffffffffffffffffffffffffffffffffffffffff16632f54bf6e336040518263ffffffff1660e01b8152600401808273ffffffffffffffffffffffffffffffffffffffff1673ffffffffffffffffffffffffffffffffffffffff16815260200191505060206040518083038186803b158015610c6857600080fd5b505afa158015610c7c573d6000803e3d6000fd5b505050506040513d6020811015610c9257600080fd5b8101908080519060200190929190505050610d15576040517f08c379a00000000000000000000000000000000000000000000000000000000081526004018080602001828103825260108152602001807f4d75737420626520616e2061646d696e0000000000000000000000000000000081525060200191505060405180910390fd5b60016004600083815260200190815260200160002060000160006101000a81548160ff021916908315150217905550806004600083815260200190815260200160002060010181905550807f3784e033ee28778700c45b7b5dc00a3b76095515425249233e3afbcb0ac09a6760405160405180910390a250565b6000806000806004600086815260200190815260200160002060000160009054906101000a900460ff1660046000878152602001908152602001600020600201546004600088815260200190815260200160002060030154600460008981526020019081526020016000206004015493509350935093509193509193565b60008060009054906101000a900473ffffffffffffffffffffffffffffffffffffffff1673ffffffffffffffffffffffffffffffffffffffff16636a064d2d306040518263ffffffff1660e01b8152600401808273ffffffffffffffffffffffffffffffffffffffff1673ffffffffffffffffffffffffffffffffffffffff168152602001915050602060405180830381600087803b158015610eaf57600080fd5b505af1158015610ec3573d6000803e3d6000fd5b505050506040513d6020811015610ed957600080fd5b8101908080519060200190929190505050610ef357600080fd5b600560003373ffffffffffffffffffffffffffffffffffffffff1673ffffffffffffffffffffffffffffffffffffffff16815260200190815260200160002060009054906101000a900460ff1615610f4a57600080fd5b8651885114610f5857600080fd5b8560015414610f6657600080fd5b6000809054906101000a900473ffffffffffffffffffffffffffffffffffffffff1673ffffffffffffffffffffffffffffffffffffffff16635223c790876040518263ffffffff1660e01b815260040180828152602001915050602060405180830381600087803b158015610fda57600080fd5b505af1158015610fee573d6000803e3d6000fd5b505050506040513d602081101561100457600080fd5b810190808051906020019092919050505061101e57600080fd5b6000809054906101000a900473ffffffffffffffffffffffffffffffffffffffff1673ffffffffffffffffffffffffffffffffffffffff1663b3789b1a878a888888886040518763ffffffff1660e01b815260040180878152602001806020018681526020018560ff1660ff168152602001848152602001838152602001828103825287818151815260200191508051906020019060200280838360005b838110156110d75780820151818401526020810190506110bc565b50505050905001975050505050505050602060405180830381600087803b15801561110157600080fd5b505af1158015611115573d6000803e3d6000fd5b505050506040513d602081101561112b57600080fd5b810190808051906020019092919050505061114557600080fd5b6001600560003373ffffffffffffffffffffffffffffffffffffffff1673ffffffffffffffffffffffffffffffffffffffff16815260200190815260200160002060006101000a81548160ff02191690831515021790555060008090505b885181101561136357600460008a83815181106111bc57fe5b6020026020010151815260200190815260200160002060000160009054906101000a900460ff166111ec57600080fd5b6112296001600460008c858151811061120157fe5b60200260200101518152602001908152602001600020600401546113a490919063ffffffff16565b600460008b848151811061123957fe5b60200260200101518152602001908152602001600020600401819055506112a588828151811061126557fe5b6020026020010151600460008c858151811061127d57fe5b60200260200101518152602001908152602001600020600301546113a490919063ffffffff16565b600460008b84815181106112b557fe5b60200260200101518152602001908152602001600020600301819055506113296112f18983815181106112e457fe5b602002602001015161142c565b600460008c858151811061130157fe5b60200260200101518152602001908152602001600020600201546113a490919063ffffffff16565b600460008b848151811061133957fe5b602002602001015181526020019081526020016000206002018190555080806001019150506111a3565b5060019050979650505050505050565b60015481565b60035481565b6000809054906101000a900473ffffffffffffffffffffffffffffffffffffffff1681565b600080828401905083811015611422576040517f08c379a000000000000000000000000000000000000000000000000000000000815260040180806020018281038252601b8152602001807f536166654d6174683a206164646974696f6e206f766572666c6f77000000000081525060200191505060405180910390fd5b8091505092915050565b600081905091905056fea265627a7a723158209882d8a8e7432fcefb6c7a6cf47511725c9875ccd8726a28920357835177044564736f6c634300050c0032",
  "source": "pragma solidity ^0.5.0;\n\nimport \"openzeppelin-solidity/contracts/math/SafeMath.sol\";\n\nimport './interfaces/CulturestakeI.sol';\n\ncontract Question {\n  using SafeMath for uint256;\n\n  address public admin;\n  bytes32 public festival;\n  uint256 public maxVoteTokens;\n  uint256 public votes;\n  mapping (bytes32 => Answer) answers;\n  mapping (address => bool) public hasVoted;\n\n  struct Answer {\n    bool inited;\n    bool deactivated;\n    bytes32 answer;\n    uint256 votePower;\n    uint256 voteTokens;\n    uint256 votes;\n  }\n\n  event InitAnswer(bytes32 indexed answer);\n  event DeactivateAnswer(bytes32 indexed answer);\n  event Vote(\n    bytes32 indexed answer,\n    uint256 voteTokens,\n    uint256 votePower,\n    uint256 votes,\n    address booth,\n    uint256 nonce\n  );\n\n  modifier authorized() {\n      require(CulturestakeI(admin).isOwner(msg.sender), \"Must be an admin\" );\n      _;\n  }\n\n  constructor(\n    uint256 _maxVoteTokens,\n    bytes32 _festival\n  ) public {\n    admin = msg.sender;\n    maxVoteTokens = _maxVoteTokens;\n    festival = _festival;\n  }\n\n  function initAnswer(bytes32 _answer) public authorized {\n    answers[_answer].inited = true;\n    answers[_answer].answer = _answer;\n    emit InitAnswer(_answer);\n  }\n\n  function deactivateAnswer(bytes32 _answer) public authorized {\n    answers[_answer].deactivated = true;\n     emit DeactivateAnswer(_answer);\n  }\n\n  function getAnswer(bytes32 _answer) public returns (bool, uint256, uint256, uint256) {\n    return (\n      answers[_answer].inited,\n      answers[_answer].votePower,\n      answers[_answer].voteTokens,\n      answers[_answer].votes\n    );\n  }\n\n  function sqrt(uint256 num) internal view returns (uint256) {\n    //should be the sqrt\n    return num;\n  }\n\n  function recordVote(\n    bytes32[] memory _answers,\n    uint256[] memory _voteTokens,\n    bytes32 _festival,\n    uint256 _nonce,\n    uint8 sigV,\n    bytes32 sigR,\n    bytes32 sigS\n  ) public returns (bool) {\n    require(CulturestakeI(admin).questions(address(this)));\n    require(!hasVoted[msg.sender]);\n    require(_answers.length == _voteTokens.length);\n    require(festival == _festival);\n    require(CulturestakeI(admin).isActiveFestival(_festival));\n    require(CulturestakeI(admin).checkBoothSignatureAndBurnNonce(_festival, _answers, _nonce, sigV, sigR, sigS));\n    //require no duplicates in _answers array\n    //require not more than _maxVoteTokens\n    hasVoted[msg.sender] = true;\n    for (uint i = 0; i < _answers.length; i++) {\n      require(answers[_answers[i]].inited);\n      answers[_answers[i]].votes = answers[_answers[i]].votes.add(1);\n      answers[_answers[i]].voteTokens = answers[_answers[i]].voteTokens.add(_voteTokens[i]);\n      answers[_answers[i]].votePower = answers[_answers[i]].votePower.add(sqrt(_voteTokens[i]));\n      //add event\n    }\n    return true;\n  }\n\n  function recordUnsignedVote(\n    bytes32[] memory _answers,\n    uint256[] memory _voteTokens,\n    address _booth,\n    uint256 _nonce\n  ) public authorized returns (bool) {\n    // this method assumes all checks have been done by an admin\n    for (uint i = 0; i < _answers.length; i++) {\n      answers[_answers[i]].votes = answers[_answers[i]].votes.add(1);\n      answers[_answers[i]].voteTokens = answers[_answers[i]].voteTokens.add(_voteTokens[i]);\n      uint256 votePower = sqrt(_voteTokens[i]);\n      answers[_answers[i]].votePower = answers[_answers[i]].votePower.add(votePower);\n      CulturestakeI(admin).burnNonce(_booth, _nonce);\n      emit Vote(_answers[i], _voteTokens[i], votePower, answers[_answers[i]].votes, _booth, _nonce);\n    }\n    return true;\n  }\n}",
  "sourcePath": "/media/000/Documents/culturestake/culturestake-contracts/contracts/Question.sol",
  "compiler": {
    "name": "solc",
    "version": "0.5.12+commit.7709ece9.Emscripten.clang"
  },
  "schemaVersion": "3.0.20",
  "updatedAt": "2020-07-18T18:44:04.543Z",
  "devdoc": {
    "methods": {}
  },
  "userdoc": {
    "methods": {}
  }
}