{
  "contractName": "Question",
  "abi": [
    {
      "inputs": [
        {
          "internalType": "uint8",
          "name": "",
          "type": "address"
        },
        {
          "internalType": "bytes32",
          "name": "_question",
          "type": "bytes32"
        },
        {
          "internalType": "uint256",
          "name": "_maxVoteTokens",
          "type": "uint256"
        },
        {
          "internalType": "bytes32",
          "name": "_festival",
          "type": "bytes32"
        }
      ],
      "payable": false,
      "stateMutability": "view",
      "type": "function",
      "constant": true,
      "name": "hasVoted",
      "outputs": [
        {
          "name": "",
          "type": "bool"
        }
      ],
      "signature": "0x9b264f13"
    },
    {
      "anonymous": false,
      "inputs": [
        {
          "indexed": false,
          "internalType": "address",
          "name": "sender",
          "type": "address"
        },
        {
          "indexed": false,
          "internalType": "bool",
          "name": "val",
          "type": "bool"
        }
      ],
      "name": "maxVoteTokens",
      "type": "function",
      "constant": true,
      "outputs": [
        {
          "name": "",
          "type": "uint256"
        }
      ],
      "payable": false,
      "stateMutability": "view",
      "signature": "0x1145d877"
    },
    {
      "anonymous": false,
      "inputs": [
        {
          "indexed": false,
          "internalType": "bytes32",
          "name": "answer",
          "type": "bytes32"
        }
      ],
      "name": "question",
      "type": "function",
      "constant": true,
      "outputs": [
        {
          "name": "",
          "type": "bytes32"
        }
      ],
      "payable": false,
      "stateMutability": "view",
      "signature": "0x7485a2a8"
    },
    {
      "constant": true,
      "inputs": [],
      "name": "questionType",
      "outputs": [
        {
          "internalType": "address",
          "name": "",
          "type": "uint8"
        }
      ],
      "payable": false,
      "stateMutability": "view",
      "type": "function",
      "signature": "0x918feec8"
    },
    {
      "constant": true,
      "inputs": [],
      "name": "festival",
      "outputs": [
        {
          "internalType": "bytes32",
          "name": "",
          "type": "bytes32"
        }
      ],
      "payable": false,
      "stateMutability": "view",
      "type": "function",
      "signature": "0xad1b2b74"
    },
    {
      "constant": true,
      "inputs": [
        {
          "internalType": "address",
          "name": "",
          "type": "address"
        }
      ],
      "name": "votes",
      "outputs": [
        {
          "internalType": "bool",
          "name": "",
          "type": "uint256"
        }
      ],
      "payable": false,
      "stateMutability": "view",
      "type": "function",
      "signature": "0xd8bff5a5"
    },
    {
      "constant": true,
      "inputs": [],
      "name": "admin",
      "outputs": [
        {
          "internalType": "uint256",
          "name": "",
          "type": "address"
        }
      ],
      "payable": false,
      "stateMutability": "view",
      "type": "function",
      "signature": "0xf851a440"
    },
    {
      "constant": true,
      "inputs": [
        {
          "name": "_questionType",
          "type": "uint8"
        },
        {
          "name": "_question",
          "type": "bytes32"
        },
        {
          "name": "_maxVoteTokens",
          "type": "uint256"
        },
        {
          "name": "_festival",
          "type": "bytes32"
        }
      ],
      "name": "question",
      "outputs": [
        {
          "internalType": "bytes32",
          "name": "",
          "type": "bytes32"
        }
      ],
      "payable": false,
      "stateMutability": "nonpayable",
      "type": "constructor"
    },
    {
      "constant": true,
      "inputs": [
        {
          "indexed": false,
          "name": "answer",
          "type": "bytes32"
        }
      ],
      "name": "InitAnswer",
      "outputs": [
        {
          "internalType": "uint8",
          "name": "",
          "type": "uint8"
        }
      ],
      "payable": false,
      "stateMutability": "view",
      "type": "event",
      "anonymous": false,
      "signature": "0x3784e033ee28778700c45b7b5dc00a3b76095515425249233e3afbcb0ac09a67"
    },
    {
      "constant": false,
      "inputs": [
        {
          "name": "_answer",
          "type": "bytes32"
        }
      ],
      "name": "initAnswer",
      "outputs": [
        {
          "internalType": "uint256",
          "name": "",
          "type": "uint256"
        }
      ],
      "payable": false,
      "stateMutability": "nonpayable",
      "type": "function",
      "signature": "0x46c231cb"
    },
    {
      "constant": false,
      "inputs": [
        {
          "internalType": "bytes32",
          "name": "_answer",
          "type": "bytes32"
        }
      ],
      "name": "deactivateAnswer",
      "outputs": [],
      "payable": false,
      "stateMutability": "nonpayable",
      "type": "function",
      "signature": "0x15474c10"
    },
    {
      "constant": false,
      "inputs": [
        {
          "internalType": "bytes32",
          "name": "_answer",
          "type": "bytes32"
        }
      ],
      "name": "getAnswer",
      "outputs": [
        {
          "name": "",
          "type": "bool"
        },
        {
          "name": "",
          "type": "uint256"
        },
        {
          "name": "",
          "type": "uint256"
        },
        {
          "name": "",
          "type": "uint256"
        }
      ],
      "payable": false,
      "stateMutability": "nonpayable",
      "type": "function",
      "signature": "0x8a4599c7"
    },
    {
      "constant": false,
      "inputs": [
        {
          "internalType": "address",
          "name": "_answers",
          "type": "bytes32[]"
        },
        {
          "name": "_voteTokens",
          "type": "uint256[]"
        },
        {
          "name": "_festival",
          "type": "bytes32"
        },
        {
          "name": "_nonce",
          "type": "uint256"
        },
        {
          "name": "sigV",
          "type": "uint8"
        },
        {
          "name": "sigR",
          "type": "bytes32"
        },
        {
          "name": "sigS",
          "type": "bytes32"
        }
      ],
      "name": "recordVote",
      "outputs": [
        {
          "internalType": "bool",
          "name": "",
          "type": "bool"
        }
      ],
      "payable": false,
      "stateMutability": "nonpayable",
      "type": "function",
      "signature": "0xa6a1ef55"
    },
    {
      "constant": false,
      "inputs": [
        {
          "internalType": "bytes32",
          "name": "_answers",
          "type": "bytes32[]"
        },
        {
          "name": "_voteTokens",
          "type": "uint256[]"
        },
        {
          "name": "_booth",
          "type": "address"
        },
        {
          "name": "_nonce",
          "type": "uint256"
        },
        {
          "name": "sender",
          "type": "address"
        }
      ],
      "name": "recordUnsignedVote",
      "outputs": [
        {
          "internalType": "bool",
          "name": "",
          "type": "bool"
        },
        {
          "internalType": "uint256",
          "name": "",
          "type": "uint256"
        },
        {
          "internalType": "uint256",
          "name": "",
          "type": "uint256"
        },
        {
          "internalType": "uint256",
          "name": "",
          "type": "uint256"
        }
      ],
      "payable": false,
      "stateMutability": "nonpayable",
      "type": "function",
      "signature": "0x98402902"
    },
    {
      "constant": false,
      "inputs": [
        {
          "internalType": "bytes32[]",
          "name": "_answers",
          "type": "bytes32[]"
        },
        {
          "internalType": "uint256[]",
          "name": "_voteTokens",
          "type": "uint256[]"
        },
        {
          "internalType": "bytes32",
          "name": "_festival",
          "type": "bytes32"
        },
        {
          "internalType": "uint256",
          "name": "_nonce",
          "type": "uint256"
        },
        {
          "internalType": "uint8",
          "name": "sigV",
          "type": "uint8"
        },
        {
          "internalType": "bytes32",
          "name": "sigR",
          "type": "bytes32"
        },
        {
          "internalType": "bytes32",
          "name": "sigS",
          "type": "bytes32"
        }
      ],
      "name": "recordVote",
      "outputs": [
        {
          "internalType": "bool",
          "name": "",
          "type": "bool"
        }
      ],
      "payable": false,
      "stateMutability": "nonpayable",
      "type": "function",
      "signature": "0xa6a1ef55"
    },
    {
      "constant": false,
      "inputs": [
        {
          "internalType": "bytes32[]",
          "name": "_answers",
          "type": "bytes32[]"
        },
        {
          "internalType": "uint256[]",
          "name": "_voteTokens",
          "type": "uint256[]"
        },
        {
          "internalType": "address",
          "name": "_booth",
          "type": "address"
        },
        {
          "internalType": "uint256",
          "name": "_nonce",
          "type": "uint256"
        },
        {
          "internalType": "address",
          "name": "sender",
          "type": "address"
        }
      ],
      "name": "recordUnsignedVote",
      "outputs": [
        {
          "internalType": "bool",
          "name": "",
          "type": "bool"
        }
      ],
      "payable": false,
      "stateMutability": "nonpayable",
      "type": "function",
      "signature": "0x98402902"
    }
  ],
  "bytecode": "0x608060405234801561001057600080fd5b506040516080806116088339810180604052608081101561003057600080fd5b8101908080519060200190929190805190602001909291908051906020019092919080519060200190929190505050336000806101000a81548173ffffffffffffffffffffffffffffffffffffffff021916908373ffffffffffffffffffffffffffffffffffffffff1602179055508160038190555083600060146101000a81548160ff021916908360ff160217905550826001819055508060028190555050505050611526806100e26000396000f3fe6080604052600436106100ba576000357c0100000000000000000000000000000000000000000000000000000000900463ffffffff16806309eef43e146100bf57806315474c101461012857806336ddc96f146101635780633fad9ae01461018e57806346c231cb146101b95780638a4599c7146101f4578063918feec81461025c578063984029021461028d578063a6a1ef5514610448578063ad1b2b74146105ee578063e168c3ec14610619578063f851a44014610644575b600080fd5b3480156100cb57600080fd5b5061010e600480360360208110156100e257600080fd5b81019080803573ffffffffffffffffffffffffffffffffffffffff16906020019092919050505061069b565b604051808215151515815260200191505060405180910390f35b34801561013457600080fd5b506101616004803603602081101561014b57600080fd5b81019080803590602001909291905050506106bb565b005b34801561016f57600080fd5b50610178610856565b6040518082815260200191505060405180910390f35b34801561019a57600080fd5b506101a361085c565b6040518082815260200191505060405180910390f35b3480156101c557600080fd5b506101f2600480360360208110156101dc57600080fd5b8101908080359060200190929190505050610862565b005b34801561020057600080fd5b5061022d6004803603602081101561021757600080fd5b8101908080359060200190929190505050610a4f565b604051808515151515815260200184815260200183815260200182815260200194505050505060405180910390f35b34801561026857600080fd5b50610271610acd565b604051808260ff1660ff16815260200191505060405180910390f35b34801561029957600080fd5b5061042e600480360360a08110156102b057600080fd5b81019080803590602001906401000000008111156102cd57600080fd5b8201836020820111156102df57600080fd5b8035906020019184602083028401116401000000008311171561030157600080fd5b919080806020026020016040519081016040528093929190818152602001838360200280828437600081840152601f19601f8201169050808301925050505050505091929192908035906020019064010000000081111561036157600080fd5b82018360208201111561037357600080fd5b8035906020019184602083028401116401000000008311171561039557600080fd5b919080806020026020016040519081016040528093929190818152602001838360200280828437600081840152601f19601f820116905080830192505050505050509192919290803573ffffffffffffffffffffffffffffffffffffffff16906020019092919080359060200190929190803573ffffffffffffffffffffffffffffffffffffffff169060200190929190505050610ae0565b604051808215151515815260200191505060405180910390f35b34801561045457600080fd5b506105d4600480360360e081101561046b57600080fd5b810190808035906020019064010000000081111561048857600080fd5b82018360208201111561049a57600080fd5b803590602001918460208302840111640100000000831117156104bc57600080fd5b919080806020026020016040519081016040528093929190818152602001838360200280828437600081840152601f19601f8201169050808301925050505050505091929192908035906020019064010000000081111561051c57600080fd5b82018360208201111561052e57600080fd5b8035906020019184602083028401116401000000008311171561055057600080fd5b919080806020026020016040519081016040528093929190818152602001838360200280828437600081840152601f19601f8201169050808301925050505050505091929192908035906020019092919080359060200190929190803560ff1690602001909291908035906020019092919080359060200190929190505050610f03565b604051808215151515815260200191505060405180910390f35b3480156105fa57600080fd5b506106036114bf565b6040518082815260200191505060405180910390f35b34801561062557600080fd5b5061062e6114c5565b6040518082815260200191505060405180910390f35b34801561065057600080fd5b506106596114cb565b604051808273ffffffffffffffffffffffffffffffffffffffff1673ffffffffffffffffffffffffffffffffffffffff16815260200191505060405180910390f35b60066020528060005260406000206000915054906101000a900460ff1681565b6000809054906101000a900473ffffffffffffffffffffffffffffffffffffffff1673ffffffffffffffffffffffffffffffffffffffff16632f54bf6e336040518263ffffffff167c0100000000000000000000000000000000000000000000000000000000028152600401808273ffffffffffffffffffffffffffffffffffffffff1673ffffffffffffffffffffffffffffffffffffffff16815260200191505060206040518083038186803b15801561077557600080fd5b505afa158015610789573d6000803e3d6000fd5b505050506040513d602081101561079f57600080fd5b81019080805190602001909291905050501515610824576040517f08c379a00000000000000000000000000000000000000000000000000000000081526004018080602001828103825260108152602001807f4d75737420626520616e2061646d696e0000000000000000000000000000000081525060200191505060405180910390fd5b60006005600083815260200190815260200160002060000160006101000a81548160ff02191690831515021790555050565b60035481565b60015481565b6000809054906101000a900473ffffffffffffffffffffffffffffffffffffffff1673ffffffffffffffffffffffffffffffffffffffff16632f54bf6e336040518263ffffffff167c0100000000000000000000000000000000000000000000000000000000028152600401808273ffffffffffffffffffffffffffffffffffffffff1673ffffffffffffffffffffffffffffffffffffffff16815260200191505060206040518083038186803b15801561091c57600080fd5b505afa158015610930573d6000803e3d6000fd5b505050506040513d602081101561094657600080fd5b810190808051906020019092919050505015156109cb576040517f08c379a00000000000000000000000000000000000000000000000000000000081526004018080602001828103825260108152602001807f4d75737420626520616e2061646d696e0000000000000000000000000000000081525060200191505060405180910390fd5b60016005600083815260200190815260200160002060000160006101000a81548160ff0219169083151502179055508060056000838152602001908152602001600020600101819055507f3784e033ee28778700c45b7b5dc00a3b76095515425249233e3afbcb0ac09a67816040518082815260200191505060405180910390a150565b6000806000806005600086815260200190815260200160002060000160009054906101000a900460ff1660056000878152602001908152602001600020600201546005600088815260200190815260200160002060030154600560008981526020019081526020016000206004015493509350935093509193509193565b600060149054906101000a900460ff1681565b60008060009054906101000a900473ffffffffffffffffffffffffffffffffffffffff1673ffffffffffffffffffffffffffffffffffffffff16632f54bf6e336040518263ffffffff167c0100000000000000000000000000000000000000000000000000000000028152600401808273ffffffffffffffffffffffffffffffffffffffff1673ffffffffffffffffffffffffffffffffffffffff16815260200191505060206040518083038186803b158015610b9c57600080fd5b505afa158015610bb0573d6000803e3d6000fd5b505050506040513d6020811015610bc657600080fd5b81019080805190602001909291905050501515610c4b576040517f08c379a00000000000000000000000000000000000000000000000000000000081526004018080602001828103825260108152602001807f4d75737420626520616e2061646d696e0000000000000000000000000000000081525060200191505060405180910390fd5b60008090505b8651811015610ef5576001600560008984815181101515610c6e57fe5b9060200190602002015181526020019081526020016000206004015401600560008984815181101515610c9d57fe5b906020019060200201518152602001908152602001600020600401819055508581815181101515610cca57fe5b90602001906020020151600560008984815181101515610ce657fe5b9060200190602002015181526020019081526020016000206003015401600560008984815181101515610d1557fe5b90602001906020020151815260200190815260200160002060030181905550610d548682815181101515610d4557fe5b906020019060200201516114f0565b600560008984815181101515610d6657fe5b9060200190602002015181526020019081526020016000206002015401600560008984815181101515610d9557fe5b906020019060200201518152602001908152602001600020600201819055506000809054906101000a900473ffffffffffffffffffffffffffffffffffffffff1673ffffffffffffffffffffffffffffffffffffffff1663c7b7530786866040518363ffffffff167c0100000000000000000000000000000000000000000000000000000000028152600401808373ffffffffffffffffffffffffffffffffffffffff1673ffffffffffffffffffffffffffffffffffffffff16815260200182815260200192505050600060405180830381600087803b158015610e7857600080fd5b505af1158015610e8c573d6000803e3d6000fd5b505050506001600660008573ffffffffffffffffffffffffffffffffffffffff1673ffffffffffffffffffffffffffffffffffffffff16815260200190815260200160002060006101000a81548160ff0219169083151502179055508080600101915050610c51565b506001905095945050505050565b60008060009054906101000a900473ffffffffffffffffffffffffffffffffffffffff1673ffffffffffffffffffffffffffffffffffffffff16636a064d2d306040518263ffffffff167c0100000000000000000000000000000000000000000000000000000000028152600401808273ffffffffffffffffffffffffffffffffffffffff1673ffffffffffffffffffffffffffffffffffffffff168152602001915050602060405180830381600087803b158015610fc157600080fd5b505af1158015610fd5573d6000803e3d6000fd5b505050506040513d6020811015610feb57600080fd5b8101908080519060200190929190505050151561100757600080fd5b600660003373ffffffffffffffffffffffffffffffffffffffff1673ffffffffffffffffffffffffffffffffffffffff16815260200190815260200160002060009054906101000a900460ff1615151561106057600080fd5b8651885114151561107057600080fd5b8560025414151561108057600080fd5b6000809054906101000a900473ffffffffffffffffffffffffffffffffffffffff1673ffffffffffffffffffffffffffffffffffffffff16639bd09723876040518263ffffffff167c010000000000000000000000000000000000000000000000000000000002815260040180828152602001915050602060405180830381600087803b15801561111057600080fd5b505af1158015611124573d6000803e3d6000fd5b505050506040513d602081101561113a57600080fd5b8101908080519060200190929190505050151561115657600080fd5b6000809054906101000a900473ffffffffffffffffffffffffffffffffffffffff1673ffffffffffffffffffffffffffffffffffffffff16633823a473878a888888886040518763ffffffff167c010000000000000000000000000000000000000000000000000000000002815260040180878152602001806020018681526020018560ff1660ff168152602001848152602001838152602001828103825287818151815260200191508051906020019060200280838360005b8381101561122b578082015181840152602081019050611210565b50505050905001975050505050505050602060405180830381600087803b15801561125557600080fd5b505af1158015611269573d6000803e3d6000fd5b505050506040513d602081101561127f57600080fd5b8101908080519060200190929190505050151561129b57600080fd5b6001600660003373ffffffffffffffffffffffffffffffffffffffff1673ffffffffffffffffffffffffffffffffffffffff16815260200190815260200160002060006101000a81548160ff02191690831515021790555060008090505b88518110156114af57600560008a8381518110151561131457fe5b90602001906020020151815260200190815260200160002060000160009054906101000a900460ff16151561134857600080fd5b6001600560008b8481518110151561135c57fe5b9060200190602002015181526020019081526020016000206004015401600560008b8481518110151561138b57fe5b9060200190602002015181526020019081526020016000206004018190555087818151811015156113b857fe5b90602001906020020151600560008b848151811015156113d457fe5b9060200190602002015181526020019081526020016000206003015401600560008b8481518110151561140357fe5b90602001906020020151815260200190815260200160002060030181905550611442888281518110151561143357fe5b906020019060200201516114f0565b600560008b8481518110151561145457fe5b9060200190602002015181526020019081526020016000206002015401600560008b8481518110151561148357fe5b9060200190602002015181526020019081526020016000206002018190555080806001019150506112f9565b5060019050979650505050505050565b60025481565b60045481565b6000809054906101000a900473ffffffffffffffffffffffffffffffffffffffff1681565b600081905091905056fea165627a7a723058203947a06c09536a2294b525a9f7aee055903d983b6582e2217383349f7a17e2600029",
  "source": "pragma solidity ^0.5.0;\n\nimport './interfaces/CulturestakeI.sol';\n\ncontract Question {\n  address public admin;\n  uint8 public questionType;\n  bytes32 public question;\n  bytes32 public festival;\n  uint256 public maxVoteTokens;\n  uint256 public votes;\n  mapping (bytes32 => Answer) answers;\n  mapping (address => bool) public hasVoted;\n\n  struct Answer {\n    bool active;\n    bytes32 answer;\n    uint256 votePower;\n    uint256 voteTokens;\n    uint256 votes;\n  }\n\n  event InitAnswer(bytes32 answer);\n\n  modifier authorized() {\n      require(CulturestakeI(admin).isOwner(msg.sender), \"Must be an admin\" );\n      _;\n  }\n\n  constructor(\n    uint8 _questionType,\n    bytes32 _question,\n    uint256 _maxVoteTokens,\n    bytes32 _festival\n  ) public {\n    admin = msg.sender;\n    maxVoteTokens = _maxVoteTokens;\n    questionType = _questionType;\n    question = _question;\n    festival = _festival;\n  }\n\n  function initAnswer(bytes32 _answer) public authorized {\n    answers[_answer].active = true;\n    answers[_answer].answer = _answer;\n    emit InitAnswer(_answer);\n  }\n\n  function deactivateAnswer(bytes32 _answer) public authorized {\n    answers[_answer].active = false;\n  }\n\n  function getAnswer(bytes32 _answer) public returns (bool, uint256, uint256, uint256) {\n    return (\n      answers[_answer].active,\n      answers[_answer].votePower,\n      answers[_answer].voteTokens,\n      answers[_answer].votes\n    );\n  }\n\n  function sqrt(uint256 num) internal view returns (uint256) {\n    //should be the sqrt\n    return num;\n  }\n\n  function recordVote(\n    bytes32[] memory _answers,\n    uint256[] memory _voteTokens,\n    bytes32 _festival,\n    uint256 _nonce,\n    uint8 sigV,\n    bytes32 sigR,\n    bytes32 sigS\n  ) public returns (bool) {\n    require(CulturestakeI(admin).questions(address(this)));\n    require(!hasVoted[msg.sender]);\n    require(_answers.length == _voteTokens.length);\n    require(festival == _festival);\n    require(CulturestakeI(admin).isValidFestival(_festival));\n    require(CulturestakeI(admin).validateVotingBooth(_festival, _answers, _nonce, sigV, sigR, sigS));\n    //require no duplicates in _answers array\n    //require not more than _maxVoteTokens\n    hasVoted[msg.sender] = true;\n    for (uint i = 0; i < _answers.length; i++) {\n      require(answers[_answers[i]].active);\n      answers[_answers[i]].votes = answers[_answers[i]].votes + 1;\n      answers[_answers[i]].voteTokens = answers[_answers[i]].voteTokens + _voteTokens[i];\n      answers[_answers[i]].votePower = answers[_answers[i]].votePower + sqrt(_voteTokens[i]);\n      //add event\n    }\n    return true;\n  }\n\n  function recordUnsignedVote(\n    bytes32[] memory _answers,\n    uint256[] memory _voteTokens,\n    address _booth,\n    uint256 _nonce,\n    address sender\n  ) public authorized returns (bool) {\n    // this method assumes all checks have been done by an admin\n    for (uint i = 0; i < _answers.length; i++) {\n      answers[_answers[i]].votes = answers[_answers[i]].votes + 1;\n      answers[_answers[i]].voteTokens = answers[_answers[i]].voteTokens + _voteTokens[i];\n      answers[_answers[i]].votePower = answers[_answers[i]].votePower + sqrt(_voteTokens[i]);\n      CulturestakeI(admin).burnNonce(_booth, _nonce);\n      hasVoted[sender] = true;\n      //add event\n    }\n    return true;\n  }\n}",
  "sourcePath": "/media/000/Documents/culturestake/culturestake-contracts/contracts/Question.sol",
  "compiler": {
    "name": "solc",
    "version": "0.5.0+commit.1d4f565a.Emscripten.clang"
  },
  "schemaVersion": "3.0.8",
  "updatedAt": "2020-04-07T13:34:10.837Z",
  "devdoc": {
    "methods": {}
  },
  "userdoc": {
    "methods": {}
  }
}