{
  "contractName": "Question",
  "abi": [
    {
      "inputs": [
        {
          "internalType": "uint8",
          "name": "_questionType",
          "type": "uint8"
        },
        {
          "internalType": "bytes32",
          "name": "_question",
          "type": "bytes32"
        },
        {
          "internalType": "uint256",
          "name": "_maxVoteTokens",
          "type": "uint256"
        },
        {
          "internalType": "bytes32",
          "name": "_festival",
          "type": "bytes32"
        }
      ],
      "payable": false,
      "stateMutability": "nonpayable",
      "type": "constructor"
    },
    {
      "anonymous": false,
      "inputs": [
        {
          "indexed": false,
          "internalType": "bytes32",
          "name": "answer",
          "type": "bytes32"
        }
      ],
      "name": "InitAnswer",
      "type": "event"
    },
    {
      "constant": true,
      "inputs": [],
      "name": "active",
      "outputs": [
        {
          "internalType": "bool",
          "name": "",
          "type": "bool"
        }
      ],
      "payable": false,
      "stateMutability": "view",
      "type": "function"
    },
    {
      "constant": true,
      "inputs": [],
      "name": "admin",
      "outputs": [
        {
          "internalType": "address",
          "name": "",
          "type": "address"
        }
      ],
      "payable": false,
      "stateMutability": "view",
      "type": "function"
    },
    {
      "constant": true,
      "inputs": [],
      "name": "festival",
      "outputs": [
        {
          "internalType": "bytes32",
          "name": "",
          "type": "bytes32"
        }
      ],
      "payable": false,
      "stateMutability": "view",
      "type": "function"
    },
    {
      "constant": true,
      "inputs": [
        {
          "internalType": "address",
          "name": "",
          "type": "address"
        }
      ],
      "name": "hasVoted",
      "outputs": [
        {
          "internalType": "bool",
          "name": "",
          "type": "bool"
        }
      ],
      "payable": false,
      "stateMutability": "view",
      "type": "function"
    },
    {
      "constant": true,
      "inputs": [],
      "name": "maxVoteTokens",
      "outputs": [
        {
          "internalType": "uint256",
          "name": "",
          "type": "uint256"
        }
      ],
      "payable": false,
      "stateMutability": "view",
      "type": "function"
    },
    {
      "constant": true,
      "inputs": [],
      "name": "question",
      "outputs": [
        {
          "internalType": "bytes32",
          "name": "",
          "type": "bytes32"
        }
      ],
      "payable": false,
      "stateMutability": "view",
      "type": "function"
    },
    {
      "constant": true,
      "inputs": [],
      "name": "questionType",
      "outputs": [
        {
          "internalType": "uint8",
          "name": "",
          "type": "uint8"
        }
      ],
      "payable": false,
      "stateMutability": "view",
      "type": "function"
    },
    {
      "constant": true,
      "inputs": [],
      "name": "votes",
      "outputs": [
        {
          "internalType": "uint256",
          "name": "",
          "type": "uint256"
        }
      ],
      "payable": false,
      "stateMutability": "view",
      "type": "function"
    },
    {
      "constant": false,
      "inputs": [],
      "name": "deactivateQuestion",
      "outputs": [],
      "payable": false,
      "stateMutability": "nonpayable",
      "type": "function"
    },
    {
      "constant": false,
      "inputs": [
        {
          "internalType": "bytes32",
          "name": "_answer",
          "type": "bytes32"
        }
      ],
      "name": "initAnswer",
      "outputs": [],
      "payable": false,
      "stateMutability": "nonpayable",
      "type": "function"
    },
    {
      "constant": false,
      "inputs": [
        {
          "internalType": "bytes32",
          "name": "_answer",
          "type": "bytes32"
        }
      ],
      "name": "deactivateAnswer",
      "outputs": [],
      "payable": false,
      "stateMutability": "nonpayable",
      "type": "function"
    },
    {
      "constant": false,
      "inputs": [
        {
          "internalType": "bytes32",
          "name": "_answer",
          "type": "bytes32"
        }
      ],
      "name": "getAnswer",
      "outputs": [
        {
          "internalType": "bool",
          "name": "",
          "type": "bool"
        },
        {
          "internalType": "uint256",
          "name": "",
          "type": "uint256"
        },
        {
          "internalType": "uint256",
          "name": "",
          "type": "uint256"
        },
        {
          "internalType": "uint256",
          "name": "",
          "type": "uint256"
        }
      ],
      "payable": false,
      "stateMutability": "nonpayable",
      "type": "function"
    },
    {
      "constant": false,
      "inputs": [
        {
          "internalType": "bytes32[]",
          "name": "_answers",
          "type": "bytes32[]"
        },
        {
          "internalType": "uint256[]",
          "name": "_voteTokens",
          "type": "uint256[]"
        },
        {
          "internalType": "bytes32",
          "name": "_festival",
          "type": "bytes32"
        }
      ],
      "name": "recordVote",
      "outputs": [
        {
          "internalType": "bool",
          "name": "",
          "type": "bool"
        }
      ],
      "payable": false,
      "stateMutability": "nonpayable",
      "type": "function"
    },
    {
      "constant": false,
      "inputs": [
        {
          "internalType": "bytes32[]",
          "name": "_answers",
          "type": "bytes32[]"
        },
        {
          "internalType": "uint256[]",
          "name": "_voteTokens",
          "type": "uint256[]"
        },
        {
          "internalType": "address",
          "name": "_booth",
          "type": "address"
        },
        {
          "internalType": "uint256",
          "name": "_nonce",
          "type": "uint256"
        },
        {
          "internalType": "address",
          "name": "sender",
          "type": "address"
        }
      ],
      "name": "recordUnsignedVote",
      "outputs": [
        {
          "internalType": "bool",
          "name": "",
          "type": "bool"
        }
      ],
      "payable": false,
      "stateMutability": "nonpayable",
      "type": "function"
    }
  ],
  "bytecode": "0x608060405234801561001057600080fd5b506040516113123803806113128339818101604052608081101561003357600080fd5b8101908080519060200190929190805190602001909291908051906020019092919080519060200190929190505050336000806101000a81548173ffffffffffffffffffffffffffffffffffffffff021916908373ffffffffffffffffffffffffffffffffffffffff1602179055506001600360006101000a81548160ff0219169083151502179055508160048190555083600060146101000a81548160ff021916908360ff160217905550826001819055508060028190555050505050611212806101006000396000f3fe608060405234801561001057600080fd5b50600436106100ea5760003560e01c80638a4599c71161008c578063984029021161006657806398402902146103fc578063ad1b2b74146105aa578063e168c3ec146105c8578063f851a440146105e6576100ea565b80638a4599c71461020f5780638d0265bc1461026a578063918feec8146103d8576100ea565b806336ddc96f116100c857806336ddc96f1461019b578063376f591b146101b95780633fad9ae0146101c357806346c231cb146101e1576100ea565b806302fb0c5e146100ef57806309eef43e1461011157806315474c101461016d575b600080fd5b6100f7610630565b604051808215151515815260200191505060405180910390f35b6101536004803603602081101561012757600080fd5b81019080803573ffffffffffffffffffffffffffffffffffffffff169060200190929190505050610643565b604051808215151515815260200191505060405180910390f35b6101996004803603602081101561018357600080fd5b8101908080359060200190929190505050610663565b005b6101a36107c5565b6040518082815260200191505060405180910390f35b6101c16107cb565b005b6101cb610918565b6040518082815260200191505060405180910390f35b61020d600480360360208110156101f757600080fd5b810190808035906020019092919050505061091e565b005b61023b6004803603602081101561022557600080fd5b8101908080359060200190929190505050610ad2565b604051808515151515815260200184815260200183815260200182815260200194505050505060405180910390f35b6103be6004803603606081101561028057600080fd5b810190808035906020019064010000000081111561029d57600080fd5b8201836020820111156102af57600080fd5b803590602001918460208302840111640100000000831117156102d157600080fd5b919080806020026020016040519081016040528093929190818152602001838360200280828437600081840152601f19601f8201169050808301925050505050505091929192908035906020019064010000000081111561033157600080fd5b82018360208201111561034357600080fd5b8035906020019184602083028401116401000000008311171561036557600080fd5b919080806020026020016040519081016040528093929190818152602001838360200280828437600081840152601f19601f82011690508083019250505050505050919291929080359060200190929190505050610b50565b604051808215151515815260200191505060405180910390f35b6103e0610dbf565b604051808260ff1660ff16815260200191505060405180910390f35b610590600480360360a081101561041257600080fd5b810190808035906020019064010000000081111561042f57600080fd5b82018360208201111561044157600080fd5b8035906020019184602083028401116401000000008311171561046357600080fd5b919080806020026020016040519081016040528093929190818152602001838360200280828437600081840152601f19601f820116905080830192505050505050509192919290803590602001906401000000008111156104c357600080fd5b8201836020820111156104d557600080fd5b803590602001918460208302840111640100000000831117156104f757600080fd5b919080806020026020016040519081016040528093929190818152602001838360200280828437600081840152601f19601f820116905080830192505050505050509192919290803573ffffffffffffffffffffffffffffffffffffffff16906020019092919080359060200190929190803573ffffffffffffffffffffffffffffffffffffffff169060200190929190505050610dd2565b604051808215151515815260200191505060405180910390f35b6105b2611180565b6040518082815260200191505060405180910390f35b6105d0611186565b6040518082815260200191505060405180910390f35b6105ee61118c565b604051808273ffffffffffffffffffffffffffffffffffffffff1673ffffffffffffffffffffffffffffffffffffffff16815260200191505060405180910390f35b600360009054906101000a900460ff1681565b60076020528060005260406000206000915054906101000a900460ff1681565b6000809054906101000a900473ffffffffffffffffffffffffffffffffffffffff1673ffffffffffffffffffffffffffffffffffffffff16632f54bf6e336040518263ffffffff1660e01b8152600401808273ffffffffffffffffffffffffffffffffffffffff1673ffffffffffffffffffffffffffffffffffffffff168152602001915050602060405180830381600087803b15801561070357600080fd5b505af1158015610717573d6000803e3d6000fd5b505050506040513d602081101561072d57600080fd5b8101908080519060200190929190505050610793576040517f08c379a00000000000000000000000000000000000000000000000000000000081526004018080602001828103825260228152602001806111bc6022913960400191505060405180910390fd5b60006006600083815260200190815260200160002060000160006101000a81548160ff02191690831515021790555050565b60045481565b6000809054906101000a900473ffffffffffffffffffffffffffffffffffffffff1673ffffffffffffffffffffffffffffffffffffffff16632f54bf6e336040518263ffffffff1660e01b8152600401808273ffffffffffffffffffffffffffffffffffffffff1673ffffffffffffffffffffffffffffffffffffffff168152602001915050602060405180830381600087803b15801561086b57600080fd5b505af115801561087f573d6000803e3d6000fd5b505050506040513d602081101561089557600080fd5b81019080805190602001909291905050506108fb576040517f08c379a00000000000000000000000000000000000000000000000000000000081526004018080602001828103825260228152602001806111bc6022913960400191505060405180910390fd5b6000600360006101000a81548160ff021916908315150217905550565b60015481565b6000809054906101000a900473ffffffffffffffffffffffffffffffffffffffff1673ffffffffffffffffffffffffffffffffffffffff16632f54bf6e336040518263ffffffff1660e01b8152600401808273ffffffffffffffffffffffffffffffffffffffff1673ffffffffffffffffffffffffffffffffffffffff168152602001915050602060405180830381600087803b1580156109be57600080fd5b505af11580156109d2573d6000803e3d6000fd5b505050506040513d60208110156109e857600080fd5b8101908080519060200190929190505050610a4e576040517f08c379a00000000000000000000000000000000000000000000000000000000081526004018080602001828103825260228152602001806111bc6022913960400191505060405180910390fd5b60016006600083815260200190815260200160002060000160006101000a81548160ff0219169083151502179055508060066000838152602001908152602001600020600101819055507f3784e033ee28778700c45b7b5dc00a3b76095515425249233e3afbcb0ac09a67816040518082815260200191505060405180910390a150565b6000806000806006600086815260200190815260200160002060000160009054906101000a900460ff1660066000878152602001908152602001600020600201546006600088815260200190815260200160002060030154600660008981526020019081526020016000206004015493509350935093509193509193565b6000600760003373ffffffffffffffffffffffffffffffffffffffff1673ffffffffffffffffffffffffffffffffffffffff16815260200190815260200160002060009054906101000a900460ff1615610ba957600080fd5b8251845114610bb757600080fd5b8160025414610bc557600080fd5b6001600760003373ffffffffffffffffffffffffffffffffffffffff1673ffffffffffffffffffffffffffffffffffffffff16815260200190815260200160002060006101000a81548160ff02191690831515021790555060008090505b8451811015610db35760066000868381518110610c3c57fe5b6020026020010151815260200190815260200160002060000160009054906101000a900460ff16610c6c57600080fd5b600160066000878481518110610c7e57fe5b60200260200101518152602001908152602001600020600401540160066000878481518110610ca957fe5b6020026020010151815260200190815260200160002060040181905550838181518110610cd257fe5b602002602001015160066000878481518110610cea57fe5b60200260200101518152602001908152602001600020600301540160066000878481518110610d1557fe5b6020026020010151815260200190815260200160002060030181905550610d4e848281518110610d4157fe5b60200260200101516111b1565b60066000878481518110610d5e57fe5b60200260200101518152602001908152602001600020600201540160066000878481518110610d8957fe5b60200260200101518152602001908152602001600020600201819055508080600101915050610c23565b50600190509392505050565b600060149054906101000a900460ff1681565b60008060009054906101000a900473ffffffffffffffffffffffffffffffffffffffff1673ffffffffffffffffffffffffffffffffffffffff16632f54bf6e336040518263ffffffff1660e01b8152600401808273ffffffffffffffffffffffffffffffffffffffff1673ffffffffffffffffffffffffffffffffffffffff168152602001915050602060405180830381600087803b158015610e7457600080fd5b505af1158015610e88573d6000803e3d6000fd5b505050506040513d6020811015610e9e57600080fd5b8101908080519060200190929190505050610f04576040517f08c379a00000000000000000000000000000000000000000000000000000000081526004018080602001828103825260228152602001806111bc6022913960400191505060405180910390fd5b60008090505b865181101561117257600160066000898481518110610f2557fe5b60200260200101518152602001908152602001600020600401540160066000898481518110610f5057fe5b6020026020010151815260200190815260200160002060040181905550858181518110610f7957fe5b602002602001015160066000898481518110610f9157fe5b60200260200101518152602001908152602001600020600301540160066000898481518110610fbc57fe5b6020026020010151815260200190815260200160002060030181905550610ff5868281518110610fe857fe5b60200260200101516111b1565b6006600089848151811061100557fe5b6020026020010151815260200190815260200160002060020154016006600089848151811061103057fe5b60200260200101518152602001908152602001600020600201819055506000809054906101000a900473ffffffffffffffffffffffffffffffffffffffff1673ffffffffffffffffffffffffffffffffffffffff1663c7b7530786866040518363ffffffff1660e01b8152600401808373ffffffffffffffffffffffffffffffffffffffff1673ffffffffffffffffffffffffffffffffffffffff16815260200182815260200192505050600060405180830381600087803b1580156110f557600080fd5b505af1158015611109573d6000803e3d6000fd5b505050506001600760008573ffffffffffffffffffffffffffffffffffffffff1673ffffffffffffffffffffffffffffffffffffffff16815260200190815260200160002060006101000a81548160ff0219169083151502179055508080600101915050610f0a565b506001905095945050505050565b60025481565b60055481565b6000809054906101000a900473ffffffffffffffffffffffffffffffffffffffff1681565b600081905091905056fe4d6574686f642063616e206f6e6c792062652063616c6c6564206279206f776e6572a265627a7a7231582023f832fa6b4e122420fb1fabbca4dba9c26304cf5e1cc3eaa772fa8db5afc13564736f6c634300050c0032",
  "source": "pragma solidity ^0.5.0;\n\nimport './interfaces/CulturestakeI.sol';\n\ncontract Question {\n  address public admin;\n  uint8 public questionType;\n  bytes32 public question;\n  bytes32 public festival;\n  bool public active;\n  uint256 public maxVoteTokens;\n  uint256 public votes;\n  mapping (bytes32 => Answer) answers;\n  mapping (address => bool) public hasVoted;\n\n  struct Answer {\n    bool active;\n    bytes32 answer;\n    uint256 votePower;\n    uint256 voteTokens;\n    uint256 votes;\n  }\n\n  event InitAnswer(bytes32 answer);\n\n  modifier authorized() {\n      require(CulturestakeI(admin).isOwner(msg.sender), \"Method can only be called by owner\");\n      _;\n  }\n\n  constructor(\n    uint8 _questionType,\n    bytes32 _question,\n    uint256 _maxVoteTokens,\n    bytes32 _festival\n  ) public {\n    admin = msg.sender;\n    active = true;\n    maxVoteTokens = _maxVoteTokens;\n    questionType = _questionType;\n    question = _question;\n    festival = _festival;\n  }\n\n  function deactivateQuestion() public authorized {\n    active = false;\n  }\n\n  function initAnswer(bytes32 _answer) public authorized {\n    answers[_answer].active = true;\n    answers[_answer].answer = _answer;\n    emit InitAnswer(_answer);\n  }\n\n  function deactivateAnswer(bytes32 _answer) public authorized {\n    answers[_answer].active = false;\n  }\n\n  function getAnswer(bytes32 _answer) public returns (bool, uint256, uint256, uint256) {\n    return (\n      answers[_answer].active,\n      answers[_answer].votePower,\n      answers[_answer].voteTokens,\n      answers[_answer].votes\n    );\n  }\n\n  function sqrt(uint256 num) internal view returns (uint256) {\n    //should be the sqrt\n    return num;\n  }\n\n  function recordVote(\n    bytes32[] memory _answers,\n    uint256[] memory _voteTokens,\n    bytes32 _festival\n    //uint256 nonce\n    // uint8 sigV\n    // bytes32 sigR\n    // bytes32 sigS\n    ) public returns (bool) {\n    require(!hasVoted[msg.sender]);\n    require(_answers.length == _voteTokens.length);\n    require(festival == _festival);\n    //require validateVotingBooth(_festival, _answers, _nonce, sigV, sigR, sigS)\n    //require no duplicates in _answers array\n    //require not more than _maxVoteTokens\n    hasVoted[msg.sender] = true;\n    for (uint i = 0; i < _answers.length; i++) {\n      require(answers[_answers[i]].active);\n      answers[_answers[i]].votes = answers[_answers[i]].votes + 1;\n      answers[_answers[i]].voteTokens = answers[_answers[i]].voteTokens + _voteTokens[i];\n      answers[_answers[i]].votePower = answers[_answers[i]].votePower + sqrt(_voteTokens[i]);\n      //add event\n    }\n    return true;\n  }\n\n  function recordUnsignedVote(\n    bytes32[] memory _answers,\n    uint256[] memory _voteTokens,\n    address _booth,\n    uint256 _nonce,\n    address sender\n  ) public authorized returns (bool) {\n    for (uint i = 0; i < _answers.length; i++) {\n      answers[_answers[i]].votes = answers[_answers[i]].votes + 1;\n      answers[_answers[i]].voteTokens = answers[_answers[i]].voteTokens + _voteTokens[i];\n      answers[_answers[i]].votePower = answers[_answers[i]].votePower + sqrt(_voteTokens[i]);\n      CulturestakeI(admin).burnNonce(_booth, _nonce);\n      hasVoted[sender] = true;\n      //add event\n    }\n    return true;\n  }\n}",
  "sourcePath": "/media/000/Documents/culturestake/culturestake-contracts/contracts/Question.sol",
  "compiler": {
    "name": "solc",
    "version": "0.5.12+commit.7709ece9.Emscripten.clang"
  },
  "schemaVersion": "3.0.20",
  "updatedAt": "2020-03-30T14:59:58.836Z",
  "networkType": "ethereum",
  "devdoc": {
    "methods": {}
  },
  "userdoc": {
    "methods": {}
  }
}