{
  "contractName": "Question",
  "abi": [
    {
      "inputs": [
        {
          "internalType": "uint8",
          "name": "_questionType",
          "type": "uint8"
        },
        {
          "internalType": "bytes32",
          "name": "_question",
          "type": "bytes32"
        },
        {
          "internalType": "uint256",
          "name": "_maxVoteTokens",
          "type": "uint256"
        }
      ],
      "payable": false,
      "stateMutability": "nonpayable",
      "type": "constructor"
    },
    {
      "constant": false,
      "inputs": [],
      "name": "deactivateQuestion",
      "outputs": [],
      "payable": false,
      "stateMutability": "nonpayable",
      "type": "function"
    },
    {
      "constant": false,
      "inputs": [
        {
          "internalType": "bytes32",
          "name": "_sigS",
          "type": "bytes32"
        },
        {
          "internalType": "bytes32",
          "name": "_sigR",
          "type": "bytes32"
        },
        {
          "internalType": "uint8",
          "name": "_sigV",
          "type": "uint8"
        }
      ],
      "name": "initAnswer",
      "outputs": [],
      "payable": false,
      "stateMutability": "nonpayable",
      "type": "function"
    },
    {
      "constant": false,
      "inputs": [
        {
          "internalType": "bytes32",
          "name": "_answer",
          "type": "bytes32"
        }
      ],
      "name": "deactivateAnswer",
      "outputs": [],
      "payable": false,
      "stateMutability": "nonpayable",
      "type": "function"
    },
    {
      "constant": false,
      "inputs": [
        {
          "internalType": "address",
          "name": "sender",
          "type": "address"
        },
        {
          "internalType": "bytes32[]",
          "name": "_answers",
          "type": "bytes32[]"
        },
        {
          "internalType": "uint256[]",
          "name": "_voteTokens",
          "type": "uint256[]"
        }
      ],
      "name": "recordVote",
      "outputs": [
        {
          "internalType": "bool",
          "name": "",
          "type": "bool"
        }
      ],
      "payable": false,
      "stateMutability": "nonpayable",
      "type": "function"
    }
  ],
  "bytecode": "0x608060405234801561001057600080fd5b506040516109263803806109268339818101604052606081101561003357600080fd5b81019080805190602001909291908051906020019092919080519060200190929190505050336000806101000a81548173ffffffffffffffffffffffffffffffffffffffff021916908373ffffffffffffffffffffffffffffffffffffffff1602179055506001600260006101000a81548160ff0219169083151502179055508060038190555082600060146101000a81548160ff021916908360ff16021790555081600181905550505050610838806100ee6000396000f3fe608060405234801561001057600080fd5b506004361061004c5760003560e01c806315474c1014610051578063376f591b1461007f5780634c2b05c714610089578063b0ffca311461020d575b600080fd5b61007d6004803603602081101561006757600080fd5b8101908080359060200190929190505050610252565b005b610087610329565b005b6101f36004803603606081101561009f57600080fd5b81019080803573ffffffffffffffffffffffffffffffffffffffff169060200190929190803590602001906401000000008111156100dc57600080fd5b8201836020820111156100ee57600080fd5b8035906020019184602083028401116401000000008311171561011057600080fd5b919080806020026020016040519081016040528093929190818152602001838360200280828437600081840152601f19601f8201169050808301925050505050505091929192908035906020019064010000000081111561017057600080fd5b82018360208201111561018257600080fd5b803590602001918460208302840111640100000000831117156101a457600080fd5b919080806020026020016040519081016040528093929190818152602001838360200280828437600081840152601f19601f8201169050808301925050505050505091929192905050506103eb565b604051808215151515815260200191505060405180910390f35b6102506004803603606081101561022357600080fd5b810190808035906020019092919080359060200190929190803560ff169060200190929190505050610699565b005b3373ffffffffffffffffffffffffffffffffffffffff166000809054906101000a900473ffffffffffffffffffffffffffffffffffffffff1673ffffffffffffffffffffffffffffffffffffffff16146102f7576040517f08c379a00000000000000000000000000000000000000000000000000000000081526004018080602001828103825260228152602001806107e26022913960400191505060405180910390fd5b60006005600083815260200190815260200160002060000160006101000a81548160ff02191690831515021790555050565b3373ffffffffffffffffffffffffffffffffffffffff166000809054906101000a900473ffffffffffffffffffffffffffffffffffffffff1673ffffffffffffffffffffffffffffffffffffffff16146103ce576040517f08c379a00000000000000000000000000000000000000000000000000000000081526004018080602001828103825260228152602001806107e26022913960400191505060405180910390fd5b6000600260006101000a81548160ff021916908315150217905550565b60003373ffffffffffffffffffffffffffffffffffffffff166000809054906101000a900473ffffffffffffffffffffffffffffffffffffffff1673ffffffffffffffffffffffffffffffffffffffff1614610492576040517f08c379a00000000000000000000000000000000000000000000000000000000081526004018080602001828103825260228152602001806107e26022913960400191505060405180910390fd5b600660008573ffffffffffffffffffffffffffffffffffffffff1673ffffffffffffffffffffffffffffffffffffffff16815260200190815260200160002060009054906101000a900460ff16156104e957600080fd5b81518351146104f757600080fd5b60008090505b835181101561068d576005600085838151811061051657fe5b6020026020010151815260200190815260200160002060000160009054906101000a900460ff1661054657600080fd5b60016005600086848151811061055857fe5b6020026020010151815260200190815260200160002060060154016005600086848151811061058357fe5b60200260200101518152602001908152602001600020600601819055508281815181106105ac57fe5b6020026020010151600560008684815181106105c457fe5b602002602001015181526020019081526020016000206005015401600560008684815181106105ef57fe5b602002602001015181526020019081526020016000206005018190555061062883828151811061061b57fe5b60200260200101516107d7565b6005600086848151811061063857fe5b6020026020010151815260200190815260200160002060040154016005600086848151811061066357fe5b602002602001015181526020019081526020016000206004018190555080806001019150506104fd565b50600190509392505050565b3373ffffffffffffffffffffffffffffffffffffffff166000809054906101000a900473ffffffffffffffffffffffffffffffffffffffff1673ffffffffffffffffffffffffffffffffffffffff161461073e576040517f08c379a00000000000000000000000000000000000000000000000000000000081526004018080602001828103825260228152602001806107e26022913960400191505060405180910390fd5b60016005600085815260200190815260200160002060000160006101000a81548160ff021916908315150217905550826005600085815260200190815260200160002060010181905550816005600085815260200190815260200160002060020181905550806005600085815260200190815260200160002060030160006101000a81548160ff021916908360ff160217905550505050565b600081905091905056fe4d6574686f642063616e206f6e6c792062652063616c6c6564206279206f776e6572a265627a7a723158205886041e941a4bf275656cc010ccd0a0e6fdffce58f4b906b1d885b9233a20d264736f6c634300050c0032",
  "source": "pragma solidity ^0.5.0;\n\nimport './Admin.sol';\n\ncontract Question {\n  address admin;\n  uint8 questionType;\n  bytes32 question;\n  bool active;\n  uint256 maxVoteTokens;\n  uint256 votes;\n  mapping (bytes32 => Answer) answers;\n  mapping (address => bool) hasVoted;\n\n  struct Answer {\n    bool active;\n    bytes32 sigS;\n    bytes32 sigR;\n    uint8 sigV;\n    uint256 votePower;\n    uint256 voteTokens;\n    uint256 votes;\n  }\n\n  modifier authorized() {\n      require(admin == msg.sender, \"Method can only be called by owner\");\n      _;\n  }\n\n  modifier onlyRelayer() {\n    // should check relayer whitelist in admin contract\n    require(admin == msg.sender, \"Method can only be called by owner\");\n    _;\n  }\n\n  constructor(\n    uint8 _questionType,\n    bytes32 _question,\n    uint256 _maxVoteTokens\n    ) public {\n    admin = msg.sender;\n    active = true;\n    maxVoteTokens = _maxVoteTokens;\n    questionType = _questionType;\n    question = _question;\n  }\n\n  function deactivateQuestion() public authorized {\n    active = false;\n  }\n\n  function initAnswer(bytes32 _sigS, bytes32 _sigR, uint8 _sigV) public authorized {\n    answers[_sigS].active = true;\n    answers[_sigS].sigS = _sigS;\n    answers[_sigS].sigR = _sigR;\n    answers[_sigS].sigV = _sigV;\n  }\n\n  function deactivateAnswer(bytes32 _answer) public authorized {\n    answers[_answer].active = false;\n  }\n\n  function sqrt(uint256 num) internal view returns (uint256) {\n    //should be the sqrt\n    return num;\n  }\n\n  function recordVote(\n    address sender,\n    bytes32[] memory _answers,\n    uint256[] memory _voteTokens\n    //string memory _festival\n    //uint256 nonce\n    // uint8 sigV\n    // bytes32 sigR\n    // bytes32 sigS\n\n    ) public onlyRelayer returns (bool) {\n\n    require(!hasVoted[sender]);\n    require(_answers.length == _voteTokens.length);\n    //require isValidVotingBooth(_festival, _answers, _nonce, sigV, sigR, sigS)\n    //require no duplicates in _answers array\n    //require all answers array are in signed answers\n\n    for (uint i = 0; i < _answers.length; i++) {\n      require(answers[_answers[i]].active);\n      answers[_answers[i]].votes = answers[_answers[i]].votes + 1;\n      answers[_answers[i]].voteTokens = answers[_answers[i]].voteTokens + _voteTokens[i];\n      answers[_answers[i]].votePower = answers[_answers[i]].votePower + sqrt(_voteTokens[i]);\n      //add event\n    }\n    return true;\n  }\n}",
  "sourcePath": "/media/000/Documents/culturestake/culturestake-contracts/contracts/Question.sol",
  "compiler": {
    "name": "solc",
    "version": "0.5.12+commit.7709ece9.Emscripten.clang"
  },
  "schemaVersion": "3.0.20",
  "updatedAt": "2020-03-06T09:54:23.656Z",
  "devdoc": {
    "methods": {}
  },
  "userdoc": {
    "methods": {}
  }
}