{
  "contractName": "Question",
  "abi": [
    {
      "inputs": [
        {
          "internalType": "uint8",
          "name": "_questionType",
          "type": "uint8"
        },
        {
          "internalType": "bytes32",
          "name": "_question",
          "type": "bytes32"
        },
        {
          "internalType": "uint256",
          "name": "_maxVoteTokens",
          "type": "uint256"
        },
        {
          "internalType": "bytes32",
          "name": "_festival",
          "type": "bytes32"
        }
      ],
      "payable": false,
      "stateMutability": "nonpayable",
      "type": "constructor"
    },
    {
      "anonymous": false,
      "inputs": [
        {
          "indexed": false,
          "internalType": "address",
          "name": "sender",
          "type": "address"
        },
        {
          "indexed": false,
          "internalType": "bool",
          "name": "val",
          "type": "bool"
        }
      ],
      "name": "AuthorizedTest",
      "type": "event"
    },
    {
      "anonymous": false,
      "inputs": [
        {
          "indexed": false,
          "internalType": "bytes32",
          "name": "answer",
          "type": "bytes32"
        }
      ],
      "name": "InitAnswer",
      "type": "event"
    },
    {
      "constant": true,
      "inputs": [],
      "name": "admin",
      "outputs": [
        {
          "internalType": "address",
          "name": "",
          "type": "address"
        }
      ],
      "payable": false,
      "stateMutability": "view",
      "type": "function"
    },
    {
      "constant": true,
      "inputs": [],
      "name": "festival",
      "outputs": [
        {
          "internalType": "bytes32",
          "name": "",
          "type": "bytes32"
        }
      ],
      "payable": false,
      "stateMutability": "view",
      "type": "function"
    },
    {
      "constant": true,
      "inputs": [
        {
          "internalType": "address",
          "name": "",
          "type": "address"
        }
      ],
      "name": "hasVoted",
      "outputs": [
        {
          "internalType": "bool",
          "name": "",
          "type": "bool"
        }
      ],
      "payable": false,
      "stateMutability": "view",
      "type": "function"
    },
    {
      "constant": true,
      "inputs": [],
      "name": "maxVoteTokens",
      "outputs": [
        {
          "internalType": "uint256",
          "name": "",
          "type": "uint256"
        }
      ],
      "payable": false,
      "stateMutability": "view",
      "type": "function"
    },
    {
      "constant": true,
      "inputs": [],
      "name": "question",
      "outputs": [
        {
          "internalType": "bytes32",
          "name": "",
          "type": "bytes32"
        }
      ],
      "payable": false,
      "stateMutability": "view",
      "type": "function"
    },
    {
      "constant": true,
      "inputs": [],
      "name": "questionType",
      "outputs": [
        {
          "internalType": "uint8",
          "name": "",
          "type": "uint8"
        }
      ],
      "payable": false,
      "stateMutability": "view",
      "type": "function"
    },
    {
      "constant": true,
      "inputs": [],
      "name": "votes",
      "outputs": [
        {
          "internalType": "uint256",
          "name": "",
          "type": "uint256"
        }
      ],
      "payable": false,
      "stateMutability": "view",
      "type": "function"
    },
    {
      "constant": false,
      "inputs": [
        {
          "internalType": "bytes32",
          "name": "_answer",
          "type": "bytes32"
        }
      ],
      "name": "initAnswer",
      "outputs": [],
      "payable": false,
      "stateMutability": "nonpayable",
      "type": "function"
    },
    {
      "constant": false,
      "inputs": [
        {
          "internalType": "bytes32",
          "name": "_answer",
          "type": "bytes32"
        }
      ],
      "name": "deactivateAnswer",
      "outputs": [],
      "payable": false,
      "stateMutability": "nonpayable",
      "type": "function"
    },
    {
      "constant": true,
      "inputs": [
        {
          "internalType": "address",
          "name": "",
          "type": "address"
        }
      ],
      "name": "authorizedTest",
      "outputs": [
        {
          "internalType": "bool",
          "name": "",
          "type": "bool"
        }
      ],
      "payable": false,
      "stateMutability": "view",
      "type": "function"
    },
    {
      "constant": false,
      "inputs": [
        {
          "internalType": "bytes32",
          "name": "_answer",
          "type": "bytes32"
        }
      ],
      "name": "getAnswer",
      "outputs": [
        {
          "internalType": "bool",
          "name": "",
          "type": "bool"
        },
        {
          "internalType": "uint256",
          "name": "",
          "type": "uint256"
        },
        {
          "internalType": "uint256",
          "name": "",
          "type": "uint256"
        },
        {
          "internalType": "uint256",
          "name": "",
          "type": "uint256"
        }
      ],
      "payable": false,
      "stateMutability": "nonpayable",
      "type": "function"
    },
    {
      "constant": false,
      "inputs": [
        {
          "internalType": "bytes32[]",
          "name": "_answers",
          "type": "bytes32[]"
        },
        {
          "internalType": "uint256[]",
          "name": "_voteTokens",
          "type": "uint256[]"
        },
        {
          "internalType": "bytes32",
          "name": "_festival",
          "type": "bytes32"
        },
        {
          "internalType": "uint256",
          "name": "_nonce",
          "type": "uint256"
        },
        {
          "internalType": "uint8",
          "name": "sigV",
          "type": "uint8"
        },
        {
          "internalType": "bytes32",
          "name": "sigR",
          "type": "bytes32"
        },
        {
          "internalType": "bytes32",
          "name": "sigS",
          "type": "bytes32"
        }
      ],
      "name": "recordVote",
      "outputs": [
        {
          "internalType": "bool",
          "name": "",
          "type": "bool"
        }
      ],
      "payable": false,
      "stateMutability": "nonpayable",
      "type": "function"
    },
    {
      "constant": false,
      "inputs": [
        {
          "internalType": "bytes32[]",
          "name": "_answers",
          "type": "bytes32[]"
        },
        {
          "internalType": "uint256[]",
          "name": "_voteTokens",
          "type": "uint256[]"
        },
        {
          "internalType": "address",
          "name": "_booth",
          "type": "address"
        },
        {
          "internalType": "uint256",
          "name": "_nonce",
          "type": "uint256"
        },
        {
          "internalType": "address",
          "name": "sender",
          "type": "address"
        }
      ],
      "name": "recordUnsignedVote",
      "outputs": [
        {
          "internalType": "bool",
          "name": "",
          "type": "bool"
        }
      ],
      "payable": false,
      "stateMutability": "nonpayable",
      "type": "function"
    }
  ],
  "bytecode": "0x608060405234801561001057600080fd5b506040516115af3803806115af8339818101604052608081101561003357600080fd5b8101908080519060200190929190805190602001909291908051906020019092919080519060200190929190505050336000806101000a81548173ffffffffffffffffffffffffffffffffffffffff021916908373ffffffffffffffffffffffffffffffffffffffff1602179055508160038190555083600060146101000a81548160ff021916908360ff1602179055508260018190555080600281905550505050506114ca806100e56000396000f3fe608060405234801561001057600080fd5b50600436106100cf5760003560e01c8063918feec81161008c578063ad1b2b7411610066578063ad1b2b741461058e578063e168c3ec146105ac578063e2757fda146105ca578063f851a44014610626576100cf565b8063918feec8146102235780639840290214610247578063a6a1ef55146103f5576100cf565b806309eef43e146100d457806315474c101461013057806336ddc96f1461015e5780633fad9ae01461017c57806346c231cb1461019a5780638a4599c7146101c8575b600080fd5b610116600480360360208110156100ea57600080fd5b81019080803573ffffffffffffffffffffffffffffffffffffffff169060200190929190505050610670565b604051808215151515815260200191505060405180910390f35b61015c6004803603602081101561014657600080fd5b8101908080359060200190929190505050610690565b005b61016661080d565b6040518082815260200191505060405180910390f35b610184610813565b6040518082815260200191505060405180910390f35b6101c6600480360360208110156101b057600080fd5b8101908080359060200190929190505050610819565b005b6101f4600480360360208110156101de57600080fd5b81019080803590602001909291905050506109e8565b604051808515151515815260200184815260200183815260200182815260200194505050505060405180910390f35b61022b610a66565b604051808260ff1660ff16815260200191505060405180910390f35b6103db600480360360a081101561025d57600080fd5b810190808035906020019064010000000081111561027a57600080fd5b82018360208201111561028c57600080fd5b803590602001918460208302840111640100000000831117156102ae57600080fd5b919080806020026020016040519081016040528093929190818152602001838360200280828437600081840152601f19601f8201169050808301925050505050505091929192908035906020019064010000000081111561030e57600080fd5b82018360208201111561032057600080fd5b8035906020019184602083028401116401000000008311171561034257600080fd5b919080806020026020016040519081016040528093929190818152602001838360200280828437600081840152601f19601f820116905080830192505050505050509192919290803573ffffffffffffffffffffffffffffffffffffffff16906020019092919080359060200190929190803573ffffffffffffffffffffffffffffffffffffffff169060200190929190505050610a79565b604051808215151515815260200191505060405180910390f35b610574600480360360e081101561040b57600080fd5b810190808035906020019064010000000081111561042857600080fd5b82018360208201111561043a57600080fd5b8035906020019184602083028401116401000000008311171561045c57600080fd5b919080806020026020016040519081016040528093929190818152602001838360200280828437600081840152601f19601f820116905080830192505050505050509192919290803590602001906401000000008111156104bc57600080fd5b8201836020820111156104ce57600080fd5b803590602001918460208302840111640100000000831117156104f057600080fd5b919080806020026020016040519081016040528093929190818152602001838360200280828437600081840152601f19601f8201169050808301925050505050505091929192908035906020019092919080359060200190929190803560ff1690602001909291908035906020019092919080359060200190929190505050610e42565b604051808215151515815260200191505060405180910390f35b610596611378565b6040518082815260200191505060405180910390f35b6105b461137e565b6040518082815260200191505060405180910390f35b61060c600480360360208110156105e057600080fd5b81019080803573ffffffffffffffffffffffffffffffffffffffff169060200190929190505050611384565b604051808215151515815260200191505060405180910390f35b61062e611466565b604051808273ffffffffffffffffffffffffffffffffffffffff1673ffffffffffffffffffffffffffffffffffffffff16815260200191505060405180910390f35b60066020528060005260406000206000915054906101000a900460ff1681565b6000809054906101000a900473ffffffffffffffffffffffffffffffffffffffff1673ffffffffffffffffffffffffffffffffffffffff16632f54bf6e336040518263ffffffff1660e01b8152600401808273ffffffffffffffffffffffffffffffffffffffff1673ffffffffffffffffffffffffffffffffffffffff16815260200191505060206040518083038186803b15801561072e57600080fd5b505afa158015610742573d6000803e3d6000fd5b505050506040513d602081101561075857600080fd5b81019080805190602001909291905050506107db576040517f08c379a00000000000000000000000000000000000000000000000000000000081526004018080602001828103825260108152602001807f4d75737420626520616e2061646d696e0000000000000000000000000000000081525060200191505060405180910390fd5b60006005600083815260200190815260200160002060000160006101000a81548160ff02191690831515021790555050565b60035481565b60015481565b6000809054906101000a900473ffffffffffffffffffffffffffffffffffffffff1673ffffffffffffffffffffffffffffffffffffffff16632f54bf6e336040518263ffffffff1660e01b8152600401808273ffffffffffffffffffffffffffffffffffffffff1673ffffffffffffffffffffffffffffffffffffffff16815260200191505060206040518083038186803b1580156108b757600080fd5b505afa1580156108cb573d6000803e3d6000fd5b505050506040513d60208110156108e157600080fd5b8101908080519060200190929190505050610964576040517f08c379a00000000000000000000000000000000000000000000000000000000081526004018080602001828103825260108152602001807f4d75737420626520616e2061646d696e0000000000000000000000000000000081525060200191505060405180910390fd5b60016005600083815260200190815260200160002060000160006101000a81548160ff0219169083151502179055508060056000838152602001908152602001600020600101819055507f3784e033ee28778700c45b7b5dc00a3b76095515425249233e3afbcb0ac09a67816040518082815260200191505060405180910390a150565b6000806000806005600086815260200190815260200160002060000160009054906101000a900460ff1660056000878152602001908152602001600020600201546005600088815260200190815260200160002060030154600560008981526020019081526020016000206004015493509350935093509193509193565b600060149054906101000a900460ff1681565b60008060009054906101000a900473ffffffffffffffffffffffffffffffffffffffff1673ffffffffffffffffffffffffffffffffffffffff16632f54bf6e336040518263ffffffff1660e01b8152600401808273ffffffffffffffffffffffffffffffffffffffff1673ffffffffffffffffffffffffffffffffffffffff16815260200191505060206040518083038186803b158015610b1957600080fd5b505afa158015610b2d573d6000803e3d6000fd5b505050506040513d6020811015610b4357600080fd5b8101908080519060200190929190505050610bc6576040517f08c379a00000000000000000000000000000000000000000000000000000000081526004018080602001828103825260108152602001807f4d75737420626520616e2061646d696e0000000000000000000000000000000081525060200191505060405180910390fd5b60008090505b8651811015610e3457600160056000898481518110610be757fe5b60200260200101518152602001908152602001600020600401540160056000898481518110610c1257fe5b6020026020010151815260200190815260200160002060040181905550858181518110610c3b57fe5b602002602001015160056000898481518110610c5357fe5b60200260200101518152602001908152602001600020600301540160056000898481518110610c7e57fe5b6020026020010151815260200190815260200160002060030181905550610cb7868281518110610caa57fe5b602002602001015161148b565b60056000898481518110610cc757fe5b60200260200101518152602001908152602001600020600201540160056000898481518110610cf257fe5b60200260200101518152602001908152602001600020600201819055506000809054906101000a900473ffffffffffffffffffffffffffffffffffffffff1673ffffffffffffffffffffffffffffffffffffffff1663c7b7530786866040518363ffffffff1660e01b8152600401808373ffffffffffffffffffffffffffffffffffffffff1673ffffffffffffffffffffffffffffffffffffffff16815260200182815260200192505050600060405180830381600087803b158015610db757600080fd5b505af1158015610dcb573d6000803e3d6000fd5b505050506001600660008573ffffffffffffffffffffffffffffffffffffffff1673ffffffffffffffffffffffffffffffffffffffff16815260200190815260200160002060006101000a81548160ff0219169083151502179055508080600101915050610bcc565b506001905095945050505050565b60008060009054906101000a900473ffffffffffffffffffffffffffffffffffffffff1673ffffffffffffffffffffffffffffffffffffffff16636a064d2d306040518263ffffffff1660e01b8152600401808273ffffffffffffffffffffffffffffffffffffffff1673ffffffffffffffffffffffffffffffffffffffff168152602001915050602060405180830381600087803b158015610ee457600080fd5b505af1158015610ef8573d6000803e3d6000fd5b505050506040513d6020811015610f0e57600080fd5b8101908080519060200190929190505050610f2857600080fd5b600660003373ffffffffffffffffffffffffffffffffffffffff1673ffffffffffffffffffffffffffffffffffffffff16815260200190815260200160002060009054906101000a900460ff1615610f7f57600080fd5b8651885114610f8d57600080fd5b8560025414610f9b57600080fd5b6000809054906101000a900473ffffffffffffffffffffffffffffffffffffffff1673ffffffffffffffffffffffffffffffffffffffff16639bd09723876040518263ffffffff1660e01b815260040180828152602001915050602060405180830381600087803b15801561100f57600080fd5b505af1158015611023573d6000803e3d6000fd5b505050506040513d602081101561103957600080fd5b810190808051906020019092919050505061105357600080fd5b6000809054906101000a900473ffffffffffffffffffffffffffffffffffffffff1673ffffffffffffffffffffffffffffffffffffffff16633823a473878a888888886040518763ffffffff1660e01b815260040180878152602001806020018681526020018560ff1660ff168152602001848152602001838152602001828103825287818151815260200191508051906020019060200280838360005b8381101561110c5780820151818401526020810190506110f1565b50505050905001975050505050505050602060405180830381600087803b15801561113657600080fd5b505af115801561114a573d6000803e3d6000fd5b505050506040513d602081101561116057600080fd5b810190808051906020019092919050505061117a57600080fd5b6001600660003373ffffffffffffffffffffffffffffffffffffffff1673ffffffffffffffffffffffffffffffffffffffff16815260200190815260200160002060006101000a81548160ff02191690831515021790555060008090505b885181101561136857600560008a83815181106111f157fe5b6020026020010151815260200190815260200160002060000160009054906101000a900460ff1661122157600080fd5b6001600560008b848151811061123357fe5b602002602001015181526020019081526020016000206004015401600560008b848151811061125e57fe5b602002602001015181526020019081526020016000206004018190555087818151811061128757fe5b6020026020010151600560008b848151811061129f57fe5b602002602001015181526020019081526020016000206003015401600560008b84815181106112ca57fe5b60200260200101518152602001908152602001600020600301819055506113038882815181106112f657fe5b602002602001015161148b565b600560008b848151811061131357fe5b602002602001015181526020019081526020016000206002015401600560008b848151811061133e57fe5b602002602001015181526020019081526020016000206002018190555080806001019150506111d8565b5060019050979650505050505050565b60025481565b60045481565b60008060009054906101000a900473ffffffffffffffffffffffffffffffffffffffff1673ffffffffffffffffffffffffffffffffffffffff16632f54bf6e336040518263ffffffff1660e01b8152600401808273ffffffffffffffffffffffffffffffffffffffff1673ffffffffffffffffffffffffffffffffffffffff16815260200191505060206040518083038186803b15801561142457600080fd5b505afa158015611438573d6000803e3d6000fd5b505050506040513d602081101561144e57600080fd5b81019080805190602001909291905050509050919050565b6000809054906101000a900473ffffffffffffffffffffffffffffffffffffffff1681565b600081905091905056fea265627a7a72315820649cdc2c41c03dccf67f19e1fc93e6c2b43a5140c85fcad365d9eda69900329c64736f6c634300050c0032",
  "source": "pragma solidity ^0.5.0;\n\nimport './interfaces/CulturestakeI.sol';\n\ncontract Question {\n  address public admin;\n  uint8 public questionType;\n  bytes32 public question;\n  bytes32 public festival;\n  uint256 public maxVoteTokens;\n  uint256 public votes;\n  mapping (bytes32 => Answer) answers;\n  mapping (address => bool) public hasVoted;\n\n  struct Answer {\n    bool active;\n    bytes32 answer;\n    uint256 votePower;\n    uint256 voteTokens;\n    uint256 votes;\n  }\n\n  event InitAnswer(bytes32 answer);\n\n  event AuthorizedTest(address sender, bool val);\n\n  modifier authorized() {\n      // bool authorized = CulturestakeI(admin).isOwner(msg.sender);\n      // emit AuthorizedTest(msg.sender, authorized);\n      require(CulturestakeI(admin).isOwner(msg.sender), \"Must be an admin\" );\n      _;\n  }\n\n  constructor(\n    uint8 _questionType,\n    bytes32 _question,\n    uint256 _maxVoteTokens,\n    bytes32 _festival\n  ) public {\n    admin = msg.sender;\n    maxVoteTokens = _maxVoteTokens;\n    questionType = _questionType;\n    question = _question;\n    festival = _festival;\n  }\n\n  function initAnswer(bytes32 _answer) public authorized {\n    answers[_answer].active = true;\n    answers[_answer].answer = _answer;\n    emit InitAnswer(_answer);\n  }\n\n  function deactivateAnswer(bytes32 _answer) public authorized {\n    answers[_answer].active = false;\n  }\n\n  function authorizedTest(address) public view returns (bool) {\n    return CulturestakeI(admin).isOwner(msg.sender);\n  }\n\n  function getAnswer(bytes32 _answer) public returns (bool, uint256, uint256, uint256) {\n    return (\n      answers[_answer].active,\n      answers[_answer].votePower,\n      answers[_answer].voteTokens,\n      answers[_answer].votes\n    );\n  }\n\n  function sqrt(uint256 num) internal view returns (uint256) {\n    //should be the sqrt\n    return num;\n  }\n\n  function recordVote(\n    bytes32[] memory _answers,\n    uint256[] memory _voteTokens,\n    bytes32 _festival,\n    uint256 _nonce,\n    uint8 sigV,\n    bytes32 sigR,\n    bytes32 sigS\n  ) public returns (bool) {\n    require(CulturestakeI(admin).questions(address(this)));\n    require(!hasVoted[msg.sender]);\n    require(_answers.length == _voteTokens.length);\n    require(festival == _festival);\n    require(CulturestakeI(admin).isValidFestival(_festival));\n    require(CulturestakeI(admin).validateVotingBooth(_festival, _answers, _nonce, sigV, sigR, sigS));\n    //require no duplicates in _answers array\n    //require not more than _maxVoteTokens\n    hasVoted[msg.sender] = true;\n    for (uint i = 0; i < _answers.length; i++) {\n      require(answers[_answers[i]].active);\n      answers[_answers[i]].votes = answers[_answers[i]].votes + 1;\n      answers[_answers[i]].voteTokens = answers[_answers[i]].voteTokens + _voteTokens[i];\n      answers[_answers[i]].votePower = answers[_answers[i]].votePower + sqrt(_voteTokens[i]);\n      //add event\n    }\n    return true;\n  }\n\n  function recordUnsignedVote(\n    bytes32[] memory _answers,\n    uint256[] memory _voteTokens,\n    address _booth,\n    uint256 _nonce,\n    address sender\n  ) public authorized returns (bool) {\n    // this method assumes all checks have been done by an admin\n    for (uint i = 0; i < _answers.length; i++) {\n      answers[_answers[i]].votes = answers[_answers[i]].votes + 1;\n      answers[_answers[i]].voteTokens = answers[_answers[i]].voteTokens + _voteTokens[i];\n      answers[_answers[i]].votePower = answers[_answers[i]].votePower + sqrt(_voteTokens[i]);\n      CulturestakeI(admin).burnNonce(_booth, _nonce);\n      hasVoted[sender] = true;\n      //add event\n    }\n    return true;\n  }\n}",
  "sourcePath": "/media/000/Documents/culturestake/culturestake-contracts/contracts/Question.sol",
  "compiler": {
    "name": "solc",
    "version": "0.5.12+commit.7709ece9.Emscripten.clang"
  },
  "schemaVersion": "3.0.20",
  "updatedAt": "2020-04-03T17:06:25.731Z",
  "networkType": "ethereum",
  "devdoc": {
    "methods": {}
  },
  "userdoc": {
    "methods": {}
  }
}