{
  "contractName": "Question",
  "abi": [
    {
      "anonymous": false,
      "inputs": [
        {
          "indexed": false,
          "internalType": "bytes32",
          "name": "questionId",
          "type": "bytes32"
        },
        {
          "indexed": true,
          "internalType": "bytes32",
          "name": "answer",
          "type": "bytes32"
        }
      ],
      "name": "DeactivateAnswer",
      "type": "event"
    },
    {
      "anonymous": false,
      "inputs": [
        {
          "indexed": false,
          "internalType": "bytes32",
          "name": "questionId",
          "type": "bytes32"
        },
        {
          "indexed": true,
          "internalType": "bytes32",
          "name": "answer",
          "type": "bytes32"
        }
      ],
      "name": "InitAnswer",
      "type": "event"
    },
    {
      "anonymous": false,
      "inputs": [
        {
          "indexed": false,
          "internalType": "bytes32",
          "name": "questionId",
          "type": "bytes32"
        },
        {
          "indexed": true,
          "internalType": "bytes32",
          "name": "answer",
          "type": "bytes32"
        },
        {
          "indexed": false,
          "internalType": "uint256",
          "name": "voteTokens",
          "type": "uint256"
        },
        {
          "indexed": false,
          "internalType": "uint256",
          "name": "votePower",
          "type": "uint256"
        },
        {
          "indexed": false,
          "internalType": "uint256",
          "name": "votes",
          "type": "uint256"
        },
        {
          "indexed": false,
          "internalType": "address",
          "name": "booth",
          "type": "address"
        },
        {
          "indexed": false,
          "internalType": "uint256",
          "name": "nonce",
          "type": "uint256"
        }
      ],
      "name": "Vote",
      "type": "event"
    },
    {
      "constant": true,
      "inputs": [],
      "name": "admin",
      "outputs": [
        {
          "internalType": "address",
          "name": "",
          "type": "address"
        }
      ],
      "payable": false,
      "stateMutability": "view",
      "type": "function"
    },
    {
      "constant": true,
      "inputs": [],
      "name": "configured",
      "outputs": [
        {
          "internalType": "bool",
          "name": "",
          "type": "bool"
        }
      ],
      "payable": false,
      "stateMutability": "view",
      "type": "function"
    },
    {
      "constant": true,
      "inputs": [],
      "name": "festival",
      "outputs": [
        {
          "internalType": "bytes32",
          "name": "",
          "type": "bytes32"
        }
      ],
      "payable": false,
      "stateMutability": "view",
      "type": "function"
    },
    {
      "constant": true,
      "inputs": [
        {
          "internalType": "address",
          "name": "",
          "type": "address"
        }
      ],
      "name": "hasVoted",
      "outputs": [
        {
          "internalType": "bool",
          "name": "",
          "type": "bool"
        }
      ],
      "payable": false,
      "stateMutability": "view",
      "type": "function"
    },
    {
      "constant": true,
      "inputs": [],
      "name": "id",
      "outputs": [
        {
          "internalType": "bytes32",
          "name": "",
          "type": "bytes32"
        }
      ],
      "payable": false,
      "stateMutability": "view",
      "type": "function"
    },
    {
      "constant": true,
      "inputs": [],
      "name": "maxVoteTokens",
      "outputs": [
        {
          "internalType": "uint256",
          "name": "",
          "type": "uint256"
        }
      ],
      "payable": false,
      "stateMutability": "view",
      "type": "function"
    },
    {
      "constant": true,
      "inputs": [],
      "name": "votes",
      "outputs": [
        {
          "internalType": "uint256",
          "name": "",
          "type": "uint256"
        }
      ],
      "payable": false,
      "stateMutability": "view",
      "type": "function"
    },
    {
      "constant": false,
      "inputs": [
        {
          "internalType": "address",
          "name": "_admin",
          "type": "address"
        },
        {
          "internalType": "bytes32",
          "name": "_question",
          "type": "bytes32"
        },
        {
          "internalType": "uint256",
          "name": "_maxVoteTokens",
          "type": "uint256"
        },
        {
          "internalType": "bytes32",
          "name": "_festival",
          "type": "bytes32"
        }
      ],
      "name": "setup",
      "outputs": [],
      "payable": false,
      "stateMutability": "nonpayable",
      "type": "function"
    },
    {
      "constant": true,
      "inputs": [],
      "name": "thisQuestionIsActive",
      "outputs": [
        {
          "internalType": "bool",
          "name": "",
          "type": "bool"
        }
      ],
      "payable": false,
      "stateMutability": "view",
      "type": "function"
    },
    {
      "constant": false,
      "inputs": [
        {
          "internalType": "bytes32",
          "name": "_answer",
          "type": "bytes32"
        }
      ],
      "name": "initAnswer",
      "outputs": [],
      "payable": false,
      "stateMutability": "nonpayable",
      "type": "function"
    },
    {
      "constant": false,
      "inputs": [
        {
          "internalType": "bytes32",
          "name": "_answer",
          "type": "bytes32"
        }
      ],
      "name": "deactivateAnswer",
      "outputs": [],
      "payable": false,
      "stateMutability": "nonpayable",
      "type": "function"
    },
    {
      "constant": false,
      "inputs": [
        {
          "internalType": "bytes32",
          "name": "_answer",
          "type": "bytes32"
        }
      ],
      "name": "getAnswer",
      "outputs": [
        {
          "internalType": "bool",
          "name": "",
          "type": "bool"
        },
        {
          "internalType": "bool",
          "name": "",
          "type": "bool"
        },
        {
          "internalType": "uint256",
          "name": "",
          "type": "uint256"
        },
        {
          "internalType": "uint256",
          "name": "",
          "type": "uint256"
        },
        {
          "internalType": "uint256",
          "name": "",
          "type": "uint256"
        }
      ],
      "payable": false,
      "stateMutability": "nonpayable",
      "type": "function"
    },
    {
      "constant": false,
      "inputs": [
        {
          "internalType": "bytes32[]",
          "name": "_answers",
          "type": "bytes32[]"
        },
        {
          "internalType": "uint256[]",
          "name": "_voteTokens",
          "type": "uint256[]"
        },
        {
          "internalType": "uint256[]",
          "name": "_votePowers",
          "type": "uint256[]"
        },
        {
          "internalType": "address",
          "name": "_booth",
          "type": "address"
        },
        {
          "internalType": "uint256",
          "name": "_nonce",
          "type": "uint256"
        }
      ],
      "name": "recordUnsignedVote",
      "outputs": [
        {
          "internalType": "bool",
          "name": "",
          "type": "bool"
        }
      ],
      "payable": false,
      "stateMutability": "nonpayable",
      "type": "function"
    }
  ],
  "bytecode": "0x608060405234801561001057600080fd5b50611357806100206000396000f3fe608060405234801561001057600080fd5b50600436106100cf5760003560e01c806346c231cb1161008c578063ad1b2b7411610066578063ad1b2b74146104d8578063af640d0f146104f6578063e168c3ec14610514578063f851a44014610532576100cf565b806346c231cb146104225780638772a23a146104505780638a4599c714610472576100cf565b806309eef43e146100d457806315474c10146101305780632818a4c31461015e5780632fa97de71461018057806336ddc96f146101e2578063467f761e14610200575b600080fd5b610116600480360360208110156100ea57600080fd5b81019080803573ffffffffffffffffffffffffffffffffffffffff16906020019092919050505061057c565b604051808215151515815260200191505060405180910390f35b61015c6004803603602081101561014657600080fd5b810190808035906020019092919050505061059c565b005b6101666107d6565b604051808215151515815260200191505060405180910390f35b6101e06004803603608081101561019657600080fd5b81019080803573ffffffffffffffffffffffffffffffffffffffff1690602001909291908035906020019092919080359060200190929190803590602001909291905050506108bf565b005b6101ea61099c565b6040518082815260200191505060405180910390f35b610408600480360360a081101561021657600080fd5b810190808035906020019064010000000081111561023357600080fd5b82018360208201111561024557600080fd5b8035906020019184602083028401116401000000008311171561026757600080fd5b919080806020026020016040519081016040528093929190818152602001838360200280828437600081840152601f19601f820116905080830192505050505050509192919290803590602001906401000000008111156102c757600080fd5b8201836020820111156102d957600080fd5b803590602001918460208302840111640100000000831117156102fb57600080fd5b919080806020026020016040519081016040528093929190818152602001838360200280828437600081840152601f19601f8201169050808301925050505050505091929192908035906020019064010000000081111561035b57600080fd5b82018360208201111561036d57600080fd5b8035906020019184602083028401116401000000008311171561038f57600080fd5b919080806020026020016040519081016040528093929190818152602001838360200280828437600081840152601f19601f820116905080830192505050505050509192919290803573ffffffffffffffffffffffffffffffffffffffff169060200190929190803590602001909291905050506109a2565b604051808215151515815260200191505060405180910390f35b61044e6004803603602081101561043857600080fd5b8101908080359060200190929190505050610eaf565b005b61045861117e565b604051808215151515815260200191505060405180910390f35b61049e6004803603602081101561048857600080fd5b8101908080359060200190929190505050611191565b6040518086151515158152602001851515151581526020018481526020018381526020018281526020019550505050505060405180910390f35b6104e0611239565b6040518082815260200191505060405180910390f35b6104fe61123f565b6040518082815260200191505060405180910390f35b61051c611245565b6040518082815260200191505060405180910390f35b61053a61124b565b604051808273ffffffffffffffffffffffffffffffffffffffff1673ffffffffffffffffffffffffffffffffffffffff16815260200191505060405180910390f35b60086020528060005260406000206000915054906101000a900460ff1681565b600160009054906101000a900473ffffffffffffffffffffffffffffffffffffffff1673ffffffffffffffffffffffffffffffffffffffff16632f54bf6e336040518263ffffffff1660e01b8152600401808273ffffffffffffffffffffffffffffffffffffffff1673ffffffffffffffffffffffffffffffffffffffff16815260200191505060206040518083038186803b15801561063b57600080fd5b505afa15801561064f573d6000803e3d6000fd5b505050506040513d602081101561066557600080fd5b81019080805190602001909291905050506106e8576040517f08c379a00000000000000000000000000000000000000000000000000000000081526004018080602001828103825260108152602001807f4d75737420626520616e2061646d696e0000000000000000000000000000000081525060200191505060405180910390fd5b600660009054906101000a900460ff1661076a576040517f08c379a000000000000000000000000000000000000000000000000000000000815260040180806020018281038252601b8152602001807f5175657374696f6e206d75737420626520636f6e66696775726564000000000081525060200191505060405180910390fd5b60016007600083815260200190815260200160002060000160016101000a81548160ff021916908315150217905550807f3a5fda4e8bbfa44bf1616235c65372363be88e912262f2900520182eb0a0e05d6002546040518082815260200191505060405180910390a250565b600080600160009054906101000a900473ffffffffffffffffffffffffffffffffffffffff1673ffffffffffffffffffffffffffffffffffffffff166358c039cd6002546040518263ffffffff1660e01b81526004018082815260200191505060a06040518083038186803b15801561084e57600080fd5b505afa158015610862573d6000803e3d6000fd5b505050506040513d60a081101561087857600080fd5b810190808051906020019092919080519060200190929190805190602001909291908051906020019092919080519060200190929190505050505050915050801591505090565b600660009054906101000a900460ff1615610925576040517f08c379a00000000000000000000000000000000000000000000000000000000081526004018080602001828103825260298152602001806112fa6029913960400191505060405180910390fd5b83600160006101000a81548173ffffffffffffffffffffffffffffffffffffffff021916908373ffffffffffffffffffffffffffffffffffffffff1602179055508260028190555081600481905550806003819055506001600660006101000a81548160ff02191690831515021790555050505050565b60045481565b6000600160009054906101000a900473ffffffffffffffffffffffffffffffffffffffff1673ffffffffffffffffffffffffffffffffffffffff1663b8a81f9a336040518263ffffffff1660e01b8152600401808273ffffffffffffffffffffffffffffffffffffffff1673ffffffffffffffffffffffffffffffffffffffff16815260200191505060206040518083038186803b158015610a4357600080fd5b505afa158015610a57573d6000803e3d6000fd5b505050506040513d6020811015610a6d57600080fd5b8101908080519060200190929190505050610af0576040517f08c379a00000000000000000000000000000000000000000000000000000000081526004018080602001828103825260188152602001807f4d7573742062652074686520766f74652072656c61796572000000000000000081525060200191505060405180910390fd5b600660009054906101000a900460ff16610b72576040517f08c379a000000000000000000000000000000000000000000000000000000000815260040180806020018281038252601b8152602001807f5175657374696f6e206d75737420626520636f6e66696775726564000000000081525060200191505060405180910390fd5b60008090505b8651811015610ea157610bbe6001600760008a8581518110610b9657fe5b602002602001015181526020019081526020016000206004015461127190919063ffffffff16565b60076000898481518110610bce57fe5b6020026020010151815260200190815260200160002060040181905550610c3a868281518110610bfa57fe5b6020026020010151600760008a8581518110610c1257fe5b602002602001015181526020019081526020016000206003015461127190919063ffffffff16565b60076000898481518110610c4a57fe5b6020026020010151815260200190815260200160002060030181905550610cb6858281518110610c7657fe5b6020026020010151600760008a8581518110610c8e57fe5b602002602001015181526020019081526020016000206002015461127190919063ffffffff16565b60076000898481518110610cc657fe5b6020026020010151815260200190815260200160002060020181905550600160009054906101000a900473ffffffffffffffffffffffffffffffffffffffff1673ffffffffffffffffffffffffffffffffffffffff1663c7b7530785856040518363ffffffff1660e01b8152600401808373ffffffffffffffffffffffffffffffffffffffff1673ffffffffffffffffffffffffffffffffffffffff16815260200182815260200192505050600060405180830381600087803b158015610d8c57600080fd5b505af1158015610da0573d6000803e3d6000fd5b50505050868181518110610db057fe5b60200260200101517fc6880da0aa65b366f9232d1fdefa4c86d6ee1a705f9a44985f779f548b08aa1e600254888481518110610de857fe5b6020026020010151888581518110610dfc57fe5b6020026020010151600760008d8881518110610e1457fe5b60200260200101518152602001908152602001600020600401548989604051808781526020018681526020018581526020018481526020018373ffffffffffffffffffffffffffffffffffffffff1673ffffffffffffffffffffffffffffffffffffffff168152602001828152602001965050505050505060405180910390a28080600101915050610b78565b506001905095945050505050565b600160009054906101000a900473ffffffffffffffffffffffffffffffffffffffff1673ffffffffffffffffffffffffffffffffffffffff16632f54bf6e336040518263ffffffff1660e01b8152600401808273ffffffffffffffffffffffffffffffffffffffff1673ffffffffffffffffffffffffffffffffffffffff16815260200191505060206040518083038186803b158015610f4e57600080fd5b505afa158015610f62573d6000803e3d6000fd5b505050506040513d6020811015610f7857600080fd5b8101908080519060200190929190505050610ffb576040517f08c379a00000000000000000000000000000000000000000000000000000000081526004018080602001828103825260108152602001807f4d75737420626520616e2061646d696e0000000000000000000000000000000081525060200191505060405180910390fd5b600660009054906101000a900460ff1661107d576040517f08c379a000000000000000000000000000000000000000000000000000000000815260040180806020018281038252601b8152602001807f5175657374696f6e206d75737420626520636f6e66696775726564000000000081525060200191505060405180910390fd5b6110856107d6565b6110f7576040517f08c379a00000000000000000000000000000000000000000000000000000000081526004018080602001828103825260178152602001807f5175657374696f6e206d7573742062652061637469766500000000000000000081525060200191505060405180910390fd5b60016007600083815260200190815260200160002060000160006101000a81548160ff021916908315150217905550806007600083815260200190815260200160002060010181905550807fd55b19b94d1b924e77e42cd64f674efe8b07382da67342605f7d1499da953c036002546040518082815260200191505060405180910390a250565b600660009054906101000a900460ff1681565b60008060008060006007600087815260200190815260200160002060000160009054906101000a900460ff166007600088815260200190815260200160002060000160019054906101000a900460ff166007600089815260200190815260200160002060020154600760008a815260200190815260200160002060030154600760008b8152602001908152602001600020600401549450945094509450945091939590929450565b60035481565b60025481565b60055481565b600160009054906101000a900473ffffffffffffffffffffffffffffffffffffffff1681565b6000808284019050838110156112ef576040517f08c379a000000000000000000000000000000000000000000000000000000000815260040180806020018281038252601b8152602001807f536166654d6174683a206164646974696f6e206f766572666c6f77000000000081525060200191505060405180910390fd5b809150509291505056fe54686973207175657374696f6e2068617320616c7265616479206265656e20636f6e66696775726564a265627a7a72315820ba5e0c9e678b968759cce673f18f9aa8a282441277e7e0edc70a3cb76140983e64736f6c634300050c0032",
  "source": "pragma solidity ^0.5.0;\n\nimport \"openzeppelin-solidity/contracts/math/SafeMath.sol\";\n\nimport './interfaces/CulturestakeI.sol';\n\ncontract Question {\n  address private masterCopy;\n\n  using SafeMath for uint256;\n\n  address public admin;\n  bytes32 public id;\n  bytes32 public festival;\n  uint256 public maxVoteTokens;\n  uint256 public votes;\n  bool public configured;\n  mapping (bytes32 => Answer) answers;\n  mapping (address => bool) public hasVoted;\n\n  struct Answer {\n    bool inited;\n    bool deactivated;\n    bytes32 answer;\n    uint256 votePower;\n    uint256 voteTokens;\n    uint256 votes;\n  }\n\n  event InitAnswer(bytes32 questionId, bytes32 indexed answer);\n  event DeactivateAnswer(bytes32 questionId, bytes32 indexed answer);\n  event Vote(\n    bytes32 questionId,\n    bytes32 indexed answer,\n    uint256 voteTokens,\n    uint256 votePower,\n    uint256 votes,\n    address booth,\n    uint256 nonce\n  );\n\n  /// @dev Asserts that the caller is an admin of the culturestake hub\n  modifier authorized() {\n      require(CulturestakeI(admin).isOwner(msg.sender), \"Must be an admin\" );\n      _;\n  }\n\n  /// @dev Asserts that the caller is the vote relayer in the culturestake hub\n  modifier onlyVoteRelayer() {\n      require(CulturestakeI(admin).isVoteRelayer(msg.sender), \"Must be the vote relayer\" );\n      _;\n  }\n\n  /// @dev Sets the main configuration params of the question - this is done primarily to avoid modifying the formally verified proxy\n  /// @param _admin Address set automatically to be the culturestake hub that deployed this question\n  /// @param _question The question chain id\n  /// @param _maxVoteTokens The amount of vote tokens given to each voter per answer\n  /// @param _festival The festival chain id the question is associated with\n  /// @return Bool for if the booth was initialized\n  function setup(\n    address _admin,\n    bytes32 _question,\n    uint256 _maxVoteTokens,\n    bytes32 _festival\n  ) public {\n    // method can only be called once\n    require(!configured, \"This question has already been configured\");\n    admin = _admin;\n    id = _question;\n    maxVoteTokens = _maxVoteTokens;\n    festival = _festival;\n    configured = true;\n  }\n\n  /// @dev Calls to culturestake hub to check that this question hasn't been shut down\n  /// @return True if this question has not been manually deactivated\n  function thisQuestionIsActive() public view returns (bool) {\n    (, bool deactivated, , , ) = CulturestakeI(admin).getQuestion(id);\n    return !deactivated;\n  }\n\n  /// @dev Registers a new answer for this question\n  /// @param _answer The answer chain id\n  function initAnswer(bytes32 _answer) public authorized {\n    require(configured, \"Question must be configured\");\n    require(thisQuestionIsActive(), \"Question must be active\");\n    answers[_answer].inited = true;\n    answers[_answer].answer = _answer;\n    emit InitAnswer(id, _answer);\n  }\n\n  /// @dev Destructive method, removes an answer from voting\n  /// @param _answer The answer chain id\n  function deactivateAnswer(bytes32 _answer) public authorized {\n    require(configured, \"Question must be configured\");\n    answers[_answer].deactivated = true;\n    emit DeactivateAnswer(id, _answer);\n  }\n\n  /// @dev Getter for a answer struct\n  /// @param _answer The answer chain is\n  /// @return Bool for if the answer was initialized\n  /// @return Bool for if the answer was deactivated\n  /// @return The total vote power this answer received\n  /// @return The total vote tokens this answer received\n  /// @return The total users who engaged with this answer\n  function getAnswer(bytes32 _answer) public returns (bool, bool, uint256, uint256, uint256) {\n    return (\n      answers[_answer].inited,\n      answers[_answer].deactivated,\n      answers[_answer].votePower,\n      answers[_answer].voteTokens,\n      answers[_answer].votes\n    );\n  }\n\n  /// @dev Records a vote without checking the voting booth signature on chain, can only be called by vote relayer\n  /// @param _answers An array of the answer chain ids\n  /// @param _answers An array of the vote tokens awarded to each answer, in the same order\n  /// @param _answers An array of the vote powers awarded to each answer, in the same order\n  /// @param _answers The address of the booth that the vote was placed at\n  /// @param _answers The nonce that this vote used\n  function recordUnsignedVote(\n    bytes32[] memory _answers,\n    uint256[] memory _voteTokens,\n    uint256[] memory _votePowers,\n    address _booth,\n    uint256 _nonce\n  ) public onlyVoteRelayer returns (bool) {\n    require(configured, \"Question must be configured\");\n    // this method assumes most checks have been done by an admin\n    for (uint i = 0; i < _answers.length; i++) {\n      answers[_answers[i]].votes = answers[_answers[i]].votes.add(1);\n      answers[_answers[i]].voteTokens = answers[_answers[i]].voteTokens.add(_voteTokens[i]);\n      answers[_answers[i]].votePower = answers[_answers[i]].votePower.add(_votePowers[i]);\n      // the first time a nonce is used it is burned, but the vote relayer can still transit the other\n      // half of the vote package because this vote method will not fail if nonce has already\n      // been burned. This means further vote sttempts sent to the server will fail, but the\n      // rest of the current vote can still be completed\n      CulturestakeI(admin).burnNonce(_booth, _nonce);\n      emit Vote(id, _answers[i], _voteTokens[i], _votePowers[i], answers[_answers[i]].votes, _booth, _nonce);\n    }\n    return true;\n  }\n}",
  "sourcePath": "/media/000/Documents/culturestake/culturestake-contracts/contracts/Question.sol",
  "compiler": {
    "name": "solc",
    "version": "0.5.12+commit.7709ece9.Emscripten.clang"
  },
  "schemaVersion": "3.0.20",
  "updatedAt": "2020-08-19T10:08:17.276Z",
  "devdoc": {
    "methods": {
      "deactivateAnswer(bytes32)": {
        "details": "Destructive method, removes an answer from voting",
        "params": {
          "_answer": "The answer chain id"
        }
      },
      "getAnswer(bytes32)": {
        "details": "Getter for a answer struct",
        "params": {
          "_answer": "The answer chain is"
        },
        "return": "Bool for if the answer was initializedBool for if the answer was deactivatedThe total vote power this answer receivedThe total vote tokens this answer receivedThe total users who engaged with this answer"
      },
      "initAnswer(bytes32)": {
        "details": "Registers a new answer for this question",
        "params": {
          "_answer": "The answer chain id"
        }
      },
      "recordUnsignedVote(bytes32[],uint256[],uint256[],address,uint256)": {
        "details": "Records a vote without checking the voting booth signature on chain, can only be called by vote relayer",
        "params": {
          "_answers": "The nonce that this vote used"
        }
      },
      "setup(address,bytes32,uint256,bytes32)": {
        "details": "Sets the main configuration params of the question - this is done primarily to avoid modifying the formally verified proxy",
        "params": {
          "_admin": "Address set automatically to be the culturestake hub that deployed this question",
          "_festival": "The festival chain id the question is associated with",
          "_maxVoteTokens": "The amount of vote tokens given to each voter per answer",
          "_question": "The question chain id"
        },
        "return": "Bool for if the booth was initialized"
      },
      "thisQuestionIsActive()": {
        "details": "Calls to culturestake hub to check that this question hasn't been shut down",
        "return": "True if this question has not been manually deactivated"
      }
    }
  },
  "userdoc": {
    "methods": {}
  }
}