{
  "contractName": "Question",
  "abi": [
    {
      "inputs": [
        {
          "internalType": "uint8",
          "name": "_questionType",
          "type": "uint8"
        },
        {
          "internalType": "bytes32",
          "name": "_question",
          "type": "bytes32"
        },
        {
          "internalType": "uint256",
          "name": "_maxVoteTokens",
          "type": "uint256"
        },
        {
          "internalType": "bytes32",
          "name": "_festival",
          "type": "bytes32"
        }
      ],
      "payable": false,
      "stateMutability": "nonpayable",
      "type": "constructor"
    },
    {
      "constant": true,
      "inputs": [],
      "name": "active",
      "outputs": [
        {
          "internalType": "bool",
          "name": "",
          "type": "bool"
        }
      ],
      "payable": false,
      "stateMutability": "view",
      "type": "function"
    },
    {
      "constant": true,
      "inputs": [],
      "name": "admin",
      "outputs": [
        {
          "internalType": "address",
          "name": "",
          "type": "address"
        }
      ],
      "payable": false,
      "stateMutability": "view",
      "type": "function"
    },
    {
      "constant": true,
      "inputs": [],
      "name": "festival",
      "outputs": [
        {
          "internalType": "bytes32",
          "name": "",
          "type": "bytes32"
        }
      ],
      "payable": false,
      "stateMutability": "view",
      "type": "function"
    },
    {
      "constant": true,
      "inputs": [],
      "name": "maxVoteTokens",
      "outputs": [
        {
          "internalType": "uint256",
          "name": "",
          "type": "uint256"
        }
      ],
      "payable": false,
      "stateMutability": "view",
      "type": "function"
    },
    {
      "constant": true,
      "inputs": [],
      "name": "question",
      "outputs": [
        {
          "internalType": "bytes32",
          "name": "",
          "type": "bytes32"
        }
      ],
      "payable": false,
      "stateMutability": "view",
      "type": "function"
    },
    {
      "constant": true,
      "inputs": [],
      "name": "questionType",
      "outputs": [
        {
          "internalType": "uint8",
          "name": "",
          "type": "uint8"
        }
      ],
      "payable": false,
      "stateMutability": "view",
      "type": "function"
    },
    {
      "constant": true,
      "inputs": [],
      "name": "votes",
      "outputs": [
        {
          "internalType": "uint256",
          "name": "",
          "type": "uint256"
        }
      ],
      "payable": false,
      "stateMutability": "view",
      "type": "function"
    },
    {
      "constant": false,
      "inputs": [],
      "name": "deactivateQuestion",
      "outputs": [],
      "payable": false,
      "stateMutability": "nonpayable",
      "type": "function"
    },
    {
      "constant": false,
      "inputs": [
        {
          "internalType": "bytes32",
          "name": "_sigS",
          "type": "bytes32"
        },
        {
          "internalType": "bytes32",
          "name": "_sigR",
          "type": "bytes32"
        },
        {
          "internalType": "uint8",
          "name": "_sigV",
          "type": "uint8"
        }
      ],
      "name": "initAnswer",
      "outputs": [],
      "payable": false,
      "stateMutability": "nonpayable",
      "type": "function"
    },
    {
      "constant": false,
      "inputs": [
        {
          "internalType": "bytes32",
          "name": "_answer",
          "type": "bytes32"
        }
      ],
      "name": "deactivateAnswer",
      "outputs": [],
      "payable": false,
      "stateMutability": "nonpayable",
      "type": "function"
    },
    {
      "constant": false,
      "inputs": [
        {
          "internalType": "address",
          "name": "sender",
          "type": "address"
        },
        {
          "internalType": "bytes32[]",
          "name": "_answers",
          "type": "bytes32[]"
        },
        {
          "internalType": "uint256[]",
          "name": "_voteTokens",
          "type": "uint256[]"
        }
      ],
      "name": "recordVote",
      "outputs": [
        {
          "internalType": "bool",
          "name": "",
          "type": "bool"
        }
      ],
      "payable": false,
      "stateMutability": "nonpayable",
      "type": "function"
    }
  ],
  "bytecode": "0x608060405234801561001057600080fd5b50604051610b00380380610b008339818101604052608081101561003357600080fd5b8101908080519060200190929190805190602001909291908051906020019092919080519060200190929190505050336000806101000a81548173ffffffffffffffffffffffffffffffffffffffff021916908373ffffffffffffffffffffffffffffffffffffffff1602179055506001600360006101000a81548160ff0219169083151502179055508160048190555083600060146101000a81548160ff021916908360ff160217905550826001819055508060028190555050505050610a00806101006000396000f3fe608060405234801561001057600080fd5b50600436106100a95760003560e01c80634c2b05c7116100715780634c2b05c714610144578063918feec8146102c8578063ad1b2b74146102ec578063b0ffca311461030a578063e168c3ec1461034f578063f851a4401461036d576100a9565b806302fb0c5e146100ae57806315474c10146100d057806336ddc96f146100fe578063376f591b1461011c5780633fad9ae014610126575b600080fd5b6100b66103b7565b604051808215151515815260200191505060405180910390f35b6100fc600480360360208110156100e657600080fd5b81019080803590602001909291905050506103ca565b005b6101066104a1565b6040518082815260200191505060405180910390f35b6101246104a7565b005b61012e610569565b6040518082815260200191505060405180910390f35b6102ae6004803603606081101561015a57600080fd5b81019080803573ffffffffffffffffffffffffffffffffffffffff1690602001909291908035906020019064010000000081111561019757600080fd5b8201836020820111156101a957600080fd5b803590602001918460208302840111640100000000831117156101cb57600080fd5b919080806020026020016040519081016040528093929190818152602001838360200280828437600081840152601f19601f8201169050808301925050505050505091929192908035906020019064010000000081111561022b57600080fd5b82018360208201111561023d57600080fd5b8035906020019184602083028401116401000000008311171561025f57600080fd5b919080806020026020016040519081016040528093929190818152602001838360200280828437600081840152601f19601f82011690508083019250505050505050919291929050505061056f565b604051808215151515815260200191505060405180910390f35b6102d061081d565b604051808260ff1660ff16815260200191505060405180910390f35b6102f4610830565b6040518082815260200191505060405180910390f35b61034d6004803603606081101561032057600080fd5b810190808035906020019092919080359060200190929190803560ff169060200190929190505050610836565b005b610357610974565b6040518082815260200191505060405180910390f35b61037561097a565b604051808273ffffffffffffffffffffffffffffffffffffffff1673ffffffffffffffffffffffffffffffffffffffff16815260200191505060405180910390f35b600360009054906101000a900460ff1681565b3373ffffffffffffffffffffffffffffffffffffffff166000809054906101000a900473ffffffffffffffffffffffffffffffffffffffff1673ffffffffffffffffffffffffffffffffffffffff161461046f576040517f08c379a00000000000000000000000000000000000000000000000000000000081526004018080602001828103825260228152602001806109aa6022913960400191505060405180910390fd5b60006006600083815260200190815260200160002060000160006101000a81548160ff02191690831515021790555050565b60045481565b3373ffffffffffffffffffffffffffffffffffffffff166000809054906101000a900473ffffffffffffffffffffffffffffffffffffffff1673ffffffffffffffffffffffffffffffffffffffff161461054c576040517f08c379a00000000000000000000000000000000000000000000000000000000081526004018080602001828103825260228152602001806109aa6022913960400191505060405180910390fd5b6000600360006101000a81548160ff021916908315150217905550565b60015481565b60003373ffffffffffffffffffffffffffffffffffffffff166000809054906101000a900473ffffffffffffffffffffffffffffffffffffffff1673ffffffffffffffffffffffffffffffffffffffff1614610616576040517f08c379a00000000000000000000000000000000000000000000000000000000081526004018080602001828103825260228152602001806109aa6022913960400191505060405180910390fd5b600760008573ffffffffffffffffffffffffffffffffffffffff1673ffffffffffffffffffffffffffffffffffffffff16815260200190815260200160002060009054906101000a900460ff161561066d57600080fd5b815183511461067b57600080fd5b60008090505b8351811015610811576006600085838151811061069a57fe5b6020026020010151815260200190815260200160002060000160009054906101000a900460ff166106ca57600080fd5b6001600660008684815181106106dc57fe5b6020026020010151815260200190815260200160002060060154016006600086848151811061070757fe5b602002602001015181526020019081526020016000206006018190555082818151811061073057fe5b60200260200101516006600086848151811061074857fe5b6020026020010151815260200190815260200160002060050154016006600086848151811061077357fe5b60200260200101518152602001908152602001600020600501819055506107ac83828151811061079f57fe5b602002602001015161099f565b600660008684815181106107bc57fe5b602002602001015181526020019081526020016000206004015401600660008684815181106107e757fe5b60200260200101518152602001908152602001600020600401819055508080600101915050610681565b50600190509392505050565b600060149054906101000a900460ff1681565b60025481565b3373ffffffffffffffffffffffffffffffffffffffff166000809054906101000a900473ffffffffffffffffffffffffffffffffffffffff1673ffffffffffffffffffffffffffffffffffffffff16146108db576040517f08c379a00000000000000000000000000000000000000000000000000000000081526004018080602001828103825260228152602001806109aa6022913960400191505060405180910390fd5b60016006600085815260200190815260200160002060000160006101000a81548160ff021916908315150217905550826006600085815260200190815260200160002060010181905550816006600085815260200190815260200160002060020181905550806006600085815260200190815260200160002060030160006101000a81548160ff021916908360ff160217905550505050565b60055481565b6000809054906101000a900473ffffffffffffffffffffffffffffffffffffffff1681565b600081905091905056fe4d6574686f642063616e206f6e6c792062652063616c6c6564206279206f776e6572a265627a7a723158203f08e42c58320f690230ef76f9228b9f5505ff298591ffbdeceae3a994980cf764736f6c634300050c0032",
  "source": "pragma solidity ^0.5.0;\n\nimport './Admin.sol';\n\ncontract Question {\n  address public admin;\n  uint8 public questionType;\n  bytes32 public question;\n  bytes32 public festival;\n  bool public active;\n  uint256 public maxVoteTokens;\n  uint256 public votes;\n  mapping (bytes32 => Answer) answers;\n  mapping (address => bool) hasVoted;\n\n  struct Answer {\n    bool active;\n    bytes32 sigS;\n    bytes32 sigR;\n    uint8 sigV;\n    uint256 votePower;\n    uint256 voteTokens;\n    uint256 votes;\n  }\n\n  modifier authorized() {\n      require(admin == msg.sender, \"Method can only be called by owner\");\n      _;\n  }\n\n  modifier onlyRelayer() {\n    // should check relayer whitelist in admin contract\n    require(admin == msg.sender, \"Method can only be called by owner\");\n    _;\n  }\n\n  constructor(\n    uint8 _questionType,\n    bytes32 _question,\n    uint256 _maxVoteTokens,\n    bytes32 _festival\n  ) public {\n    admin = msg.sender;\n    active = true;\n    maxVoteTokens = _maxVoteTokens;\n    questionType = _questionType;\n    question = _question;\n    festival = _festival;\n  }\n\n  function deactivateQuestion() public authorized {\n    active = false;\n  }\n\n  function initAnswer(bytes32 _sigS, bytes32 _sigR, uint8 _sigV) public authorized {\n    answers[_sigS].active = true;\n    answers[_sigS].sigS = _sigS;\n    answers[_sigS].sigR = _sigR;\n    answers[_sigS].sigV = _sigV;\n  }\n\n  function deactivateAnswer(bytes32 _answer) public authorized {\n    answers[_answer].active = false;\n  }\n\n  function sqrt(uint256 num) internal view returns (uint256) {\n    //should be the sqrt\n    return num;\n  }\n\n  function recordVote(\n    address sender,\n    bytes32[] memory _answers,\n    uint256[] memory _voteTokens\n    //string memory _festival\n    //uint256 nonce\n    // uint8 sigV\n    // bytes32 sigR\n    // bytes32 sigS\n\n    ) public onlyRelayer returns (bool) {\n\n    require(!hasVoted[sender]);\n    require(_answers.length == _voteTokens.length);\n    //require(festival == _festival);\n    //require validateVotingBooth(_festival, _answers, _nonce, sigV, sigR, sigS)\n    //require no duplicates in _answers array\n\n    for (uint i = 0; i < _answers.length; i++) {\n      require(answers[_answers[i]].active);\n      answers[_answers[i]].votes = answers[_answers[i]].votes + 1;\n      answers[_answers[i]].voteTokens = answers[_answers[i]].voteTokens + _voteTokens[i];\n      answers[_answers[i]].votePower = answers[_answers[i]].votePower + sqrt(_voteTokens[i]);\n      //add event\n    }\n    return true;\n  }\n}",
  "sourcePath": "/media/000/Documents/culturestake/culturestake-contracts/contracts/Question.sol",
  "compiler": {
    "name": "solc",
    "version": "0.5.12+commit.7709ece9.Emscripten.clang"
  },
  "schemaVersion": "3.0.20",
  "updatedAt": "2020-03-25T14:04:26.660Z",
  "devdoc": {
    "methods": {}
  },
  "userdoc": {
    "methods": {}
  }
}