{
  "contractName": "Question",
  "abi": [
    {
      "anonymous": false,
      "inputs": [
        {
          "indexed": false,
          "internalType": "bytes32",
          "name": "questionId",
          "type": "bytes32"
        },
        {
          "indexed": true,
          "internalType": "bytes32",
          "name": "answer",
          "type": "bytes32"
        }
      ],
      "name": "DeactivateAnswer",
      "type": "event"
    },
    {
      "anonymous": false,
      "inputs": [
        {
          "indexed": false,
          "internalType": "bytes32",
          "name": "questionId",
          "type": "bytes32"
        },
        {
          "indexed": true,
          "internalType": "bytes32",
          "name": "answer",
          "type": "bytes32"
        }
      ],
      "name": "InitAnswer",
      "type": "event"
    },
    {
      "anonymous": false,
      "inputs": [
        {
          "indexed": false,
          "internalType": "bytes32",
          "name": "questionId",
          "type": "bytes32"
        },
        {
          "indexed": true,
          "internalType": "bytes32",
          "name": "answer",
          "type": "bytes32"
        },
        {
          "indexed": false,
          "internalType": "uint256",
          "name": "voteTokens",
          "type": "uint256"
        },
        {
          "indexed": false,
          "internalType": "uint256",
          "name": "votePower",
          "type": "uint256"
        },
        {
          "indexed": false,
          "internalType": "uint256",
          "name": "votes",
          "type": "uint256"
        },
        {
          "indexed": false,
          "internalType": "address",
          "name": "booth",
          "type": "address"
        },
        {
          "indexed": false,
          "internalType": "uint256",
          "name": "nonce",
          "type": "uint256"
        }
      ],
      "name": "Vote",
      "type": "event"
    },
    {
      "constant": true,
      "inputs": [],
      "name": "admin",
      "outputs": [
        {
          "internalType": "address",
          "name": "",
          "type": "address"
        }
      ],
      "payable": false,
      "stateMutability": "view",
      "type": "function"
    },
    {
      "constant": true,
      "inputs": [],
      "name": "configured",
      "outputs": [
        {
          "internalType": "bool",
          "name": "",
          "type": "bool"
        }
      ],
      "payable": false,
      "stateMutability": "view",
      "type": "function"
    },
    {
      "constant": true,
      "inputs": [],
      "name": "festival",
      "outputs": [
        {
          "internalType": "bytes32",
          "name": "",
          "type": "bytes32"
        }
      ],
      "payable": false,
      "stateMutability": "view",
      "type": "function"
    },
    {
      "constant": true,
      "inputs": [
        {
          "internalType": "address",
          "name": "",
          "type": "address"
        }
      ],
      "name": "hasVoted",
      "outputs": [
        {
          "internalType": "bool",
          "name": "",
          "type": "bool"
        }
      ],
      "payable": false,
      "stateMutability": "view",
      "type": "function"
    },
    {
      "constant": true,
      "inputs": [],
      "name": "id",
      "outputs": [
        {
          "internalType": "bytes32",
          "name": "",
          "type": "bytes32"
        }
      ],
      "payable": false,
      "stateMutability": "view",
      "type": "function"
    },
    {
      "constant": true,
      "inputs": [],
      "name": "maxVoteTokens",
      "outputs": [
        {
          "internalType": "uint256",
          "name": "",
          "type": "uint256"
        }
      ],
      "payable": false,
      "stateMutability": "view",
      "type": "function"
    },
    {
      "constant": true,
      "inputs": [],
      "name": "votes",
      "outputs": [
        {
          "internalType": "uint256",
          "name": "",
          "type": "uint256"
        }
      ],
      "payable": false,
      "stateMutability": "view",
      "type": "function"
    },
    {
      "constant": false,
      "inputs": [
        {
          "internalType": "address",
          "name": "_admin",
          "type": "address"
        },
        {
          "internalType": "bytes32",
          "name": "_question",
          "type": "bytes32"
        },
        {
          "internalType": "uint256",
          "name": "_maxVoteTokens",
          "type": "uint256"
        },
        {
          "internalType": "bytes32",
          "name": "_festival",
          "type": "bytes32"
        }
      ],
      "name": "setup",
      "outputs": [],
      "payable": false,
      "stateMutability": "nonpayable",
      "type": "function"
    },
    {
      "constant": true,
      "inputs": [],
      "name": "thisQuestionIsActive",
      "outputs": [
        {
          "internalType": "bool",
          "name": "",
          "type": "bool"
        }
      ],
      "payable": false,
      "stateMutability": "view",
      "type": "function"
    },
    {
      "constant": false,
      "inputs": [
        {
          "internalType": "bytes32",
          "name": "_answer",
          "type": "bytes32"
        }
      ],
      "name": "initAnswer",
      "outputs": [],
      "payable": false,
      "stateMutability": "nonpayable",
      "type": "function"
    },
    {
      "constant": false,
      "inputs": [
        {
          "internalType": "bytes32",
          "name": "_answer",
          "type": "bytes32"
        }
      ],
      "name": "deactivateAnswer",
      "outputs": [],
      "payable": false,
      "stateMutability": "nonpayable",
      "type": "function"
    },
    {
      "constant": false,
      "inputs": [
        {
          "internalType": "bytes32",
          "name": "_answer",
          "type": "bytes32"
        }
      ],
      "name": "getAnswer",
      "outputs": [
        {
          "internalType": "bool",
          "name": "",
          "type": "bool"
        },
        {
          "internalType": "bool",
          "name": "",
          "type": "bool"
        },
        {
          "internalType": "uint256",
          "name": "",
          "type": "uint256"
        },
        {
          "internalType": "uint256",
          "name": "",
          "type": "uint256"
        },
        {
          "internalType": "uint256",
          "name": "",
          "type": "uint256"
        }
      ],
      "payable": false,
      "stateMutability": "nonpayable",
      "type": "function"
    },
    {
      "constant": false,
      "inputs": [
        {
          "internalType": "bytes32[]",
          "name": "_answers",
          "type": "bytes32[]"
        },
        {
          "internalType": "uint256[]",
          "name": "_voteTokens",
          "type": "uint256[]"
        },
        {
          "internalType": "address",
          "name": "_booth",
          "type": "address"
        },
        {
          "internalType": "uint256",
          "name": "_nonce",
          "type": "uint256"
        }
      ],
      "name": "recordUnsignedVote",
      "outputs": [
        {
          "internalType": "bool",
          "name": "",
          "type": "bool"
        }
      ],
      "payable": false,
      "stateMutability": "nonpayable",
      "type": "function"
    }
  ],
  "bytecode": "0x608060405234801561001057600080fd5b5061104a806100206000396000f3fe608060405234801561001057600080fd5b50600436106100cf5760003560e01c806346c231cb1161008c578063ad1b2b7411610066578063ad1b2b7414610444578063af640d0f14610462578063e168c3ec14610480578063f851a4401461049e576100cf565b806346c231cb1461038e5780638772a23a146103bc5780638a4599c7146103de576100cf565b806305fce0b7146100d457806309eef43e1461026257806315474c10146102be5780632818a4c3146102ec5780632fa97de71461030e57806336ddc96f14610370575b600080fd5b610248600480360360808110156100ea57600080fd5b810190808035906020019064010000000081111561010757600080fd5b82018360208201111561011957600080fd5b8035906020019184602083028401116401000000008311171561013b57600080fd5b919080806020026020016040519081016040528093929190818152602001838360200280828437600081840152601f19601f8201169050808301925050505050505091929192908035906020019064010000000081111561019b57600080fd5b8201836020820111156101ad57600080fd5b803590602001918460208302840111640100000000831117156101cf57600080fd5b919080806020026020016040519081016040528093929190818152602001838360200280828437600081840152601f19601f820116905080830192505050505050509192919290803573ffffffffffffffffffffffffffffffffffffffff169060200190929190803590602001909291905050506104e8565b604051808215151515815260200191505060405180910390f35b6102a46004803603602081101561027857600080fd5b81019080803573ffffffffffffffffffffffffffffffffffffffff169060200190929190505050610963565b604051808215151515815260200191505060405180910390f35b6102ea600480360360208110156102d457600080fd5b8101908080359060200190929190505050610983565b005b6102f4610b3a565b604051808215151515815260200191505060405180910390f35b61036e6004803603608081101561032457600080fd5b81019080803573ffffffffffffffffffffffffffffffffffffffff169060200190929190803590602001909291908035906020019092919080359060200190929190505050610c22565b005b610378610cb2565b6040518082815260200191505060405180910390f35b6103ba600480360360208110156103a457600080fd5b8101908080359060200190929190505050610cb8565b005b6103c4610e9b565b604051808215151515815260200191505060405180910390f35b61040a600480360360208110156103f457600080fd5b8101908080359060200190929190505050610eae565b6040518086151515158152602001851515151581526020018481526020018381526020018281526020019550505050505060405180910390f35b61044c610f56565b6040518082815260200191505060405180910390f35b61046a610f5c565b6040518082815260200191505060405180910390f35b610488610f62565b6040518082815260200191505060405180910390f35b6104a6610f68565b604051808273ffffffffffffffffffffffffffffffffffffffff1673ffffffffffffffffffffffffffffffffffffffff16815260200191505060405180910390f35b60008060009054906101000a900473ffffffffffffffffffffffffffffffffffffffff1673ffffffffffffffffffffffffffffffffffffffff1663b8a81f9a336040518263ffffffff1660e01b8152600401808273ffffffffffffffffffffffffffffffffffffffff1673ffffffffffffffffffffffffffffffffffffffff16815260200191505060206040518083038186803b15801561058857600080fd5b505afa15801561059c573d6000803e3d6000fd5b505050506040513d60208110156105b257600080fd5b8101908080519060200190929190505050610635576040517f08c379a00000000000000000000000000000000000000000000000000000000081526004018080602001828103825260188152602001807f4d7573742062652074686520766f74652072656c61796572000000000000000081525060200191505060405180910390fd5b60008090505b85518110156109565761068160016006600089858151811061065957fe5b6020026020010151815260200190815260200160002060040154610f8d90919063ffffffff16565b6006600088848151811061069157fe5b60200260200101518152602001908152602001600020600401819055506106fd8582815181106106bd57fe5b6020026020010151600660008985815181106106d557fe5b6020026020010151815260200190815260200160002060030154610f8d90919063ffffffff16565b6006600088848151811061070d57fe5b6020026020010151815260200190815260200160002060030181905550600085828151811061073857fe5b6020026020010151905061077e81600660008a868151811061075657fe5b6020026020010151815260200190815260200160002060020154610f8d90919063ffffffff16565b6006600089858151811061078e57fe5b60200260200101518152602001908152602001600020600201819055506000809054906101000a900473ffffffffffffffffffffffffffffffffffffffff1673ffffffffffffffffffffffffffffffffffffffff1663c7b7530786866040518363ffffffff1660e01b8152600401808373ffffffffffffffffffffffffffffffffffffffff1673ffffffffffffffffffffffffffffffffffffffff16815260200182815260200192505050600060405180830381600087803b15801561085357600080fd5b505af1158015610867573d6000803e3d6000fd5b5050505086828151811061087757fe5b60200260200101517fc6880da0aa65b366f9232d1fdefa4c86d6ee1a705f9a44985f779f548b08aa1e6001548885815181106108af57fe5b602002602001015184600660008d89815181106108c857fe5b60200260200101518152602001908152602001600020600401548a8a604051808781526020018681526020018581526020018481526020018373ffffffffffffffffffffffffffffffffffffffff1673ffffffffffffffffffffffffffffffffffffffff168152602001828152602001965050505050505060405180910390a250808060010191505061063b565b5060019050949350505050565b60076020528060005260406000206000915054906101000a900460ff1681565b6000809054906101000a900473ffffffffffffffffffffffffffffffffffffffff1673ffffffffffffffffffffffffffffffffffffffff16632f54bf6e336040518263ffffffff1660e01b8152600401808273ffffffffffffffffffffffffffffffffffffffff1673ffffffffffffffffffffffffffffffffffffffff16815260200191505060206040518083038186803b158015610a2157600080fd5b505afa158015610a35573d6000803e3d6000fd5b505050506040513d6020811015610a4b57600080fd5b8101908080519060200190929190505050610ace576040517f08c379a00000000000000000000000000000000000000000000000000000000081526004018080602001828103825260108152602001807f4d75737420626520616e2061646d696e0000000000000000000000000000000081525060200191505060405180910390fd5b60016006600083815260200190815260200160002060000160016101000a81548160ff021916908315150217905550807f3a5fda4e8bbfa44bf1616235c65372363be88e912262f2900520182eb0a0e05d6001546040518082815260200191505060405180910390a250565b6000806000809054906101000a900473ffffffffffffffffffffffffffffffffffffffff1673ffffffffffffffffffffffffffffffffffffffff166358c039cd6001546040518263ffffffff1660e01b81526004018082815260200191505060a06040518083038186803b158015610bb157600080fd5b505afa158015610bc5573d6000803e3d6000fd5b505050506040513d60a0811015610bdb57600080fd5b810190808051906020019092919080519060200190929190805190602001909291908051906020019092919080519060200190929190505050505050915050801591505090565b600560009054906101000a900460ff1615610c3c57600080fd5b836000806101000a81548173ffffffffffffffffffffffffffffffffffffffff021916908373ffffffffffffffffffffffffffffffffffffffff1602179055508260018190555081600381905550806002819055506001600560006101000a81548160ff02191690831515021790555050505050565b60035481565b6000809054906101000a900473ffffffffffffffffffffffffffffffffffffffff1673ffffffffffffffffffffffffffffffffffffffff16632f54bf6e336040518263ffffffff1660e01b8152600401808273ffffffffffffffffffffffffffffffffffffffff1673ffffffffffffffffffffffffffffffffffffffff16815260200191505060206040518083038186803b158015610d5657600080fd5b505afa158015610d6a573d6000803e3d6000fd5b505050506040513d6020811015610d8057600080fd5b8101908080519060200190929190505050610e03576040517f08c379a00000000000000000000000000000000000000000000000000000000081526004018080602001828103825260108152602001807f4d75737420626520616e2061646d696e0000000000000000000000000000000081525060200191505060405180910390fd5b610e0b610b3a565b610e1457600080fd5b60016006600083815260200190815260200160002060000160006101000a81548160ff021916908315150217905550806006600083815260200190815260200160002060010181905550807fd55b19b94d1b924e77e42cd64f674efe8b07382da67342605f7d1499da953c036001546040518082815260200191505060405180910390a250565b600560009054906101000a900460ff1681565b60008060008060006006600087815260200190815260200160002060000160009054906101000a900460ff166006600088815260200190815260200160002060000160019054906101000a900460ff166006600089815260200190815260200160002060020154600660008a815260200190815260200160002060030154600660008b8152602001908152602001600020600401549450945094509450945091939590929450565b60025481565b60015481565b60045481565b6000809054906101000a900473ffffffffffffffffffffffffffffffffffffffff1681565b60008082840190508381101561100b576040517f08c379a000000000000000000000000000000000000000000000000000000000815260040180806020018281038252601b8152602001807f536166654d6174683a206164646974696f6e206f766572666c6f77000000000081525060200191505060405180910390fd5b809150509291505056fea265627a7a72315820c58555543a2f850cb544e72719d4e14678199746214f790309c0633f1041b52964736f6c634300050c0032",
  "source": "pragma solidity ^0.5.0;\n\nimport \"openzeppelin-solidity/contracts/math/SafeMath.sol\";\n\nimport './interfaces/CulturestakeI.sol';\n\ncontract Question {\n  using SafeMath for uint256;\n\n  address public admin;\n  bytes32 public id;\n  bytes32 public festival;\n  uint256 public maxVoteTokens;\n  uint256 public votes;\n  bool public configured;\n  mapping (bytes32 => Answer) answers;\n  mapping (address => bool) public hasVoted;\n\n  struct Answer {\n    bool inited;\n    bool deactivated;\n    bytes32 answer;\n    uint256 votePower;\n    uint256 voteTokens;\n    uint256 votes;\n  }\n\n  event InitAnswer(bytes32 questionId, bytes32 indexed answer);\n  event DeactivateAnswer(bytes32 questionId, bytes32 indexed answer);\n  event Vote(\n    bytes32 questionId,\n    bytes32 indexed answer,\n    uint256 voteTokens,\n    uint256 votePower,\n    uint256 votes,\n    address booth,\n    uint256 nonce\n  );\n\n  modifier authorized() {\n      require(CulturestakeI(admin).isOwner(msg.sender), \"Must be an admin\" );\n      _;\n  }\n\n  modifier onlyVoteRelayer() {\n      require(CulturestakeI(admin).isVoteRelayer(msg.sender), \"Must be the vote relayer\" );\n      _;\n  }\n\n  function setup(\n    address _admin,\n    bytes32 _question,\n    uint256 _maxVoteTokens,\n    bytes32 _festival\n  ) public {\n    require(!configured);\n    admin = _admin;\n    id = _question;\n    maxVoteTokens = _maxVoteTokens;\n    festival = _festival;\n    configured = true;\n  }\n\n  function thisQuestionIsActive() public view returns (bool) {\n    (, bool deactivated, , , ) = CulturestakeI(admin).getQuestion(id);\n    return !deactivated;\n  }\n\n  function initAnswer(bytes32 _answer) public authorized {\n    require(thisQuestionIsActive());\n    answers[_answer].inited = true;\n    answers[_answer].answer = _answer;\n    emit InitAnswer(id, _answer);\n  }\n\n  function deactivateAnswer(bytes32 _answer) public authorized {\n    answers[_answer].deactivated = true;\n     emit DeactivateAnswer(id, _answer);\n  }\n\n  function getAnswer(bytes32 _answer) public returns (bool, bool, uint256, uint256, uint256) {\n    return (\n      answers[_answer].inited,\n      answers[_answer].deactivated,\n      answers[_answer].votePower,\n      answers[_answer].voteTokens,\n      answers[_answer].votes\n    );\n  }\n\n  function recordUnsignedVote(\n    bytes32[] memory _answers,\n    uint256[] memory _voteTokens,\n    address _booth,\n    uint256 _nonce\n  ) public onlyVoteRelayer returns (bool) {\n    // this method assumes all checks have been done by an admin\n    for (uint i = 0; i < _answers.length; i++) {\n      answers[_answers[i]].votes = answers[_answers[i]].votes.add(1);\n      answers[_answers[i]].voteTokens = answers[_answers[i]].voteTokens.add(_voteTokens[i]);\n      uint256 votePower = _voteTokens[i];\n      answers[_answers[i]].votePower = answers[_answers[i]].votePower.add(votePower);\n      CulturestakeI(admin).burnNonce(_booth, _nonce);\n      emit Vote(id, _answers[i], _voteTokens[i], votePower, answers[_answers[i]].votes, _booth, _nonce);\n    }\n    return true;\n  }\n}",
  "sourcePath": "/media/000/Documents/culturestake/culturestake-contracts/contracts/Question.sol",
  "compiler": {
    "name": "solc",
    "version": "0.5.12+commit.7709ece9.Emscripten.clang"
  },
  "schemaVersion": "3.0.20",
  "updatedAt": "2020-08-06T14:04:33.673Z",
  "devdoc": {
    "methods": {}
  },
  "userdoc": {
    "methods": {}
  }
}