{
  "contractName": "Relayer",
  "abi": [
    {
      "constant": true,
      "inputs": [
        {
          "internalType": "address",
          "name": "",
          "type": "address"
        },
        {
          "internalType": "address",
          "name": "",
          "type": "address"
        }
      ],
      "name": "whitelist",
      "outputs": [
        {
          "internalType": "bool",
          "name": "",
          "type": "bool"
        }
      ],
      "payable": false,
      "stateMutability": "view",
      "type": "function"
    },
    {
      "constant": false,
      "inputs": [
        {
          "internalType": "uint8",
          "name": "sigV",
          "type": "uint8"
        },
        {
          "internalType": "bytes32",
          "name": "sigR",
          "type": "bytes32"
        },
        {
          "internalType": "bytes32",
          "name": "sigS",
          "type": "bytes32"
        },
        {
          "internalType": "address",
          "name": "destination",
          "type": "address"
        },
        {
          "internalType": "bytes",
          "name": "data",
          "type": "bytes"
        },
        {
          "internalType": "address",
          "name": "listOwner",
          "type": "address"
        }
      ],
      "name": "relayMetaTx",
      "outputs": [],
      "payable": false,
      "stateMutability": "nonpayable",
      "type": "function"
    },
    {
      "constant": true,
      "inputs": [
        {
          "internalType": "bytes",
          "name": "b",
          "type": "bytes"
        }
      ],
      "name": "getAddress",
      "outputs": [
        {
          "internalType": "address",
          "name": "a",
          "type": "address"
        }
      ],
      "payable": false,
      "stateMutability": "pure",
      "type": "function"
    },
    {
      "constant": true,
      "inputs": [
        {
          "internalType": "address",
          "name": "add",
          "type": "address"
        }
      ],
      "name": "getNonce",
      "outputs": [
        {
          "internalType": "uint256",
          "name": "",
          "type": "uint256"
        }
      ],
      "payable": false,
      "stateMutability": "view",
      "type": "function"
    },
    {
      "constant": false,
      "inputs": [
        {
          "internalType": "address[]",
          "name": "sendersToUpdate",
          "type": "address[]"
        }
      ],
      "name": "addToWhitelist",
      "outputs": [],
      "payable": false,
      "stateMutability": "nonpayable",
      "type": "function"
    },
    {
      "constant": false,
      "inputs": [
        {
          "internalType": "address[]",
          "name": "sendersToUpdate",
          "type": "address[]"
        }
      ],
      "name": "removeFromWhitelist",
      "outputs": [],
      "payable": false,
      "stateMutability": "nonpayable",
      "type": "function"
    }
  ],
  "bytecode": "0x608060405234801561001057600080fd5b50610b27806100206000396000f3fe608060405234801561001057600080fd5b50600436106100625760003560e01c80632d0335ab14610067578063548db174146100bf5780637f64978314610177578063b092145e1461022f578063c3f44c0a146102ab578063c47cf5de146103c7575b600080fd5b6100a96004803603602081101561007d57600080fd5b81019080803573ffffffffffffffffffffffffffffffffffffffff1690602001909291905050506104c2565b6040518082815260200191505060405180910390f35b610175600480360360208110156100d557600080fd5b81019080803590602001906401000000008111156100f257600080fd5b82018360208201111561010457600080fd5b8035906020019184602083028401116401000000008311171561012657600080fd5b919080806020026020016040519081016040528093929190818152602001838360200280828437600081840152601f19601f82011690508083019250505050505050919291929050505061050a565b005b61022d6004803603602081101561018d57600080fd5b81019080803590602001906401000000008111156101aa57600080fd5b8201836020820111156101bc57600080fd5b803590602001918460208302840111640100000000831117156101de57600080fd5b919080806020026020016040519081016040528093929190818152602001838360200280828437600081840152601f19601f820116905080830192505050505050509192919290505050610518565b005b6102916004803603604081101561024557600080fd5b81019080803573ffffffffffffffffffffffffffffffffffffffff169060200190929190803573ffffffffffffffffffffffffffffffffffffffff169060200190929190505050610526565b604051808215151515815260200191505060405180910390f35b6103c5600480360360c08110156102c157600080fd5b81019080803560ff1690602001909291908035906020019092919080359060200190929190803573ffffffffffffffffffffffffffffffffffffffff1690602001909291908035906020019064010000000081111561031f57600080fd5b82018360208201111561033157600080fd5b8035906020019184600183028401116401000000008311171561035357600080fd5b91908080601f016020809104026020016040519081016040528093929190818152602001838380828437600081840152601f19601f820116905080830192505050505050509192919290803573ffffffffffffffffffffffffffffffffffffffff169060200190929190505050610555565b005b610480600480360360208110156103dd57600080fd5b81019080803590602001906401000000008111156103fa57600080fd5b82018360208201111561040c57600080fd5b8035906020019184600183028401116401000000008311171561042e57600080fd5b91908080601f016020809104026020016040519081016040528093929190818152602001838380828437600081840152601f19601f8201169050808301925050505050505091929192905050506109f0565b604051808273ffffffffffffffffffffffffffffffffffffffff1673ffffffffffffffffffffffffffffffffffffffff16815260200191505060405180910390f35b60008060008373ffffffffffffffffffffffffffffffffffffffff1673ffffffffffffffffffffffffffffffffffffffff168152602001908152602001600020549050919050565b610515816000610a2a565b50565b610523816001610a2a565b50565b60016020528160005260406000206020528060005260406000206000915091509054906101000a900460ff1681565b600073ffffffffffffffffffffffffffffffffffffffff168173ffffffffffffffffffffffffffffffffffffffff1614806106165750600160008273ffffffffffffffffffffffffffffffffffffffff1673ffffffffffffffffffffffffffffffffffffffff16815260200190815260200160002060003373ffffffffffffffffffffffffffffffffffffffff1673ffffffffffffffffffffffffffffffffffffffff16815260200190815260200160002060009054906101000a900460ff165b61061f57600080fd5b600061062a836109f0565b90506000601960f81b600060f81b30856000808773ffffffffffffffffffffffffffffffffffffffff1673ffffffffffffffffffffffffffffffffffffffff16815260200190815260200160002054898960405160200180887effffffffffffffffffffffffffffffffffffffffffffffffffffffffffffff19167effffffffffffffffffffffffffffffffffffffffffffffffffffffffffffff19168152600101877effffffffffffffffffffffffffffffffffffffffffffffffffffffffffffff19167effffffffffffffffffffffffffffffffffffffffffffffffffffffffffffff191681526001018673ffffffffffffffffffffffffffffffffffffffff1673ffffffffffffffffffffffffffffffffffffffff1660601b81526014018573ffffffffffffffffffffffffffffffffffffffff1673ffffffffffffffffffffffffffffffffffffffff1660601b81526014018481526020018373ffffffffffffffffffffffffffffffffffffffff1673ffffffffffffffffffffffffffffffffffffffff1660601b815260140182805190602001908083835b602083106107ea57805182526020820191506020810190506020830392506107c7565b6001836020036101000a03801982511681845116808217855250505050505090500197505050505050505060405160208183030381529060405280519060200120905060006001828a8a8a60405160008152602001604052604051808581526020018460ff1660ff1681526020018381526020018281526020019450505050506020604051602081039080840390855afa15801561088c573d6000803e3d6000fd5b5050506020604051035190508073ffffffffffffffffffffffffffffffffffffffff168373ffffffffffffffffffffffffffffffffffffffff16146108d057600080fd5b6000808473ffffffffffffffffffffffffffffffffffffffff1673ffffffffffffffffffffffffffffffffffffffff16815260200190815260200160002060008154809291906001019190505550600060608773ffffffffffffffffffffffffffffffffffffffff16876040518082805190602001908083835b6020831061096d578051825260208201915060208101905060208303925061094a565b6001836020036101000a0380198251168184511680821785525050505050509050019150506000604051808303816000865af19150503d80600081146109cf576040519150601f19603f3d011682016040523d82523d6000602084013e6109d4565b606091505b5091509150816109e357600080fd5b5050505050505050505050565b6000602482511015610a055760009050610a25565b73ffffffffffffffffffffffffffffffffffffffff602483015181169150505b919050565b60008090505b8251811015610aed5781600160003373ffffffffffffffffffffffffffffffffffffffff1673ffffffffffffffffffffffffffffffffffffffff1681526020019081526020016000206000858481518110610a8757fe5b602002602001015173ffffffffffffffffffffffffffffffffffffffff1673ffffffffffffffffffffffffffffffffffffffff16815260200190815260200160002060006101000a81548160ff0219169083151502179055508080600101915050610a30565b50505056fea265627a7a723158204eac8162cd8e6c971c608aa6acbc471411ba7d90a3e02d131325d13f4ad7ccf964736f6c634300050c0032",
  "source": "// Adapted from https://github.com/uport-project/uport-identity/blob/develop/contracts/TxRelay.sol\n\npragma solidity ^0.5.0;\n\n// This contract is meant as a \"singleton\" forwarding contract.\n// Eventually, it will be able to forward any transaction to\n// Any contract that is built to accept it.\ncontract Relayer {\n\n    // Note: This is a local nonce.\n    // Different from the nonce defined w/in protocol.\n    mapping(address => uint) nonce;\n\n    // This mapping specifies a whitelist of allowed senders for transactions.\n    // There can be one whitelist per ethereum account, which is the owner of that\n    // whitelist. Users can specify which whitelist they want to use when signing\n    // a transaction. They can use their own whitelist, a whitelist belonging\n    // to another account, or skip using a whitelist by specifying the zero address.\n    mapping(address => mapping(address => bool)) public whitelist;\n\n    /*\n     * @dev Relays meta transactions\n     * @param sigV, sigR, sigS ECDSA signature on some data to be forwarded\n     * @param destination Location the meta-tx should be forwarded to\n     * @param data The bytes necessary to call the function in the destination contract.\n     * Note: The first encoded argument in data must be address of the signer. This means\n     * that all functions called from this relay must take an address as the first parameter.\n     */\n    function relayMetaTx(\n        uint8 sigV,\n        bytes32 sigR,\n        bytes32 sigS,\n        address destination,\n        bytes memory data,\n        address listOwner\n    ) public {\n\n        // only allow senders from the whitelist specified by the user,\n        // 0x0 means no whitelist.\n        require(listOwner == address(0x0) || whitelist[listOwner][msg.sender]);\n\n        address claimedSender = getAddress(data);\n        // use EIP 191\n        // 0x19 :: version :: relay :: whitelistOwner :: nonce :: destination :: data\n        bytes32 h = keccak256(abi.encodePacked(byte(0x19), byte(0), this, listOwner, nonce[claimedSender], destination, data));\n        address addressFromSig = ecrecover(h, sigV, sigR, sigS);\n\n        require(claimedSender == addressFromSig);\n\n        nonce[claimedSender]++; //if we are going to do tx, update nonce\n\n        (bool success, bytes memory callData) = destination.call(data);\n        callData;\n        require(success);\n    }\n\n    /*\n     * @dev Gets an address encoded as the first argument in transaction data\n     * @param b The byte array that should have an address as first argument\n     * @returns a The address retrieved from the array\n     (Optimization based on work by tjade273)\n     */\n    function getAddress(bytes memory b) public pure returns (address a) {\n        if (b.length < 36) return address(0);\n        assembly {\n            let mask := 0xFFFFFFFFFFFFFFFFFFFFFFFFFFFFFFFFFFFFFFFF\n            a := and(mask, mload(add(b, 36)))\n            // 36 is the offset of the first parameter of the data, if encoded properly.\n            // 32 bytes for the length of the bytes array, and 4 bytes for the function signature.\n        }\n    }\n\n    /*\n     * @dev Returns the local nonce of an account.\n     * @param add The address to return the nonce for.\n     * @return The specific-to-this-contract nonce of the address provided\n     */\n    function getNonce(address add) public view returns (uint) {\n        return nonce[add];\n    }\n\n    /*\n     * @dev Adds a number of addresses to a specific whitelist. Only\n     * the owner of a whitelist can add to it.\n     * @param sendersToUpdate the addresses to add to the whitelist\n     */\n    function addToWhitelist(address[] memory sendersToUpdate) public {\n        updateWhitelist(sendersToUpdate, true);\n    }\n\n    /*\n     * @dev Removes a number of addresses from a specific whitelist. Only\n     * the owner of a whitelist can remove from it.\n     * @param sendersToUpdate the addresses to add to the whitelist\n     */\n    function removeFromWhitelist(address[] memory sendersToUpdate) public {\n        updateWhitelist(sendersToUpdate, false);\n    }\n\n    /*\n     * @dev Internal logic to update a whitelist\n     * @param sendersToUpdate the addresses to add to the whitelist\n     * @param newStatus whether to add or remove addresses\n     */\n    function updateWhitelist(address[] memory sendersToUpdate, bool newStatus) private {\n        for (uint i = 0; i < sendersToUpdate.length; i++) {\n            whitelist[msg.sender][sendersToUpdate[i]] = newStatus;\n        }\n    }\n}",
  "sourcePath": "/media/000/Documents/culturestake/culturestake-contracts/contracts/Relayer.sol",
  "compiler": {
    "name": "solc",
    "version": "0.5.12+commit.7709ece9.Emscripten.clang"
  },
  "schemaVersion": "3.0.20",
  "updatedAt": "2020-03-06T09:54:23.662Z",
  "devdoc": {
    "methods": {}
  },
  "userdoc": {
    "methods": {}
  }
}