{
  "contractName": "Vote",
  "abi": [
    {
      "constant": false,
      "inputs": [],
      "name": "recordVote",
      "outputs": [
        {
          "internalType": "bool",
          "name": "",
          "type": "bool"
        }
      ],
      "payable": false,
      "stateMutability": "nonpayable",
      "type": "function"
    }
  ],
  "bytecode": "0x6080604052348015600f57600080fd5b50608b8061001e6000396000f3fe6080604052348015600f57600080fd5b506004361060285760003560e01c8063b216204414602d575b600080fd5b6033604d565b604051808215151515815260200191505060405180910390f35b6000600190509056fea265627a7a723158209bc5291394b751368f4819591c92e77853435f4ee2aa9b0d9588b2248e7b6a9f64736f6c634300050c0032",
  "source": "pragma solidity ^0.5.0;\n\ncontract Vote {\n  function recordVote() public returns (bool) {\n    return true;\n  }\n}",
  "sourcePath": "/media/000/Documents/culturestake/culturestake-contracts/contracts/Vote.sol",
  "compiler": {
    "name": "solc",
    "version": "0.5.12+commit.7709ece9.Emscripten.clang"
  },
  "schemaVersion": "3.0.20",
  "updatedAt": "2020-02-28T17:12:44.346Z",
  "devdoc": {
    "methods": {}
  },
  "userdoc": {
    "methods": {}
  }
}