{
  "contractName": "Vote",
  "abi": [
    {
      "constant": false,
      "inputs": [
        {
          "internalType": "address",
          "name": "sender",
          "type": "address"
        }
      ],
      "name": "recordVote",
      "outputs": [
        {
          "internalType": "bool",
          "name": "",
          "type": "bool"
        }
      ],
      "payable": false,
      "stateMutability": "nonpayable",
      "type": "function"
    }
  ],
  "bytecode": "0x608060405234801561001057600080fd5b50610106806100206000396000f3fe6080604052348015600f57600080fd5b506004361060285760003560e01c806392c1ff4414602d575b600080fd5b606c60048036036020811015604157600080fd5b81019080803573ffffffffffffffffffffffffffffffffffffffff1690602001909291905050506086565b604051808215151515815260200191505060405180910390f35b6000816000806101000a81548173ffffffffffffffffffffffffffffffffffffffff021916908373ffffffffffffffffffffffffffffffffffffffff1602179055506001905091905056fea265627a7a72315820cfde02a05c0b8aede1a5b3a528c27ee503f919036508ba941dee64d22cfd22dd64736f6c634300050c0032",
  "source": "pragma solidity ^0.5.0;\n\ncontract Vote {\n  address voter;\n\n  function recordVote(address sender) public returns (bool) {\n    voter = sender;\n    return true;\n  }\n}",
  "sourcePath": "/media/000/Documents/culturestake/culturestake-contracts/contracts/Vote.sol",
  "compiler": {
    "name": "solc",
    "version": "0.5.12+commit.7709ece9.Emscripten.clang"
  },
  "schemaVersion": "3.0.20",
  "updatedAt": "2020-03-03T14:54:41.437Z",
  "networkType": "ethereum",
  "devdoc": {
    "methods": {}
  },
  "userdoc": {
    "methods": {}
  }
}